{
  "_format": "hh-sol-artifact-1",
  "contractName": "Reports",
  "sourceName": "contracts/Reports.sol",
  "abi": [
    {
      "inputs": [],
      "stateMutability": "nonpayable",
      "type": "constructor"
    },
    {
      "inputs": [],
      "name": "EnforcedPause",
      "type": "error"
    },
    {
      "inputs": [],
      "name": "ExpectedPause",
      "type": "error"
    },
    {
      "inputs": [
        {
          "internalType": "address",
          "name": "owner",
          "type": "address"
        }
      ],
      "name": "OwnableInvalidOwner",
      "type": "error"
    },
    {
      "inputs": [
        {
          "internalType": "address",
          "name": "account",
          "type": "address"
        }
      ],
      "name": "OwnableUnauthorizedAccount",
      "type": "error"
    },
    {
      "inputs": [],
      "name": "ReentrancyGuardReentrantCall",
      "type": "error"
    },
    {
      "anonymous": false,
      "inputs": [
        {
          "indexed": true,
          "internalType": "address",
          "name": "previousOwner",
          "type": "address"
        },
        {
          "indexed": true,
          "internalType": "address",
          "name": "newOwner",
          "type": "address"
        }
      ],
      "name": "OwnershipTransferred",
      "type": "event"
    },
    {
      "anonymous": false,
      "inputs": [
        {
          "indexed": false,
          "internalType": "address",
          "name": "account",
          "type": "address"
        }
      ],
      "name": "Paused",
      "type": "event"
    },
    {
      "anonymous": false,
      "inputs": [
        {
          "indexed": true,
          "internalType": "uint256",
          "name": "propertyId",
          "type": "uint256"
        },
        {
          "indexed": true,
          "internalType": "address",
          "name": "landlord",
          "type": "address"
        }
      ],
      "name": "PropertyLandlordSet",
      "type": "event"
    },
    {
      "anonymous": false,
      "inputs": [
        {
          "indexed": true,
          "internalType": "uint256",
          "name": "reportId",
          "type": "uint256"
        },
        {
          "indexed": false,
          "internalType": "string",
          "name": "klerosDisputeId",
          "type": "string"
        },
        {
          "indexed": false,
          "internalType": "uint256",
          "name": "disputedAt",
          "type": "uint256"
        }
      ],
      "name": "ReportDisputed",
      "type": "event"
    },
    {
      "anonymous": false,
      "inputs": [
        {
          "indexed": true,
          "internalType": "uint256",
          "name": "reportId",
          "type": "uint256"
        },
        {
          "indexed": true,
          "internalType": "address",
          "name": "tenant",
          "type": "address"
        },
        {
          "indexed": true,
          "internalType": "uint256",
          "name": "propertyId",
          "type": "uint256"
        },
        {
          "indexed": false,
          "internalType": "uint8",
          "name": "rating",
          "type": "uint8"
        },
        {
          "indexed": false,
          "internalType": "string",
          "name": "ipfsHash",
          "type": "string"
        }
      ],
      "name": "ReportSubmitted",
      "type": "event"
    },
    {
      "anonymous": false,
      "inputs": [
        {
          "indexed": false,
          "internalType": "address",
          "name": "account",
          "type": "address"
        }
      ],
      "name": "Unpaused",
      "type": "event"
    },
    {
      "inputs": [
        {
          "internalType": "uint256",
          "name": "reportId",
          "type": "uint256"
        },
        {
          "internalType": "string",
          "name": "klerosDisputeId",
          "type": "string"
        }
      ],
      "name": "disputeReport",
      "outputs": [],
      "stateMutability": "nonpayable",
      "type": "function"
    },
    {
      "inputs": [
        {
          "internalType": "uint256",
          "name": "propertyId",
          "type": "uint256"
        }
      ],
      "name": "getPropertyLandlord",
      "outputs": [
        {
          "internalType": "address",
          "name": "",
          "type": "address"
        }
      ],
      "stateMutability": "view",
      "type": "function"
    },
    {
      "inputs": [
        {
          "internalType": "uint256",
          "name": "propertyId",
          "type": "uint256"
        }
      ],
      "name": "getPropertyReports",
      "outputs": [
        {
          "internalType": "uint256[]",
          "name": "",
          "type": "uint256[]"
        }
      ],
      "stateMutability": "view",
      "type": "function"
    },
    {
      "inputs": [
        {
          "internalType": "uint256",
          "name": "reportId",
          "type": "uint256"
        }
      ],
      "name": "getReport",
      "outputs": [
        {
          "internalType": "uint256",
          "name": "id",
          "type": "uint256"
        },
        {
          "internalType": "address",
          "name": "tenant",
          "type": "address"
        },
        {
          "internalType": "uint256",
          "name": "propertyId",
          "type": "uint256"
        },
        {
          "internalType": "uint8",
          "name": "rating",
          "type": "uint8"
        },
        {
          "internalType": "string",
          "name": "ipfsHash",
          "type": "string"
        },
        {
          "internalType": "uint256",
          "name": "createdAt",
          "type": "uint256"
        },
        {
          "internalType": "bool",
          "name": "isDisputed",
          "type": "bool"
        },
        {
          "internalType": "string",
          "name": "klerosDisputeId",
          "type": "string"
        },
        {
          "internalType": "uint256",
          "name": "disputedAt",
          "type": "uint256"
        }
      ],
      "stateMutability": "view",
      "type": "function"
    },
    {
      "inputs": [
        {
          "internalType": "address",
          "name": "tenant",
          "type": "address"
        }
      ],
      "name": "getTenantAverageRating",
      "outputs": [
        {
          "internalType": "uint8",
          "name": "",
          "type": "uint8"
        }
      ],
      "stateMutability": "view",
      "type": "function"
    },
    {
      "inputs": [
        {
          "internalType": "address",
          "name": "tenant",
          "type": "address"
        }
      ],
      "name": "getTenantReports",
      "outputs": [
        {
          "internalType": "uint256[]",
          "name": "",
          "type": "uint256[]"
        }
      ],
      "stateMutability": "view",
      "type": "function"
    },
    {
      "inputs": [],
      "name": "getTotalDisputedReports",
      "outputs": [
        {
          "internalType": "uint256",
          "name": "",
          "type": "uint256"
        }
      ],
      "stateMutability": "view",
      "type": "function"
    },
    {
      "inputs": [],
      "name": "getTotalReports",
      "outputs": [
        {
          "internalType": "uint256",
          "name": "",
          "type": "uint256"
        }
      ],
      "stateMutability": "view",
      "type": "function"
    },
    {
      "inputs": [
        {
          "internalType": "address",
          "name": "tenant",
          "type": "address"
        }
      ],
      "name": "getValidTenantReports",
      "outputs": [
        {
          "internalType": "uint256[]",
          "name": "",
          "type": "uint256[]"
        }
      ],
      "stateMutability": "view",
      "type": "function"
    },
    {
      "inputs": [
        {
          "internalType": "uint256",
          "name": "reportId",
          "type": "uint256"
        }
      ],
      "name": "isReportDisputed",
      "outputs": [
        {
          "internalType": "bool",
          "name": "",
          "type": "bool"
        }
      ],
      "stateMutability": "view",
      "type": "function"
    },
    {
      "inputs": [],
      "name": "owner",
      "outputs": [
        {
          "internalType": "address",
          "name": "",
          "type": "address"
        }
      ],
      "stateMutability": "view",
      "type": "function"
    },
    {
      "inputs": [],
      "name": "pause",
      "outputs": [],
      "stateMutability": "nonpayable",
      "type": "function"
    },
    {
      "inputs": [],
      "name": "paused",
      "outputs": [
        {
          "internalType": "bool",
          "name": "",
          "type": "bool"
        }
      ],
      "stateMutability": "view",
      "type": "function"
    },
    {
      "inputs": [
        {
          "internalType": "uint256",
          "name": "",
          "type": "uint256"
        }
      ],
      "name": "propertyLandlords",
      "outputs": [
        {
          "internalType": "address",
          "name": "",
          "type": "address"
        }
      ],
      "stateMutability": "view",
      "type": "function"
    },
    {
      "inputs": [
        {
          "internalType": "uint256",
          "name": "",
          "type": "uint256"
        },
        {
          "internalType": "uint256",
          "name": "",
          "type": "uint256"
        }
      ],
      "name": "propertyReports",
      "outputs": [
        {
          "internalType": "uint256",
          "name": "",
          "type": "uint256"
        }
      ],
      "stateMutability": "view",
      "type": "function"
    },
    {
      "inputs": [],
      "name": "renounceOwnership",
      "outputs": [],
      "stateMutability": "nonpayable",
      "type": "function"
    },
    {
      "inputs": [
        {
          "internalType": "uint256",
          "name": "",
          "type": "uint256"
        }
      ],
      "name": "reports",
      "outputs": [
        {
          "internalType": "uint256",
          "name": "reportId",
          "type": "uint256"
        },
        {
          "internalType": "address",
          "name": "tenant",
          "type": "address"
        },
        {
          "internalType": "uint256",
          "name": "propertyId",
          "type": "uint256"
        },
        {
          "internalType": "uint8",
          "name": "rating",
          "type": "uint8"
        },
        {
          "internalType": "string",
          "name": "ipfsHash",
          "type": "string"
        },
        {
          "internalType": "uint256",
          "name": "createdAt",
          "type": "uint256"
        },
        {
          "internalType": "bool",
          "name": "isDisputed",
          "type": "bool"
        },
        {
          "internalType": "string",
          "name": "klerosDisputeId",
          "type": "string"
        },
        {
          "internalType": "uint256",
          "name": "disputedAt",
          "type": "uint256"
        }
      ],
      "stateMutability": "view",
      "type": "function"
    },
    {
      "inputs": [
        {
          "internalType": "uint256",
          "name": "propertyId",
          "type": "uint256"
        },
        {
          "internalType": "address",
          "name": "landlord",
          "type": "address"
        }
      ],
      "name": "setPropertyLandlord",
      "outputs": [],
      "stateMutability": "nonpayable",
      "type": "function"
    },
    {
      "inputs": [
        {
          "internalType": "address",
          "name": "tenant",
          "type": "address"
        },
        {
          "internalType": "uint256",
          "name": "propertyId",
          "type": "uint256"
        },
        {
          "internalType": "uint8",
          "name": "rating",
          "type": "uint8"
        },
        {
          "internalType": "string",
          "name": "ipfsHash",
          "type": "string"
        }
      ],
      "name": "submitReport",
      "outputs": [],
      "stateMutability": "nonpayable",
      "type": "function"
    },
    {
      "inputs": [
        {
          "internalType": "address",
          "name": "",
          "type": "address"
        },
        {
          "internalType": "uint256",
          "name": "",
          "type": "uint256"
        }
      ],
      "name": "tenantReports",
      "outputs": [
        {
          "internalType": "uint256",
          "name": "",
          "type": "uint256"
        }
      ],
      "stateMutability": "view",
      "type": "function"
    },
    {
      "inputs": [],
      "name": "totalReports",
      "outputs": [
        {
          "internalType": "uint256",
          "name": "",
          "type": "uint256"
        }
      ],
      "stateMutability": "view",
      "type": "function"
    },
    {
      "inputs": [
        {
          "internalType": "address",
          "name": "newOwner",
          "type": "address"
        }
      ],
      "name": "transferOwnership",
      "outputs": [],
      "stateMutability": "nonpayable",
      "type": "function"
    },
    {
      "inputs": [],
      "name": "unpause",
      "outputs": [],
      "stateMutability": "nonpayable",
      "type": "function"
    }
  ],
  "bytecode": "0x608060405234801561001057600080fd5b50338061003757604051631e4fbdf760e01b81526000600482015260240160405180910390fd5b6100408161004a565b506001805561009a565b600080546001600160a01b038381166001600160a01b0319831681178455604051919092169283917f8be0079c531659141344cd1fd0a4f28419497f9722a3daafe3b4186f6b6457e09190a35050565b611a00806100a96000396000f3fe608060405234801561001057600080fd5b506004361061014d5760003560e01c80639f371510116100c3578063c942adf71161007c578063c942adf714610313578063d4e9950014610326578063dfa42bb31461032e578063e7d8228714610341578063f1b22e6214610354578063f2fde38b1461035c57600080fd5b80639f37151014610270578063b00eba4f14610283578063b1e62ecd1461028c578063b93bfc71146102b1578063b9d8f54b146102c4578063c13683be146102ea57600080fd5b80635c975abb116101155780635c975abb146101dd578063715018a6146101fb578063734978fb146102035780638456cb59146102445780638da5cb5b1461024c5780638e2a43971461025d57600080fd5b80632796fba314610152578063288f3f7c1461017857806330c4cc14146101985780633f4ba83a146101ab5780634e7f9b19146101b5575b600080fd5b6101656101603660046114b3565b61036f565b6040519081526020015b60405180910390f35b61018b6101863660046114dd565b6103a0565b60405161016f91906114ff565b61018b6101a63660046114dd565b61040c565b6101b36105b8565b005b6101c86101c3366004611543565b6105ca565b60405161016f999897969594939291906115a2565b600054600160a01b900460ff165b604051901515815260200161016f565b6101b36107ca565b61022c610211366004611543565b6000908152600560205260409020546001600160a01b031690565b6040516001600160a01b03909116815260200161016f565b6101b36107dc565b6000546001600160a01b031661022c565b61016561026b366004611617565b6107ec565b6101b361027e366004611639565b610808565b61016560065481565b61029f61029a3660046114dd565b610922565b60405160ff909116815260200161016f565b61018b6102bf366004611543565b610bc4565b6101eb6102d2366004611543565b60009081526002602052604090206006015460ff1690565b61022c6102f8366004611543565b6005602052600090815260409020546001600160a01b031681565b6101c8610321366004611543565b610c24565b600654610165565b6101b361033c366004611708565b610d94565b6101b361034f366004611778565b6110af565b6101656112a0565b6101b361036a3660046114dd565b6112ef565b6003602052816000526040600020818154811061038b57600080fd5b90600052602060002001600091509150505481565b6001600160a01b03811660009081526003602090815260409182902080548351818402810184019094528084526060939283018282801561040057602002820191906000526020600020905b8154815260200190600101908083116103ec575b50505050509050919050565b6001600160a01b038116600090815260036020908152604080832080548251818502810185019093528083526060949383018282801561046b57602002820191906000526020600020905b815481526020019060010190808311610457575b505050505090506000805b82518110156104d05760026000848381518110610495576104956117bf565b60209081029190910181015182528101919091526040016000206006015460ff166104c857816104c4816117eb565b9250505b600101610476565b5060008167ffffffffffffffff8111156104ec576104ec611665565b604051908082528060200260200182016040528015610515578160200160208202803683370190505b5090506000805b84518110156105ad576002600086838151811061053b5761053b6117bf565b60209081029190910181015182528101919091526040016000206006015460ff166105a557848181518110610572576105726117bf565b602002602001015183838151811061058c5761058c6117bf565b6020908102919091010152816105a1816117eb565b9250505b60010161051c565b509095945050505050565b6105c061132d565b6105c861135a565b565b60008181526002602081815260408084208151610120810183528154815260018201546001600160a01b0316938101939093529283015490820152600382015460ff16606082810191909152600483018054859485948594938593849386938593849391929160808401919061063f90611804565b80601f016020809104026020016040519081016040528092919081815260200182805461066b90611804565b80156106b85780601f1061068d576101008083540402835291602001916106b8565b820191906000526020600020905b81548152906001019060200180831161069b57829003601f168201915b505050918352505060058201546020820152600682015460ff16151560408201526007820180546060909201916106ee90611804565b80601f016020809104026020016040519081016040528092919081815260200182805461071a90611804565b80156107675780601f1061073c57610100808354040283529160200191610767565b820191906000526020600020905b81548152906001019060200180831161074a57829003601f168201915b505050505081526020016008820154815250509050806000015181602001518260400151836060015184608001518560a001518660c001518760e00151886101000151995099509950995099509950995099509950509193959799909294969850565b6107d261132d565b6105c860006113af565b6107e461132d565b6105c86113ff565b6004602052816000526040600020818154811061038b57600080fd5b6000546001600160a01b031633146108735760405162461bcd60e51b8152602060048201526024808201527f4f6e6c79206f776e65722063616e207365742070726f7065727479206c616e646044820152631b1bdc9960e21b60648201526084015b60405180910390fd5b6001600160a01b0381166108c95760405162461bcd60e51b815260206004820152601860248201527f496e76616c6964206c616e646c6f726420616464726573730000000000000000604482015260640161086a565b60008281526005602052604080822080546001600160a01b0319166001600160a01b0385169081179091559051909184917fc14290df6b228fbc7a806fd94e0f386611aa82e1c161809b438bb570a81b671d9190a35050565b6001600160a01b03811660009081526003602090815260408083208054825181850281018501909352808352849383018282801561097f57602002820191906000526020600020905b81548152602001906001019080831161096b575b5050505050905080516000036109985750600092915050565b60008060005b8351811015610b9d576000600260008684815181106109bf576109bf6117bf565b60209081029190910181015182528181019290925260409081016000208151610120810183528154815260018201546001600160a01b031693810193909352600281015491830191909152600381015460ff166060830152600481018054608084019190610a2c90611804565b80601f0160208091040260200160405190810160405280929190818152602001828054610a5890611804565b8015610aa55780601f10610a7a57610100808354040283529160200191610aa5565b820191906000526020600020905b815481529060010190602001808311610a8857829003601f168201915b505050918352505060058201546020820152600682015460ff1615156040820152600782018054606090920191610adb90611804565b80601f0160208091040260200160405190810160405280929190818152602001828054610b0790611804565b8015610b545780601f10610b2957610100808354040283529160200191610b54565b820191906000526020600020905b815481529060010190602001808311610b3757829003601f168201915b5050505050815260200160088201548152505090508060c00151610b94576060810151610b849060ff1685611838565b935082610b90816117eb565b9350505b5060010161099e565b5080600003610bb157506000949350505050565b610bbb8183611851565b95945050505050565b60008181526004602090815260409182902080548351818402810184019094528084526060939283018282801561040057602002820191906000526020600020908154815260200190600101908083116103ec5750505050509050919050565b60026020819052600091825260409091208054600182015492820154600383015460048401805493956001600160a01b031694929360ff9092169291610c6990611804565b80601f0160208091040260200160405190810160405280929190818152602001828054610c9590611804565b8015610ce25780601f10610cb757610100808354040283529160200191610ce2565b820191906000526020600020905b815481529060010190602001808311610cc557829003601f168201915b50505050600583015460068401546007850180549495929460ff909216935090610d0b90611804565b80601f0160208091040260200160405190810160405280929190818152602001828054610d3790611804565b8015610d845780601f10610d5957610100808354040283529160200191610d84565b820191906000526020600020905b815481529060010190602001808311610d6757829003601f168201915b5050505050908060080154905089565b610d9c611442565b6001600160a01b038416610deb5760405162461bcd60e51b8152602060048201526016602482015275496e76616c69642074656e616e74206164647265737360501b604482015260640161086a565b6000838152600560205260409020546001600160a01b03163314610e515760405162461bcd60e51b815260206004820152601f60248201527f4f6e6c79206c616e646c6f72642063616e207375626d6974207265706f727400604482015260640161086a565b60018260ff1610158015610e69575060058260ff1611155b610eb55760405162461bcd60e51b815260206004820152601e60248201527f526174696e67206d757374206265206265747765656e203120616e6420350000604482015260640161086a565b6000815111610f065760405162461bcd60e51b815260206004820152601960248201527f4950465320686173682063616e6e6f7420626520656d70747900000000000000604482015260640161086a565b60068054906000610f16836117eb565b909155505060065460408051610120810182528281526001600160a01b03878116602080840191825283850189815260ff89811660608701908152608087018a81524260a0890152600060c0890181905289518087018b5281815260e08a015261010089018190528a8152600295869052989098208751815594516001860180546001600160a01b0319169190971617909555905191830191909155915160038201805460ff191691909316179091559151909182916004820190610fdb90826118c4565b5060a0820151600582015560c082015160068201805460ff191691151591909117905560e0820151600782019061101290826118c4565b5061010091909101516008909101556001600160a01b0386166000818152600360209081526040808320805460018181018355918552838520018790558984526004835281842080549182018155845291909220018490555186919084907f985c487bc445f93efadb72a7f9637f946dfd4ac934c43b7dda1b9abab1564c5f9061109f9089908990611984565b60405180910390a4505050505050565b6110b7611442565b60008281526002602052604081205490036111075760405162461bcd60e51b815260206004820152601060248201526f14995c1bdc9d081b9bdd08199bdd5b9960821b604482015260640161086a565b6000828152600260205260409020600101546001600160a01b031633146111705760405162461bcd60e51b815260206004820152601e60248201527f4f6e6c792074656e616e742063616e2064697370757465207265706f72740000604482015260640161086a565b60008281526002602052604090206006015460ff16156111d25760405162461bcd60e51b815260206004820152601760248201527f5265706f727420616c7265616479206469737075746564000000000000000000604482015260640161086a565b600081511161122d5760405162461bcd60e51b815260206004820152602160248201527f4b6c65726f7320646973707574652049442063616e6e6f7420626520656d70746044820152607960f81b606482015260840161086a565b600082815260026020526040902060068101805460ff191660011790556007810161125883826118c4565b50426008820181905560405184917ff35b4bdea262c30f36e4c291a3c25ea6e89315ead93f5fa708dcdc4ac91692dd916112939186916119a8565b60405180910390a2505050565b60008060015b60065481116112e95760008181526002602052604090206006015460ff16156112d757816112d3816117eb565b9250505b806112e1816117eb565b9150506112a6565b50919050565b6112f761132d565b6001600160a01b03811661132157604051631e4fbdf760e01b81526000600482015260240161086a565b61132a816113af565b50565b6000546001600160a01b031633146105c85760405163118cdaa760e01b815233600482015260240161086a565b61136261146d565b6000805460ff60a01b191690557f5db9ee0a495bf2e6ff9c91a7834c1ba4fdd244a5e8aa4e537bd38aeae4b073aa335b6040516001600160a01b03909116815260200160405180910390a1565b600080546001600160a01b038381166001600160a01b0319831681178455604051919092169283917f8be0079c531659141344cd1fd0a4f28419497f9722a3daafe3b4186f6b6457e09190a35050565b611407611442565b6000805460ff60a01b1916600160a01b1790557f62e78cea01bee320cd4e420270b5ea74000d11b0c9f74754ebdbfc544b05a2586113923390565b600054600160a01b900460ff16156105c85760405163d93c066560e01b815260040160405180910390fd5b600054600160a01b900460ff166105c857604051638dfc202b60e01b815260040160405180910390fd5b80356001600160a01b03811681146114ae57600080fd5b919050565b600080604083850312156114c657600080fd5b6114cf83611497565b946020939093013593505050565b6000602082840312156114ef57600080fd5b6114f882611497565b9392505050565b6020808252825182820181905260009190848201906040850190845b818110156115375783518352928401929184019160010161151b565b50909695505050505050565b60006020828403121561155557600080fd5b5035919050565b6000815180845260005b8181101561158257602081850181015186830182015201611566565b506000602082860101526020601f19601f83011685010191505092915050565b8981526001600160a01b03891660208201526040810188905260ff87166060820152610120608082018190526000906115dd8382018961155c565b90508660a084015285151560c084015282810360e08401526115ff818661155c565b915050826101008301529a9950505050505050505050565b6000806040838503121561162a57600080fd5b50508035926020909101359150565b6000806040838503121561164c57600080fd5b8235915061165c60208401611497565b90509250929050565b634e487b7160e01b600052604160045260246000fd5b600082601f83011261168c57600080fd5b813567ffffffffffffffff808211156116a7576116a7611665565b604051601f8301601f19908116603f011681019082821181831017156116cf576116cf611665565b816040528381528660208588010111156116e857600080fd5b836020870160208301376000602085830101528094505050505092915050565b6000806000806080858703121561171e57600080fd5b61172785611497565b935060208501359250604085013560ff8116811461174457600080fd5b9150606085013567ffffffffffffffff81111561176057600080fd5b61176c8782880161167b565b91505092959194509250565b6000806040838503121561178b57600080fd5b82359150602083013567ffffffffffffffff8111156117a957600080fd5b6117b58582860161167b565b9150509250929050565b634e487b7160e01b600052603260045260246000fd5b634e487b7160e01b600052601160045260246000fd5b6000600182016117fd576117fd6117d5565b5060010190565b600181811c9082168061181857607f821691505b6020821081036112e957634e487b7160e01b600052602260045260246000fd5b8082018082111561184b5761184b6117d5565b92915050565b60008261186e57634e487b7160e01b600052601260045260246000fd5b500490565b601f8211156118bf576000816000526020600020601f850160051c8101602086101561189c5750805b601f850160051c820191505b818110156118bb578281556001016118a8565b5050505b505050565b815167ffffffffffffffff8111156118de576118de611665565b6118f2816118ec8454611804565b84611873565b602080601f831160018114611927576000841561190f5750858301515b600019600386901b1c1916600185901b1785556118bb565b600085815260208120601f198616915b8281101561195657888601518255948401946001909101908401611937565b50858210156119745787850151600019600388901b60f8161c191681555b5050505050600190811b01905550565b60ff831681526040602082015260006119a0604083018461155c565b949350505050565b6040815260006119bb604083018561155c565b9050826020830152939250505056fea2646970667358221220fb17ac462330bc1873aefc0352f2e0409c6ed63d1f69b4ae83a9b409297845eb64736f6c63430008160033",
  "linkReferences": {},
  "deployedLinkReferences": {}
}