{
  "_format": "hh-sol-artifact-1",
  "contractName": "Language",
  "sourceName": "contracts/Language.sol",
  "abi": [
    {
      "inputs": [],
      "stateMutability": "nonpayable",
      "type": "constructor"
    },
    {
      "inputs": [],
      "name": "EnforcedPause",
      "type": "error"
    },
    {
      "inputs": [],
      "name": "ExpectedPause",
      "type": "error"
    },
    {
      "inputs": [
        {
          "internalType": "address",
          "name": "owner",
          "type": "address"
        }
      ],
      "name": "OwnableInvalidOwner",
      "type": "error"
    },
    {
      "inputs": [
        {
          "internalType": "address",
          "name": "account",
          "type": "address"
        }
      ],
      "name": "OwnableUnauthorizedAccount",
      "type": "error"
    },
    {
      "inputs": [],
      "name": "ReentrancyGuardReentrantCall",
      "type": "error"
    },
    {
      "anonymous": false,
      "inputs": [
        {
          "indexed": true,
          "internalType": "address",
          "name": "user",
          "type": "address"
        },
        {
          "indexed": false,
          "internalType": "string",
          "name": "languageCode",
          "type": "string"
        },
        {
          "indexed": false,
          "internalType": "uint256",
          "name": "updatedAt",
          "type": "uint256"
        }
      ],
      "name": "LanguagePreferenceUpdated",
      "type": "event"
    },
    {
      "anonymous": false,
      "inputs": [
        {
          "indexed": true,
          "internalType": "string",
          "name": "languageCode",
          "type": "string"
        },
        {
          "indexed": false,
          "internalType": "bool",
          "name": "supported",
          "type": "bool"
        }
      ],
      "name": "LanguageSupported",
      "type": "event"
    },
    {
      "anonymous": false,
      "inputs": [
        {
          "indexed": true,
          "internalType": "address",
          "name": "previousOwner",
          "type": "address"
        },
        {
          "indexed": true,
          "internalType": "address",
          "name": "newOwner",
          "type": "address"
        }
      ],
      "name": "OwnershipTransferred",
      "type": "event"
    },
    {
      "anonymous": false,
      "inputs": [
        {
          "indexed": false,
          "internalType": "address",
          "name": "account",
          "type": "address"
        }
      ],
      "name": "Paused",
      "type": "event"
    },
    {
      "anonymous": false,
      "inputs": [
        {
          "indexed": true,
          "internalType": "string",
          "name": "languageCode",
          "type": "string"
        },
        {
          "indexed": false,
          "internalType": "string",
          "name": "ipfsHash",
          "type": "string"
        },
        {
          "indexed": false,
          "internalType": "uint256",
          "name": "version",
          "type": "uint256"
        },
        {
          "indexed": false,
          "internalType": "address",
          "name": "updatedBy",
          "type": "address"
        }
      ],
      "name": "TranslationFileUpdated",
      "type": "event"
    },
    {
      "anonymous": false,
      "inputs": [
        {
          "indexed": false,
          "internalType": "address",
          "name": "account",
          "type": "address"
        }
      ],
      "name": "Unpaused",
      "type": "event"
    },
    {
      "inputs": [
        {
          "internalType": "string",
          "name": "languageCode",
          "type": "string"
        }
      ],
      "name": "addSupportedLanguage",
      "outputs": [],
      "stateMutability": "nonpayable",
      "type": "function"
    },
    {
      "inputs": [
        {
          "internalType": "address",
          "name": "user",
          "type": "address"
        }
      ],
      "name": "getLanguagePreference",
      "outputs": [
        {
          "internalType": "string",
          "name": "",
          "type": "string"
        }
      ],
      "stateMutability": "view",
      "type": "function"
    },
    {
      "inputs": [],
      "name": "getLanguageStats",
      "outputs": [
        {
          "internalType": "uint256",
          "name": "totalSupported",
          "type": "uint256"
        },
        {
          "internalType": "uint256",
          "name": "totalTranslationFiles",
          "type": "uint256"
        }
      ],
      "stateMutability": "view",
      "type": "function"
    },
    {
      "inputs": [],
      "name": "getSupportedLanguages",
      "outputs": [
        {
          "internalType": "string[]",
          "name": "",
          "type": "string[]"
        }
      ],
      "stateMutability": "view",
      "type": "function"
    },
    {
      "inputs": [],
      "name": "getTotalSupportedLanguages",
      "outputs": [
        {
          "internalType": "uint256",
          "name": "",
          "type": "uint256"
        }
      ],
      "stateMutability": "view",
      "type": "function"
    },
    {
      "inputs": [
        {
          "internalType": "string",
          "name": "languageCode",
          "type": "string"
        }
      ],
      "name": "getTranslationFile",
      "outputs": [
        {
          "internalType": "string",
          "name": "",
          "type": "string"
        }
      ],
      "stateMutability": "view",
      "type": "function"
    },
    {
      "inputs": [
        {
          "internalType": "string",
          "name": "languageCode",
          "type": "string"
        }
      ],
      "name": "getTranslationFileDetails",
      "outputs": [
        {
          "internalType": "string",
          "name": "code",
          "type": "string"
        },
        {
          "internalType": "string",
          "name": "ipfsHash",
          "type": "string"
        },
        {
          "internalType": "uint256",
          "name": "version",
          "type": "uint256"
        },
        {
          "internalType": "uint256",
          "name": "updatedAt",
          "type": "uint256"
        },
        {
          "internalType": "address",
          "name": "updatedBy",
          "type": "address"
        }
      ],
      "stateMutability": "view",
      "type": "function"
    },
    {
      "inputs": [
        {
          "internalType": "string",
          "name": "languageCode",
          "type": "string"
        }
      ],
      "name": "getTranslationFileVersion",
      "outputs": [
        {
          "internalType": "uint256",
          "name": "",
          "type": "uint256"
        }
      ],
      "stateMutability": "view",
      "type": "function"
    },
    {
      "inputs": [
        {
          "internalType": "address",
          "name": "user",
          "type": "address"
        }
      ],
      "name": "getUserLanguageDetails",
      "outputs": [
        {
          "internalType": "address",
          "name": "userAddress",
          "type": "address"
        },
        {
          "internalType": "string",
          "name": "languageCode",
          "type": "string"
        },
        {
          "internalType": "uint256",
          "name": "updatedAt",
          "type": "uint256"
        }
      ],
      "stateMutability": "view",
      "type": "function"
    },
    {
      "inputs": [
        {
          "internalType": "string",
          "name": "languageCode",
          "type": "string"
        },
        {
          "internalType": "uint256",
          "name": "offset",
          "type": "uint256"
        },
        {
          "internalType": "uint256",
          "name": "limit",
          "type": "uint256"
        }
      ],
      "name": "getUsersByLanguage",
      "outputs": [
        {
          "internalType": "address[]",
          "name": "",
          "type": "address[]"
        }
      ],
      "stateMutability": "view",
      "type": "function"
    },
    {
      "inputs": [
        {
          "internalType": "string",
          "name": "languageCode",
          "type": "string"
        }
      ],
      "name": "isLanguageCodeSupported",
      "outputs": [
        {
          "internalType": "bool",
          "name": "",
          "type": "bool"
        }
      ],
      "stateMutability": "view",
      "type": "function"
    },
    {
      "inputs": [
        {
          "internalType": "string",
          "name": "",
          "type": "string"
        }
      ],
      "name": "isLanguageSupported",
      "outputs": [
        {
          "internalType": "bool",
          "name": "",
          "type": "bool"
        }
      ],
      "stateMutability": "view",
      "type": "function"
    },
    {
      "inputs": [
        {
          "internalType": "string",
          "name": "languageCode",
          "type": "string"
        }
      ],
      "name": "isValidLanguageCode",
      "outputs": [
        {
          "internalType": "bool",
          "name": "",
          "type": "bool"
        }
      ],
      "stateMutability": "pure",
      "type": "function"
    },
    {
      "inputs": [],
      "name": "owner",
      "outputs": [
        {
          "internalType": "address",
          "name": "",
          "type": "address"
        }
      ],
      "stateMutability": "view",
      "type": "function"
    },
    {
      "inputs": [],
      "name": "pause",
      "outputs": [],
      "stateMutability": "nonpayable",
      "type": "function"
    },
    {
      "inputs": [],
      "name": "paused",
      "outputs": [
        {
          "internalType": "bool",
          "name": "",
          "type": "bool"
        }
      ],
      "stateMutability": "view",
      "type": "function"
    },
    {
      "inputs": [
        {
          "internalType": "string",
          "name": "languageCode",
          "type": "string"
        }
      ],
      "name": "removeSupportedLanguage",
      "outputs": [],
      "stateMutability": "nonpayable",
      "type": "function"
    },
    {
      "inputs": [],
      "name": "renounceOwnership",
      "outputs": [],
      "stateMutability": "nonpayable",
      "type": "function"
    },
    {
      "inputs": [
        {
          "internalType": "string",
          "name": "languageCode",
          "type": "string"
        }
      ],
      "name": "setLanguagePreference",
      "outputs": [],
      "stateMutability": "nonpayable",
      "type": "function"
    },
    {
      "inputs": [
        {
          "internalType": "string",
          "name": "languageCode",
          "type": "string"
        },
        {
          "internalType": "string",
          "name": "ipfsHash",
          "type": "string"
        }
      ],
      "name": "setTranslationFile",
      "outputs": [],
      "stateMutability": "nonpayable",
      "type": "function"
    },
    {
      "inputs": [
        {
          "internalType": "uint256",
          "name": "",
          "type": "uint256"
        }
      ],
      "name": "supportedLanguages",
      "outputs": [
        {
          "internalType": "string",
          "name": "",
          "type": "string"
        }
      ],
      "stateMutability": "view",
      "type": "function"
    },
    {
      "inputs": [
        {
          "internalType": "address",
          "name": "newOwner",
          "type": "address"
        }
      ],
      "name": "transferOwnership",
      "outputs": [],
      "stateMutability": "nonpayable",
      "type": "function"
    },
    {
      "inputs": [
        {
          "internalType": "string",
          "name": "",
          "type": "string"
        }
      ],
      "name": "translationFiles",
      "outputs": [
        {
          "internalType": "string",
          "name": "languageCode",
          "type": "string"
        },
        {
          "internalType": "string",
          "name": "ipfsHash",
          "type": "string"
        },
        {
          "internalType": "uint256",
          "name": "version",
          "type": "uint256"
        },
        {
          "internalType": "uint256",
          "name": "updatedAt",
          "type": "uint256"
        },
        {
          "internalType": "address",
          "name": "updatedBy",
          "type": "address"
        }
      ],
      "stateMutability": "view",
      "type": "function"
    },
    {
      "inputs": [],
      "name": "unpause",
      "outputs": [],
      "stateMutability": "nonpayable",
      "type": "function"
    },
    {
      "inputs": [
        {
          "internalType": "address",
          "name": "",
          "type": "address"
        }
      ],
      "name": "userLanguages",
      "outputs": [
        {
          "internalType": "address",
          "name": "user",
          "type": "address"
        },
        {
          "internalType": "string",
          "name": "languageCode",
          "type": "string"
        },
        {
          "internalType": "uint256",
          "name": "updatedAt",
          "type": "uint256"
        }
      ],
      "stateMutability": "view",
      "type": "function"
    }
  ],
  "bytecode": "0x60806040523480156200001157600080fd5b5033806200003957604051631e4fbdf760e01b81526000600482015260240160405180910390fd5b6200004481620001ff565b506001805560408051808201909152600281526132b760f11b60208201526200006d906200024f565b604080518082019091526002815261657360f01b602082015262000091906200024f565b604080518082019091526002815261333960f11b6020820152620000b5906200024f565b604080518082019091526002815261646560f01b6020820152620000d9906200024f565b6040805180820190915260028152611a5d60f21b6020820152620000fd906200024f565b6040805180820190915260028152611c1d60f21b602082015262000121906200024f565b604080518082019091526002815261727560f01b602082015262000145906200024f565b6040805180820190915260028152610f4d60f31b602082015262000169906200024f565b6040805180820190915260028152616a6160f01b60208201526200018d906200024f565b6040805180820190915260028152616b6f60f01b6020820152620001b1906200024f565b60408051808201909152600281526130b960f11b6020820152620001d5906200024f565b604080518082019091526002815261686960f01b6020820152620001f9906200024f565b620004b4565b600080546001600160a01b038381166001600160a01b0319831681178455604051919092169283917f8be0079c531659141344cd1fd0a4f28419497f9722a3daafe3b4186f6b6457e09190a35050565b600160058260405162000263919062000310565b908152604051908190036020019020805491151560ff19909216919091179055600480546001810182556000919091527f8a35acfbc15ff81a39ae7d344fd709f28e8600b4aa8c65c6b64bfe7fe36bd19b01620002c18282620003e8565b5080604051620002d2919062000310565b60405190819003812060018252907f04ee10551d6c133accf687432ec4515a992da57601f473cc14f51d75a7e62f229060200160405180910390a250565b6000825160005b8181101562000333576020818601810151858301520162000317565b506000920191825250919050565b634e487b7160e01b600052604160045260246000fd5b600181811c908216806200036c57607f821691505b6020821081036200038d57634e487b7160e01b600052602260045260246000fd5b50919050565b601f821115620003e3576000816000526020600020601f850160051c81016020861015620003be5750805b601f850160051c820191505b81811015620003df57828155600101620003ca565b5050505b505050565b81516001600160401b0381111562000404576200040462000341565b6200041c8162000415845462000357565b8462000393565b602080601f8311600181146200045457600084156200043b5750858301515b600019600386901b1c1916600185901b178555620003df565b600085815260208120601f198616915b82811015620004855788860151825594840194600190910190840162000464565b5085821015620004a45787850151600019600388901b60f8161c191681555b5050505050600190811b01905550565b611cfc80620004c46000396000f3fe608060405234801561001057600080fd5b50600436106101735760003560e01c8063715018a6116100de578063c81a828411610097578063e0eeea6c11610071578063e0eeea6c1461036c578063e9c656ea1461037f578063f036b51014610392578063f2fde38b146103a557600080fd5b8063c81a828414610333578063ce515ceb14610346578063cedc635c1461035957600080fd5b8063715018a6146102cd5780637832ef47146102d55780638456cb59146102f55780638da5cb5b146102fd5780638f53aea414610318578063b77377011461032057600080fd5b8063545557961161013057806354555796146102265780635c975abb1461024757806363da0e2e1461025957806366ac7d5e146102795780636882ef6f1461028c578063713228b7146102b057600080fd5b80630106bc431461017857806308703bba146101a35780633f4ba83a146101b857806343bd7328146101c257806346b72103146101e55780634b3045bf14610213575b600080fd5b61018b610186366004611536565b6103b8565b60405161019a939291906115b6565b60405180910390f35b6101ab6104a9565b60405161019a91906115ea565b6101c0610582565b005b6101d56101d03660046116f1565b610594565b604051901515815260200161019a565b6101d56101f33660046116f1565b805160208183018101805160058252928201919093012091525460ff1681565b61018b610221366004611536565b6105bf565b6102396102343660046116f1565b610674565b60405190815260200161019a565b600054600160a01b900460ff166101d5565b61026c61026736600461172e565b61069f565b60405161019a9190611747565b6101c06102873660046116f1565b61074b565b61029f61029a3660046116f1565b61081b565b60405161019a95949392919061175a565b6102b86109c9565b6040805192835260208301919091520161019a565b6101c0610a4a565b6102e86102e33660046117a6565b610a5c565b60405161019a91906117f4565b6101c0610aac565b6000546040516001600160a01b03909116815260200161019a565b600454610239565b6101c061032e3660046116f1565b610abc565b61026c6103413660046116f1565b610ce5565b6101d56103543660046116f1565b610d98565b6101c06103673660046116f1565b610e6d565b61029f61037a3660046116f1565b610f6c565b6101c061038d366004611841565b6110c0565b61026c6103a0366004611536565b611264565b6101c06103b3366004611536565b61128e565b6001600160a01b03808216600090815260026020908152604080832081516060818101909352815490951685526001810180549495929486948594939290840191610402906118a5565b80601f016020809104026020016040519081016040528092919081815260200182805461042e906118a5565b801561047b5780601f106104505761010080835404028352916020019161047b565b820191906000526020600020905b81548152906001019060200180831161045e57829003601f168201915b5050509183525050600291909101546020918201528151908201516040909201519097919650945092505050565b60606004805480602002602001604051908101604052809291908181526020016000905b828210156105795783829060005260206000200180546104ec906118a5565b80601f0160208091040260200160405190810160405280929190818152602001828054610518906118a5565b80156105655780601f1061053a57610100808354040283529160200191610565565b820191906000526020600020905b81548152906001019060200180831161054857829003601f168201915b5050505050815260200190600101906104cd565b50505050905090565b61058a6112c9565b6105926112f6565b565b60006005826040516105a691906118df565b9081526040519081900360200190205460ff1692915050565b600260205260009081526040902080546001820180546001600160a01b0390921692916105eb906118a5565b80601f0160208091040260200160405190810160405280929190818152602001828054610617906118a5565b80156106645780601f1061063957610100808354040283529160200191610664565b820191906000526020600020905b81548152906001019060200180831161064757829003601f168201915b5050505050908060020154905083565b600060038260405161068691906118df565b9081526020016040518091039020600201549050919050565b600481815481106106af57600080fd5b9060005260206000200160009150905080546106ca906118a5565b80601f01602080910402602001604051908101604052809291908181526020018280546106f6906118a5565b80156107435780601f1061071857610100808354040283529160200191610743565b820191906000526020600020905b81548152906001019060200180831161072657829003601f168201915b505050505081565b6107536112c9565b600081511161077d5760405162461bcd60e51b8152600401610774906118fb565b60405180910390fd5b60058151111561079f5760405162461bcd60e51b815260040161077490611932565b6005816040516107af91906118df565b9081526040519081900360200190205460ff161561080f5760405162461bcd60e51b815260206004820152601a60248201527f4c616e677561676520616c726561647920737570706f727465640000000000006044820152606401610774565b6108188161134b565b50565b60608060008060008060038760405161083491906118df565b90815260200160405180910390206040518060a001604052908160008201805461085d906118a5565b80601f0160208091040260200160405190810160405280929190818152602001828054610889906118a5565b80156108d65780601f106108ab576101008083540402835291602001916108d6565b820191906000526020600020905b8154815290600101906020018083116108b957829003601f168201915b505050505081526020016001820180546108ef906118a5565b80601f016020809104026020016040519081016040528092919081815260200182805461091b906118a5565b80156109685780601f1061093d57610100808354040283529160200191610968565b820191906000526020600020905b81548152906001019060200180831161094b57829003601f168201915b5050509183525050600282015460208083019190915260038301546040808401919091526004909301546001600160a01b03166060928301528351908401519284015191840151608090940151909b929a5090985091965090945092505050565b600454600080805b600454811015610a435760006003600483815481106109f2576109f2611962565b90600052602060002001604051610a0991906119eb565b90815260200160405180910390206001018054610a25906118a5565b90501115610a3b5781610a3781611a0d565b9250505b6001016109d1565b5091929050565b610a526112c9565b6105926000611400565b606060008267ffffffffffffffff811115610a7957610a7961164e565b604051908082528060200260200182016040528015610aa2578160200160208202803683370190505b5095945050505050565b610ab46112c9565b610592611450565b610ac46112c9565b600581604051610ad491906118df565b9081526040519081900360200190205460ff16610b035760405162461bcd60e51b815260040161077490611a26565b60408051808201909152600281526132b760f11b6020918201528151908201207fabee787395adbd3ec3168a1ce2c2ed2616bcc15deb9d22bfb9e2b3224df8960401610b895760405162461bcd60e51b8152602060048201526015602482015274086c2dcdcdee840e4cadadeecca408adcced8d2e6d605b1b6044820152606401610774565b6000600582604051610b9b91906118df565b908152604051908190036020019020805491151560ff1990921691909117905560005b600454811015610c9757818051906020012060048281548110610be357610be3611962565b90600052602060002001604051610bfa91906119eb565b604051809103902003610c8f5760048054610c1790600190611a56565b81548110610c2757610c27611962565b9060005260206000200160048281548110610c4457610c44611962565b906000526020600020019081610c5a9190611ac0565b506004805480610c6c57610c6c611ba1565b600190038181906000526020600020016000610c8891906114e8565b9055610c97565b600101610bbe565b5080604051610ca691906118df565b60405190819003812060008252907f04ee10551d6c133accf687432ec4515a992da57601f473cc14f51d75a7e62f22906020015b60405180910390a250565b6060600382604051610cf791906118df565b90815260200160405180910390206001018054610d13906118a5565b80601f0160208091040260200160405190810160405280929190818152602001828054610d3f906118a5565b8015610d8c5780601f10610d6157610100808354040283529160200191610d8c565b820191906000526020600020905b815481529060010190602001808311610d6f57829003601f168201915b50505050509050919050565b805160009082901580610dac575060058151115b15610dba5750600092915050565b60005b8151811015610e6357606160f81b828281518110610ddd57610ddd611962565b01602001516001600160f81b03191610801590610e1e5750607a60f81b828281518110610e0c57610e0c611962565b01602001516001600160f81b03191611155b80610e4d5750818181518110610e3657610e36611962565b6020910101516001600160f81b031916602d60f81b145b610e5b575060009392505050565b600101610dbd565b5060019392505050565b610e75611493565b6000815111610e965760405162461bcd60e51b8152600401610774906118fb565b600581511115610eb85760405162461bcd60e51b815260040161077490611932565b600581604051610ec891906118df565b9081526040519081900360200190205460ff16610ef75760405162461bcd60e51b815260040161077490611a26565b33600081815260026020526040902080546001600160a01b031916909117815560018101610f258382611bb7565b50426002820181905560405133917fbb0cdaa23e40185cc53a346a1906eaf24b79ef87d41616f45a18793583b8840a91610f60918691611c71565b60405180910390a25050565b8051602081830181018051600382529282019190930120915280548190610f92906118a5565b80601f0160208091040260200160405190810160405280929190818152602001828054610fbe906118a5565b801561100b5780601f10610fe05761010080835404028352916020019161100b565b820191906000526020600020905b815481529060010190602001808311610fee57829003601f168201915b505050505090806001018054611020906118a5565b80601f016020809104026020016040519081016040528092919081815260200182805461104c906118a5565b80156110995780601f1061106e57610100808354040283529160200191611099565b820191906000526020600020905b81548152906001019060200180831161107c57829003601f168201915b5050505060028301546003840154600490940154929390929091506001600160a01b031685565b6110c86112c9565b60008251116110e95760405162461bcd60e51b8152600401610774906118fb565b60058251111561110b5760405162461bcd60e51b815260040161077490611932565b600081511161115c5760405162461bcd60e51b815260206004820152601960248201527f4950465320686173682063616e6e6f7420626520656d707479000000000000006044820152606401610774565b60058260405161116c91906118df565b9081526040519081900360200190205460ff1661119b5760405162461bcd60e51b815260040161077490611a26565b60006003836040516111ad91906118df565b9081526040519081900360200190209050806111c98482611bb7565b50600181016111d88382611bb7565b506002810180549060006111eb83611a0d565b90915550504260038201556004810180546001600160a01b031916331790556040516112189084906118df565b60405180910390207f8d1c448e384ed530e95f9d370f68fdc86f7e328689e5a1052c5432668194d4fb8383600201543360405161125793929190611c93565b60405180910390a2505050565b6001600160a01b0381166000908152600260205260409020600101805460609190610d13906118a5565b6112966112c9565b6001600160a01b0381166112c057604051631e4fbdf760e01b815260006004820152602401610774565b61081881611400565b6000546001600160a01b031633146105925760405163118cdaa760e01b8152336004820152602401610774565b6112fe6114be565b6000805460ff60a01b191690557f5db9ee0a495bf2e6ff9c91a7834c1ba4fdd244a5e8aa4e537bd38aeae4b073aa335b6040516001600160a01b03909116815260200160405180910390a1565b600160058260405161135d91906118df565b908152604051908190036020019020805491151560ff19909216919091179055600480546001810182556000919091527f8a35acfbc15ff81a39ae7d344fd709f28e8600b4aa8c65c6b64bfe7fe36bd19b016113b98282611bb7565b50806040516113c891906118df565b60405190819003812060018252907f04ee10551d6c133accf687432ec4515a992da57601f473cc14f51d75a7e62f2290602001610cda565b600080546001600160a01b038381166001600160a01b0319831681178455604051919092169283917f8be0079c531659141344cd1fd0a4f28419497f9722a3daafe3b4186f6b6457e09190a35050565b611458611493565b6000805460ff60a01b1916600160a01b1790557f62e78cea01bee320cd4e420270b5ea74000d11b0c9f74754ebdbfc544b05a25861132e3390565b600054600160a01b900460ff16156105925760405163d93c066560e01b815260040160405180910390fd5b600054600160a01b900460ff1661059257604051638dfc202b60e01b815260040160405180910390fd5b5080546114f4906118a5565b6000825580601f10611504575050565b601f01602090049060005260206000209081019061081891905b80821115611532576000815560010161151e565b5090565b60006020828403121561154857600080fd5b81356001600160a01b038116811461155f57600080fd5b9392505050565b60005b83811015611581578181015183820152602001611569565b50506000910152565b600081518084526115a2816020860160208601611566565b601f01601f19169290920160200192915050565b6001600160a01b03841681526060602082018190526000906115da9083018561158a565b9050826040830152949350505050565b600060208083016020845280855180835260408601915060408160051b87010192506020870160005b8281101561164157603f1988860301845261162f85835161158a565b94509285019290850190600101611613565b5092979650505050505050565b634e487b7160e01b600052604160045260246000fd5b600082601f83011261167557600080fd5b813567ffffffffffffffff808211156116905761169061164e565b604051601f8301601f19908116603f011681019082821181831017156116b8576116b861164e565b816040528381528660208588010111156116d157600080fd5b836020870160208301376000602085830101528094505050505092915050565b60006020828403121561170357600080fd5b813567ffffffffffffffff81111561171a57600080fd5b61172684828501611664565b949350505050565b60006020828403121561174057600080fd5b5035919050565b60208152600061155f602083018461158a565b60a08152600061176d60a083018861158a565b828103602084015261177f818861158a565b6040840196909652505060608101929092526001600160a01b031660809091015292915050565b6000806000606084860312156117bb57600080fd5b833567ffffffffffffffff8111156117d257600080fd5b6117de86828701611664565b9660208601359650604090950135949350505050565b6020808252825182820181905260009190848201906040850190845b818110156118355783516001600160a01b031683529284019291840191600101611810565b50909695505050505050565b6000806040838503121561185457600080fd5b823567ffffffffffffffff8082111561186c57600080fd5b61187886838701611664565b9350602085013591508082111561188e57600080fd5b5061189b85828601611664565b9150509250929050565b600181811c908216806118b957607f821691505b6020821081036118d957634e487b7160e01b600052602260045260246000fd5b50919050565b600082516118f1818460208701611566565b9190910192915050565b6020808252601d908201527f4c616e677561676520636f64652063616e6e6f7420626520656d707479000000604082015260600190565b6020808252601690820152754c616e677561676520636f646520746f6f206c6f6e6760501b604082015260600190565b634e487b7160e01b600052603260045260246000fd5b60008154611985816118a5565b6001828116801561199d57600181146119b2576119e1565b60ff19841687528215158302870194506119e1565b8560005260208060002060005b858110156119d85781548a8201529084019082016119bf565b50505082870194505b5050505092915050565b600061155f8284611978565b634e487b7160e01b600052601160045260246000fd5b600060018201611a1f57611a1f6119f7565b5060010190565b60208082526016908201527513185b99dd5859d9481b9bdd081cdd5c1c1bdc9d195960521b604082015260600190565b81810381811115611a6957611a696119f7565b92915050565b601f821115611abb576000816000526020600020601f850160051c81016020861015611a985750805b601f850160051c820191505b81811015611ab757828155600101611aa4565b5050505b505050565b818103611acb575050565b611ad582546118a5565b67ffffffffffffffff811115611aed57611aed61164e565b611b0181611afb84546118a5565b84611a6f565b6000601f821160018114611b355760008315611b1d5750848201545b600019600385901b1c1916600184901b178455611b9a565b600085815260209020601f19841690600086815260209020845b83811015611b6f5782860154825560019586019590910190602001611b4f565b5085831015611b8d5781850154600019600388901b60f8161c191681555b50505060018360011b0184555b5050505050565b634e487b7160e01b600052603160045260246000fd5b815167ffffffffffffffff811115611bd157611bd161164e565b611bdf81611afb84546118a5565b602080601f831160018114611c145760008415611bfc5750858301515b600019600386901b1c1916600185901b178555611ab7565b600085815260208120601f198616915b82811015611c4357888601518255948401946001909101908401611c24565b5085821015611c615787850151600019600388901b60f8161c191681555b5050505050600190811b01905550565b604081526000611c84604083018561158a565b90508260208301529392505050565b606081526000611ca6606083018661158a565b6020830194909452506001600160a01b039190911660409091015291905056fea2646970667358221220d17b60a4f569a3c3243e90e414f77f7c09304e1b3a3311e7894740a96e424f3f64736f6c63430008160033",
  "linkReferences": {},
  "deployedLinkReferences": {}
}