{
  "_format": "hh-sol-artifact-1",
  "contractName": "CreditScore",
  "sourceName": "contracts/CreditScore.sol",
  "abi": [
    {
      "inputs": [],
      "stateMutability": "nonpayable",
      "type": "constructor"
    },
    {
      "inputs": [],
      "name": "EnforcedPause",
      "type": "error"
    },
    {
      "inputs": [],
      "name": "ExpectedPause",
      "type": "error"
    },
    {
      "inputs": [
        {
          "internalType": "address",
          "name": "owner",
          "type": "address"
        }
      ],
      "name": "OwnableInvalidOwner",
      "type": "error"
    },
    {
      "inputs": [
        {
          "internalType": "address",
          "name": "account",
          "type": "address"
        }
      ],
      "name": "OwnableUnauthorizedAccount",
      "type": "error"
    },
    {
      "inputs": [],
      "name": "ReentrancyGuardReentrantCall",
      "type": "error"
    },
    {
      "anonymous": false,
      "inputs": [
        {
          "indexed": true,
          "internalType": "address",
          "name": "contractAddress",
          "type": "address"
        },
        {
          "indexed": false,
          "internalType": "bool",
          "name": "authorized",
          "type": "bool"
        }
      ],
      "name": "AuthorizedContractUpdated",
      "type": "event"
    },
    {
      "anonymous": false,
      "inputs": [
        {
          "indexed": true,
          "internalType": "address",
          "name": "tenant",
          "type": "address"
        },
        {
          "indexed": true,
          "internalType": "uint256",
          "name": "propertyId",
          "type": "uint256"
        },
        {
          "indexed": false,
          "internalType": "bool",
          "name": "resolved",
          "type": "bool"
        }
      ],
      "name": "ComplaintStatusUpdated",
      "type": "event"
    },
    {
      "anonymous": false,
      "inputs": [
        {
          "indexed": true,
          "internalType": "address",
          "name": "tenant",
          "type": "address"
        },
        {
          "indexed": false,
          "internalType": "uint256",
          "name": "score",
          "type": "uint256"
        }
      ],
      "name": "CreditScoreUpdated",
      "type": "event"
    },
    {
      "anonymous": false,
      "inputs": [
        {
          "indexed": true,
          "internalType": "address",
          "name": "previousOwner",
          "type": "address"
        },
        {
          "indexed": true,
          "internalType": "address",
          "name": "newOwner",
          "type": "address"
        }
      ],
      "name": "OwnershipTransferred",
      "type": "event"
    },
    {
      "anonymous": false,
      "inputs": [
        {
          "indexed": false,
          "internalType": "address",
          "name": "account",
          "type": "address"
        }
      ],
      "name": "Paused",
      "type": "event"
    },
    {
      "anonymous": false,
      "inputs": [
        {
          "indexed": true,
          "internalType": "address",
          "name": "tenant",
          "type": "address"
        },
        {
          "indexed": true,
          "internalType": "uint256",
          "name": "propertyId",
          "type": "uint256"
        },
        {
          "indexed": false,
          "internalType": "bool",
          "name": "onTime",
          "type": "bool"
        }
      ],
      "name": "PaymentRecorded",
      "type": "event"
    },
    {
      "anonymous": false,
      "inputs": [
        {
          "indexed": true,
          "internalType": "address",
          "name": "tenant",
          "type": "address"
        },
        {
          "indexed": true,
          "internalType": "uint256",
          "name": "propertyId",
          "type": "uint256"
        },
        {
          "indexed": false,
          "internalType": "uint8",
          "name": "rating",
          "type": "uint8"
        }
      ],
      "name": "RatingUpdated",
      "type": "event"
    },
    {
      "anonymous": false,
      "inputs": [
        {
          "indexed": false,
          "internalType": "address",
          "name": "account",
          "type": "address"
        }
      ],
      "name": "Unpaused",
      "type": "event"
    },
    {
      "inputs": [],
      "name": "COMPLAINT_WEIGHT",
      "outputs": [
        {
          "internalType": "uint256",
          "name": "",
          "type": "uint256"
        }
      ],
      "stateMutability": "view",
      "type": "function"
    },
    {
      "inputs": [],
      "name": "PAYMENT_WEIGHT",
      "outputs": [
        {
          "internalType": "uint256",
          "name": "",
          "type": "uint256"
        }
      ],
      "stateMutability": "view",
      "type": "function"
    },
    {
      "inputs": [],
      "name": "RATING_WEIGHT",
      "outputs": [
        {
          "internalType": "uint256",
          "name": "",
          "type": "uint256"
        }
      ],
      "stateMutability": "view",
      "type": "function"
    },
    {
      "inputs": [
        {
          "internalType": "address",
          "name": "",
          "type": "address"
        }
      ],
      "name": "authorizedContracts",
      "outputs": [
        {
          "internalType": "bool",
          "name": "",
          "type": "bool"
        }
      ],
      "stateMutability": "view",
      "type": "function"
    },
    {
      "inputs": [
        {
          "internalType": "address",
          "name": "tenant",
          "type": "address"
        }
      ],
      "name": "calculateCreditScore",
      "outputs": [
        {
          "internalType": "uint256",
          "name": "score",
          "type": "uint256"
        }
      ],
      "stateMutability": "view",
      "type": "function"
    },
    {
      "inputs": [
        {
          "internalType": "address",
          "name": "",
          "type": "address"
        }
      ],
      "name": "creditScores",
      "outputs": [
        {
          "internalType": "uint256",
          "name": "",
          "type": "uint256"
        }
      ],
      "stateMutability": "view",
      "type": "function"
    },
    {
      "inputs": [
        {
          "internalType": "address",
          "name": "tenant",
          "type": "address"
        }
      ],
      "name": "getAverageRating",
      "outputs": [
        {
          "internalType": "uint256",
          "name": "average",
          "type": "uint256"
        }
      ],
      "stateMutability": "pure",
      "type": "function"
    },
    {
      "inputs": [
        {
          "internalType": "address",
          "name": "tenant",
          "type": "address"
        }
      ],
      "name": "getComplaintResolutionRate",
      "outputs": [
        {
          "internalType": "uint256",
          "name": "percentage",
          "type": "uint256"
        }
      ],
      "stateMutability": "pure",
      "type": "function"
    },
    {
      "inputs": [
        {
          "internalType": "address",
          "name": "tenant",
          "type": "address"
        }
      ],
      "name": "getPaymentTimelinessPercentage",
      "outputs": [
        {
          "internalType": "uint256",
          "name": "percentage",
          "type": "uint256"
        }
      ],
      "stateMutability": "pure",
      "type": "function"
    },
    {
      "inputs": [
        {
          "internalType": "address",
          "name": "tenant",
          "type": "address"
        },
        {
          "internalType": "uint256",
          "name": "propertyId",
          "type": "uint256"
        }
      ],
      "name": "getRentalHistory",
      "outputs": [
        {
          "internalType": "address",
          "name": "tenantAddress",
          "type": "address"
        },
        {
          "internalType": "uint256",
          "name": "property",
          "type": "uint256"
        },
        {
          "internalType": "uint256",
          "name": "paymentCount",
          "type": "uint256"
        },
        {
          "internalType": "uint256",
          "name": "onTimePayments",
          "type": "uint256"
        },
        {
          "internalType": "uint256",
          "name": "complaintsResolved",
          "type": "uint256"
        },
        {
          "internalType": "uint256",
          "name": "totalRating",
          "type": "uint256"
        },
        {
          "internalType": "uint256",
          "name": "ratingCount",
          "type": "uint256"
        },
        {
          "internalType": "uint256",
          "name": "lastUpdated",
          "type": "uint256"
        }
      ],
      "stateMutability": "view",
      "type": "function"
    },
    {
      "inputs": [
        {
          "internalType": "address",
          "name": "contractAddress",
          "type": "address"
        }
      ],
      "name": "isAuthorizedContract",
      "outputs": [
        {
          "internalType": "bool",
          "name": "",
          "type": "bool"
        }
      ],
      "stateMutability": "view",
      "type": "function"
    },
    {
      "inputs": [],
      "name": "owner",
      "outputs": [
        {
          "internalType": "address",
          "name": "",
          "type": "address"
        }
      ],
      "stateMutability": "view",
      "type": "function"
    },
    {
      "inputs": [],
      "name": "pause",
      "outputs": [],
      "stateMutability": "nonpayable",
      "type": "function"
    },
    {
      "inputs": [],
      "name": "paused",
      "outputs": [
        {
          "internalType": "bool",
          "name": "",
          "type": "bool"
        }
      ],
      "stateMutability": "view",
      "type": "function"
    },
    {
      "inputs": [],
      "name": "renounceOwnership",
      "outputs": [],
      "stateMutability": "nonpayable",
      "type": "function"
    },
    {
      "inputs": [
        {
          "internalType": "address",
          "name": "",
          "type": "address"
        },
        {
          "internalType": "uint256",
          "name": "",
          "type": "uint256"
        }
      ],
      "name": "rentalHistory",
      "outputs": [
        {
          "internalType": "address",
          "name": "tenant",
          "type": "address"
        },
        {
          "internalType": "uint256",
          "name": "propertyId",
          "type": "uint256"
        },
        {
          "internalType": "uint256",
          "name": "paymentCount",
          "type": "uint256"
        },
        {
          "internalType": "uint256",
          "name": "onTimePayments",
          "type": "uint256"
        },
        {
          "internalType": "uint256",
          "name": "complaintsResolved",
          "type": "uint256"
        },
        {
          "internalType": "uint256",
          "name": "totalRating",
          "type": "uint256"
        },
        {
          "internalType": "uint256",
          "name": "ratingCount",
          "type": "uint256"
        },
        {
          "internalType": "uint256",
          "name": "lastUpdated",
          "type": "uint256"
        }
      ],
      "stateMutability": "view",
      "type": "function"
    },
    {
      "inputs": [
        {
          "internalType": "address",
          "name": "contractAddress",
          "type": "address"
        },
        {
          "internalType": "bool",
          "name": "authorized",
          "type": "bool"
        }
      ],
      "name": "setAuthorizedContract",
      "outputs": [],
      "stateMutability": "nonpayable",
      "type": "function"
    },
    {
      "inputs": [
        {
          "internalType": "address",
          "name": "newOwner",
          "type": "address"
        }
      ],
      "name": "transferOwnership",
      "outputs": [],
      "stateMutability": "nonpayable",
      "type": "function"
    },
    {
      "inputs": [],
      "name": "unpause",
      "outputs": [],
      "stateMutability": "nonpayable",
      "type": "function"
    },
    {
      "inputs": [
        {
          "internalType": "address",
          "name": "tenant",
          "type": "address"
        },
        {
          "internalType": "uint256",
          "name": "propertyId",
          "type": "uint256"
        },
        {
          "internalType": "bool",
          "name": "resolved",
          "type": "bool"
        }
      ],
      "name": "updateComplaintHistory",
      "outputs": [],
      "stateMutability": "nonpayable",
      "type": "function"
    },
    {
      "inputs": [
        {
          "internalType": "address",
          "name": "tenant",
          "type": "address"
        },
        {
          "internalType": "uint256",
          "name": "propertyId",
          "type": "uint256"
        },
        {
          "internalType": "bool",
          "name": "onTime",
          "type": "bool"
        }
      ],
      "name": "updatePaymentHistory",
      "outputs": [],
      "stateMutability": "nonpayable",
      "type": "function"
    },
    {
      "inputs": [
        {
          "internalType": "address",
          "name": "tenant",
          "type": "address"
        },
        {
          "internalType": "uint256",
          "name": "propertyId",
          "type": "uint256"
        },
        {
          "internalType": "uint8",
          "name": "rating",
          "type": "uint8"
        }
      ],
      "name": "updateRating",
      "outputs": [],
      "stateMutability": "nonpayable",
      "type": "function"
    }
  ],
  "bytecode": "0x608060405234801561001057600080fd5b50338061003757604051631e4fbdf760e01b81526000600482015260240160405180910390fd5b6100408161004a565b506001805561009a565b600080546001600160a01b038381166001600160a01b0319831681178455604051919092169283917f8be0079c531659141344cd1fd0a4f28419497f9722a3daafe3b4186f6b6457e09190a35050565b610ee8806100a96000396000f3fe608060405234801561001057600080fd5b50600436106101425760003560e01c80638da5cb5b116100b8578063d5b9221b1161007c578063d5b9221b146103b1578063f1c3753a146103d4578063f2fa7392146103fd578063f2fde38b14610410578063f5dc9b3a14610423578063f8eaf0111461043757600080fd5b80638da5cb5b146102b75780639b70b7d8146102d2578063a3aa39c4146102e5578063b90643bb146102f8578063c8b675221461039d57600080fd5b80635c975abb1161010a5780635c975abb1461023457806366d0ead314610252578063715018a61461027e57806380bb727314610286578063844f0cac146102a65780638456cb59146102af57600080fd5b806307f578e4146101475780630d29cd05146101635780630f9d8f5314610177578063385b9723146101805780633f4ba83a1461022a575b600080fd5b610150610bb881565b6040519081526020015b60405180910390f35b610150610171366004610cf0565b50605a90565b6101506107d081565b6101e561018e366004610d12565b60026020818152600093845260408085209091529183529120805460018201549282015460038301546004840154600585015460068601546007909601546001600160a01b03909516969593949293919290919088565b604080516001600160a01b0390991689526020890197909752958701949094526060860192909252608085015260a084015260c083015260e08201526101000161015a565b61023261044a565b005b600054600160a01b900460ff165b604051901515815260200161015a565b610242610260366004610cf0565b6001600160a01b031660009081526004602052604090205460ff1690565b61023261045c565b610150610294366004610cf0565b60036020526000908152604090205481565b61015061138881565b61023261046e565b6000546040516001600160a01b03909116815260200161015a565b6102326102e0366004610d3c565b61047e565b6102326102f3366004610d92565b610662565b6101e5610306366004610d12565b6001600160a01b039182166000908152600260208181526040808420948452938152918390208351610100810185528154909516808652600182015493860184905291810154938501849052600381015460608601819052600482015460808701819052600583015460a08801819052600684015460c0890181905260079094015460e09098018890529397949691949093929190565b6101506103ab366004610cf0565b50600490565b6102426103bf366004610cf0565b60046020526000908152604090205460ff1681565b6101506103e2366004610cf0565b6001600160a01b031660009081526003602052604090205490565b61023261040b366004610dce565b6107dc565b61023261041e366004610cf0565b610899565b610150610431366004610cf0565b50605590565b610232610445366004610d92565b6108d7565b610452610a3c565b61045a610a69565b565b610464610a3c565b61045a6000610abe565b610476610a3c565b61045a610b0e565b610486610b51565b3360009081526004602052604090205460ff166104fe5760405162461bcd60e51b815260206004820152602b60248201527f4f6e6c7920617574686f72697a656420636f6e7472616374732063616e20757060448201526a6461746520726174696e6760a81b60648201526084015b60405180910390fd5b6001600160a01b0383166105245760405162461bcd60e51b81526004016104f590610e01565b60018160ff161015801561053c575060058160ff1611155b6105885760405162461bcd60e51b815260206004820152601e60248201527f526174696e67206d757374206265206265747765656e203120616e642035000060448201526064016104f5565b6001600160a01b038084166000908152600260209081526040808320868452909152902080549091166105d65780546001600160a01b0319166001600160a01b038516178155600181018390555b8160ff168160050160008282546105ed9190610e47565b909155505060068101805490600061060483610e60565b909155505042600782015561061884610b7c565b60405160ff8316815283906001600160a01b038616907ff4f7f7482c7e210b569b9fccbf63fec4563e1ed866407152dd0be091beb5c3b6906020015b60405180910390a350505050565b61066a610b51565b3360009081526004602052604090205460ff166106e65760405162461bcd60e51b815260206004820152603460248201527f4f6e6c7920617574686f72697a656420636f6e7472616374732063616e20757060448201527364617465207061796d656e7420686973746f727960601b60648201526084016104f5565b6001600160a01b03831661070c5760405162461bcd60e51b81526004016104f590610e01565b6001600160a01b0380841660009081526002602090815260408083208684529091529020805490911661075a5780546001600160a01b0319166001600160a01b038516178155600181018390555b60028101805490600061076c83610e60565b9190505550811561078f5760038101805490600061078983610e60565b91905055505b42600782015561079e84610b7c565b82846001600160a01b03167f9b32626d1fa2dc55e7485dc9d606920f3f98a35fbcad6c71ca6189d4e19780b084604051610654911515815260200190565b6107e4610a3c565b6001600160a01b03821661083a5760405162461bcd60e51b815260206004820152601860248201527f496e76616c696420636f6e74726163742061646472657373000000000000000060448201526064016104f5565b6001600160a01b038216600081815260046020908152604091829020805460ff191685151590811790915591519182527f8f689f580b739f90591fbd591709dd98941c0afe7a47c812b93e978c4702bceb910160405180910390a25050565b6108a1610a3c565b6001600160a01b0381166108cb57604051631e4fbdf760e01b8152600060048201526024016104f5565b6108d481610abe565b50565b6108df610b51565b3360009081526004602052604090205460ff1661095d5760405162461bcd60e51b815260206004820152603660248201527f4f6e6c7920617574686f72697a656420636f6e7472616374732063616e2075706044820152756461746520636f6d706c61696e7420686973746f727960501b60648201526084016104f5565b6001600160a01b0383166109835760405162461bcd60e51b81526004016104f590610e01565b6001600160a01b038084166000908152600260209081526040808320868452909152902080549091166109d15780546001600160a01b0319166001600160a01b038516178155600181018390555b81156109ef576004810180549060006109e983610e60565b91905055505b4260078201556109fe84610b7c565b82846001600160a01b03167f1fd30ea7ce060d9a0d527c3f2481f72a4189bf102f4a44f943dabfb48abc199684604051610654911515815260200190565b6000546001600160a01b0316331461045a5760405163118cdaa760e01b81523360048201526024016104f5565b610a71610caa565b6000805460ff60a01b191690557f5db9ee0a495bf2e6ff9c91a7834c1ba4fdd244a5e8aa4e537bd38aeae4b073aa335b6040516001600160a01b03909116815260200160405180910390a1565b600080546001600160a01b038381166001600160a01b0319831681178455604051919092169283917f8be0079c531659141344cd1fd0a4f28419497f9722a3daafe3b4186f6b6457e09190a35050565b610b16610b51565b6000805460ff60a01b1916600160a01b1790557f62e78cea01bee320cd4e420270b5ea74000d11b0c9f74754ebdbfc544b05a258610aa13390565b600054600160a01b900460ff161561045a5760405163d93c066560e01b815260040160405180910390fd5b6000806102ee612710610b9161138883610e79565b610b9b9190610e90565b610ba59084610e47565b9250610bb361138883610e47565b9150610320612710610bc7610bb883610e79565b610bd19190610e90565b610bdb9085610e47565b9350610be9610bb884610e47565b92506102bc612710610bfd6107d083610e79565b610c079190610e90565b610c119086610e47565b9450610c1f6107d085610e47565b93506000808511610c31576000610c48565b84610c3e876103e8610e79565b610c489190610e90565b6001600160a01b0388166000818152600360205260409081902083905551919250907f79c012a0cfae660e09134956bc432c8497ec80e86a3a108d130e8b3fca52b3ad90610c999084815260200190565b60405180910390a250505050505050565b600054600160a01b900460ff1661045a57604051638dfc202b60e01b815260040160405180910390fd5b80356001600160a01b0381168114610ceb57600080fd5b919050565b600060208284031215610d0257600080fd5b610d0b82610cd4565b9392505050565b60008060408385031215610d2557600080fd5b610d2e83610cd4565b946020939093013593505050565b600080600060608486031215610d5157600080fd5b610d5a84610cd4565b925060208401359150604084013560ff81168114610d7757600080fd5b809150509250925092565b80358015158114610ceb57600080fd5b600080600060608486031215610da757600080fd5b610db084610cd4565b925060208401359150610dc560408501610d82565b90509250925092565b60008060408385031215610de157600080fd5b610dea83610cd4565b9150610df860208401610d82565b90509250929050565b602080825260169082015275496e76616c69642074656e616e74206164647265737360501b604082015260600190565b634e487b7160e01b600052601160045260246000fd5b80820180821115610e5a57610e5a610e31565b92915050565b600060018201610e7257610e72610e31565b5060010190565b8082028115828204841417610e5a57610e5a610e31565b600082610ead57634e487b7160e01b600052601260045260246000fd5b50049056fea26469706673582212209045cdb11ed839c226e6ff7c4d4a6e3bc6340c2fc9a1bb31214ca8613920f17764736f6c63430008160033",
  "linkReferences": {},
  "deployedLinkReferences": {}
}