{
  "_format": "hh-sol-artifact-1",
  "contractName": "OnRamp",
  "sourceName": "contracts/OnRamp.sol",
  "abi": [
    {
      "inputs": [],
      "stateMutability": "nonpayable",
      "type": "constructor"
    },
    {
      "inputs": [],
      "name": "EnforcedPause",
      "type": "error"
    },
    {
      "inputs": [],
      "name": "ExpectedPause",
      "type": "error"
    },
    {
      "inputs": [
        {
          "internalType": "address",
          "name": "owner",
          "type": "address"
        }
      ],
      "name": "OwnableInvalidOwner",
      "type": "error"
    },
    {
      "inputs": [
        {
          "internalType": "address",
          "name": "account",
          "type": "address"
        }
      ],
      "name": "OwnableUnauthorizedAccount",
      "type": "error"
    },
    {
      "inputs": [],
      "name": "ReentrancyGuardReentrantCall",
      "type": "error"
    },
    {
      "anonymous": false,
      "inputs": [
        {
          "indexed": true,
          "internalType": "address",
          "name": "contractAddress",
          "type": "address"
        },
        {
          "indexed": false,
          "internalType": "bool",
          "name": "authorized",
          "type": "bool"
        }
      ],
      "name": "AuthorizedContractUpdated",
      "type": "event"
    },
    {
      "anonymous": false,
      "inputs": [
        {
          "indexed": true,
          "internalType": "uint256",
          "name": "transactionId",
          "type": "uint256"
        },
        {
          "indexed": true,
          "internalType": "address",
          "name": "tenant",
          "type": "address"
        },
        {
          "indexed": true,
          "internalType": "uint256",
          "name": "propertyId",
          "type": "uint256"
        },
        {
          "indexed": false,
          "internalType": "uint256",
          "name": "amount",
          "type": "uint256"
        },
        {
          "indexed": false,
          "internalType": "string",
          "name": "onRampTxId",
          "type": "string"
        }
      ],
      "name": "OnRampRecorded",
      "type": "event"
    },
    {
      "anonymous": false,
      "inputs": [
        {
          "indexed": true,
          "internalType": "address",
          "name": "previousOwner",
          "type": "address"
        },
        {
          "indexed": true,
          "internalType": "address",
          "name": "newOwner",
          "type": "address"
        }
      ],
      "name": "OwnershipTransferred",
      "type": "event"
    },
    {
      "anonymous": false,
      "inputs": [
        {
          "indexed": false,
          "internalType": "address",
          "name": "account",
          "type": "address"
        }
      ],
      "name": "Paused",
      "type": "event"
    },
    {
      "anonymous": false,
      "inputs": [
        {
          "indexed": true,
          "internalType": "uint256",
          "name": "transactionId",
          "type": "uint256"
        },
        {
          "indexed": false,
          "internalType": "string",
          "name": "verificationHash",
          "type": "string"
        }
      ],
      "name": "TransactionVerified",
      "type": "event"
    },
    {
      "anonymous": false,
      "inputs": [
        {
          "indexed": false,
          "internalType": "address",
          "name": "account",
          "type": "address"
        }
      ],
      "name": "Unpaused",
      "type": "event"
    },
    {
      "inputs": [
        {
          "internalType": "address",
          "name": "",
          "type": "address"
        }
      ],
      "name": "authorizedContracts",
      "outputs": [
        {
          "internalType": "bool",
          "name": "",
          "type": "bool"
        }
      ],
      "stateMutability": "view",
      "type": "function"
    },
    {
      "inputs": [
        {
          "internalType": "uint256",
          "name": "transactionId",
          "type": "uint256"
        }
      ],
      "name": "getOnRampTx",
      "outputs": [
        {
          "internalType": "uint256",
          "name": "id",
          "type": "uint256"
        },
        {
          "internalType": "address",
          "name": "tenant",
          "type": "address"
        },
        {
          "internalType": "uint256",
          "name": "propertyId",
          "type": "uint256"
        },
        {
          "internalType": "uint256",
          "name": "amount",
          "type": "uint256"
        },
        {
          "internalType": "string",
          "name": "onRampTxId",
          "type": "string"
        },
        {
          "internalType": "uint256",
          "name": "timestamp",
          "type": "uint256"
        },
        {
          "internalType": "bool",
          "name": "isVerified",
          "type": "bool"
        },
        {
          "internalType": "string",
          "name": "verificationHash",
          "type": "string"
        }
      ],
      "stateMutability": "view",
      "type": "function"
    },
    {
      "inputs": [
        {
          "internalType": "uint256",
          "name": "propertyId",
          "type": "uint256"
        }
      ],
      "name": "getPropertyTransactions",
      "outputs": [
        {
          "internalType": "uint256[]",
          "name": "",
          "type": "uint256[]"
        }
      ],
      "stateMutability": "view",
      "type": "function"
    },
    {
      "inputs": [
        {
          "internalType": "address",
          "name": "tenant",
          "type": "address"
        },
        {
          "internalType": "uint256",
          "name": "count",
          "type": "uint256"
        }
      ],
      "name": "getRecentTenantTransactions",
      "outputs": [
        {
          "internalType": "uint256[]",
          "name": "",
          "type": "uint256[]"
        }
      ],
      "stateMutability": "view",
      "type": "function"
    },
    {
      "inputs": [
        {
          "internalType": "address",
          "name": "tenant",
          "type": "address"
        }
      ],
      "name": "getTenantTotalAmount",
      "outputs": [
        {
          "internalType": "uint256",
          "name": "",
          "type": "uint256"
        }
      ],
      "stateMutability": "view",
      "type": "function"
    },
    {
      "inputs": [
        {
          "internalType": "address",
          "name": "tenant",
          "type": "address"
        }
      ],
      "name": "getTenantTransactions",
      "outputs": [
        {
          "internalType": "uint256[]",
          "name": "",
          "type": "uint256[]"
        }
      ],
      "stateMutability": "view",
      "type": "function"
    },
    {
      "inputs": [
        {
          "internalType": "address",
          "name": "tenant",
          "type": "address"
        }
      ],
      "name": "getTenantVerifiedAmount",
      "outputs": [
        {
          "internalType": "uint256",
          "name": "",
          "type": "uint256"
        }
      ],
      "stateMutability": "view",
      "type": "function"
    },
    {
      "inputs": [],
      "name": "getTotalTransactions",
      "outputs": [
        {
          "internalType": "uint256",
          "name": "",
          "type": "uint256"
        }
      ],
      "stateMutability": "view",
      "type": "function"
    },
    {
      "inputs": [],
      "name": "getTotalVerifiedTransactions",
      "outputs": [
        {
          "internalType": "uint256",
          "name": "",
          "type": "uint256"
        }
      ],
      "stateMutability": "view",
      "type": "function"
    },
    {
      "inputs": [
        {
          "internalType": "string",
          "name": "onRampTxId",
          "type": "string"
        }
      ],
      "name": "getTransactionByProviderId",
      "outputs": [
        {
          "internalType": "uint256",
          "name": "",
          "type": "uint256"
        }
      ],
      "stateMutability": "view",
      "type": "function"
    },
    {
      "inputs": [
        {
          "internalType": "address",
          "name": "tenant",
          "type": "address"
        }
      ],
      "name": "getVerifiedTenantTransactions",
      "outputs": [
        {
          "internalType": "uint256[]",
          "name": "",
          "type": "uint256[]"
        }
      ],
      "stateMutability": "view",
      "type": "function"
    },
    {
      "inputs": [
        {
          "internalType": "address",
          "name": "contractAddress",
          "type": "address"
        }
      ],
      "name": "isAuthorizedContract",
      "outputs": [
        {
          "internalType": "bool",
          "name": "",
          "type": "bool"
        }
      ],
      "stateMutability": "view",
      "type": "function"
    },
    {
      "inputs": [
        {
          "internalType": "string",
          "name": "onRampTxId",
          "type": "string"
        }
      ],
      "name": "isOnRampTxIdRecorded",
      "outputs": [
        {
          "internalType": "bool",
          "name": "",
          "type": "bool"
        }
      ],
      "stateMutability": "view",
      "type": "function"
    },
    {
      "inputs": [
        {
          "internalType": "uint256",
          "name": "transactionId",
          "type": "uint256"
        }
      ],
      "name": "isTransactionVerified",
      "outputs": [
        {
          "internalType": "bool",
          "name": "",
          "type": "bool"
        }
      ],
      "stateMutability": "view",
      "type": "function"
    },
    {
      "inputs": [
        {
          "internalType": "uint256",
          "name": "",
          "type": "uint256"
        }
      ],
      "name": "onRampTransactions",
      "outputs": [
        {
          "internalType": "uint256",
          "name": "transactionId",
          "type": "uint256"
        },
        {
          "internalType": "address",
          "name": "tenant",
          "type": "address"
        },
        {
          "internalType": "uint256",
          "name": "propertyId",
          "type": "uint256"
        },
        {
          "internalType": "uint256",
          "name": "amount",
          "type": "uint256"
        },
        {
          "internalType": "string",
          "name": "onRampTxId",
          "type": "string"
        },
        {
          "internalType": "uint256",
          "name": "timestamp",
          "type": "uint256"
        },
        {
          "internalType": "bool",
          "name": "isVerified",
          "type": "bool"
        },
        {
          "internalType": "string",
          "name": "verificationHash",
          "type": "string"
        }
      ],
      "stateMutability": "view",
      "type": "function"
    },
    {
      "inputs": [],
      "name": "owner",
      "outputs": [
        {
          "internalType": "address",
          "name": "",
          "type": "address"
        }
      ],
      "stateMutability": "view",
      "type": "function"
    },
    {
      "inputs": [],
      "name": "pause",
      "outputs": [],
      "stateMutability": "nonpayable",
      "type": "function"
    },
    {
      "inputs": [],
      "name": "paused",
      "outputs": [
        {
          "internalType": "bool",
          "name": "",
          "type": "bool"
        }
      ],
      "stateMutability": "view",
      "type": "function"
    },
    {
      "inputs": [
        {
          "internalType": "uint256",
          "name": "",
          "type": "uint256"
        },
        {
          "internalType": "uint256",
          "name": "",
          "type": "uint256"
        }
      ],
      "name": "propertyTransactions",
      "outputs": [
        {
          "internalType": "uint256",
          "name": "",
          "type": "uint256"
        }
      ],
      "stateMutability": "view",
      "type": "function"
    },
    {
      "inputs": [
        {
          "internalType": "string",
          "name": "",
          "type": "string"
        }
      ],
      "name": "providerTransactionMap",
      "outputs": [
        {
          "internalType": "uint256",
          "name": "",
          "type": "uint256"
        }
      ],
      "stateMutability": "view",
      "type": "function"
    },
    {
      "inputs": [
        {
          "internalType": "address",
          "name": "tenant",
          "type": "address"
        },
        {
          "internalType": "uint256",
          "name": "propertyId",
          "type": "uint256"
        },
        {
          "internalType": "uint256",
          "name": "amount",
          "type": "uint256"
        },
        {
          "internalType": "string",
          "name": "onRampTxId",
          "type": "string"
        }
      ],
      "name": "recordOnRamp",
      "outputs": [],
      "stateMutability": "nonpayable",
      "type": "function"
    },
    {
      "inputs": [],
      "name": "renounceOwnership",
      "outputs": [],
      "stateMutability": "nonpayable",
      "type": "function"
    },
    {
      "inputs": [
        {
          "internalType": "address",
          "name": "contractAddress",
          "type": "address"
        },
        {
          "internalType": "bool",
          "name": "authorized",
          "type": "bool"
        }
      ],
      "name": "setAuthorizedContract",
      "outputs": [],
      "stateMutability": "nonpayable",
      "type": "function"
    },
    {
      "inputs": [
        {
          "internalType": "address",
          "name": "",
          "type": "address"
        },
        {
          "internalType": "uint256",
          "name": "",
          "type": "uint256"
        }
      ],
      "name": "tenantTransactions",
      "outputs": [
        {
          "internalType": "uint256",
          "name": "",
          "type": "uint256"
        }
      ],
      "stateMutability": "view",
      "type": "function"
    },
    {
      "inputs": [],
      "name": "totalTransactions",
      "outputs": [
        {
          "internalType": "uint256",
          "name": "",
          "type": "uint256"
        }
      ],
      "stateMutability": "view",
      "type": "function"
    },
    {
      "inputs": [
        {
          "internalType": "address",
          "name": "newOwner",
          "type": "address"
        }
      ],
      "name": "transferOwnership",
      "outputs": [],
      "stateMutability": "nonpayable",
      "type": "function"
    },
    {
      "inputs": [],
      "name": "unpause",
      "outputs": [],
      "stateMutability": "nonpayable",
      "type": "function"
    },
    {
      "inputs": [
        {
          "internalType": "uint256",
          "name": "transactionId",
          "type": "uint256"
        },
        {
          "internalType": "string",
          "name": "verificationHash",
          "type": "string"
        }
      ],
      "name": "verifyTransaction",
      "outputs": [],
      "stateMutability": "nonpayable",
      "type": "function"
    }
  ],
  "bytecode": "0x608060405234801561001057600080fd5b50338061003757604051631e4fbdf760e01b81526000600482015260240160405180910390fd5b6100408161004a565b506001805561009a565b600080546001600160a01b038381166001600160a01b0319831681178455604051919092169283917f8be0079c531659141344cd1fd0a4f28419497f9722a3daafe3b4186f6b6457e09190a35050565b611b7f806100a96000396000f3fe608060405234801561001057600080fd5b50600436106101c45760003560e01c8063905eb3a0116100f9578063d6cf1ddc11610097578063f2fa739211610071578063f2fa7392146103d9578063f2fde38b146103ec578063f416e245146103ff578063f9fb94851461041257600080fd5b8063d6cf1ddc146103a0578063e3f41202146103b3578063f258590a146103c657600080fd5b8063ccff11b6116100d3578063ccff11b614610344578063d565729614610357578063d5b9221b1461036a578063d62d259f1461038d57600080fd5b8063905eb3a01461030c578063b5c604ff14610333578063b9a600381461033b57600080fd5b80635c975abb11610166578063715018a611610140578063715018a6146102ce5780638456cb59146102d65780638b9ce23f146102de5780638da5cb5b146102f157600080fd5b80635c975abb1461028857806360aa23621461029a57806366d0ead3146102a257600080fd5b80631c294aba116101a25780631c294aba14610245578063315fa6de1461025a5780633c76fed11461026d5780633f4ba83a1461028057600080fd5b806308ec69f8146101c95780630a4f51cb146101ef5780631ae30e6d1461020f575b600080fd5b6101dc6101d7366004611694565b61043d565b6040519081526020015b60405180910390f35b6102026101fd3660046116ed565b610465565b6040516101e6919061170f565b61023561021d366004611753565b60009081526002602052604090206006015460ff1690565b60405190151581526020016101e6565b61025861025336600461176c565b610613565b005b6102586102683660046117b3565b61079b565b6101dc61027b3660046116ed565b610b4f565b610258610c4a565b600054600160a01b900460ff16610235565b6101dc610c5c565b6102356102b03660046116ed565b6001600160a01b031660009081526007602052604090205460ff1690565b610258610cab565b610258610cbd565b6102026102ec366004611814565b610ccd565b6000546040516001600160a01b0390911681526020016101e6565b61031f61031a366004611753565b610e2b565b6040516101e698979695949392919061188e565b6006546101dc565b6101dc60065481565b610202610352366004611753565b61102d565b6101dc6103653660046118f3565b61108f565b6102356103783660046116ed565b60076020526000908152604090205460ff1681565b6101dc61039b366004611814565b6110c0565b6102356103ae366004611694565b6110dc565b6102026103c13660046116ed565b611106565b61031f6103d4366004611753565b611170565b6102586103e7366004611915565b6112d6565b6102586103fa3660046116ed565b611393565b6101dc61040d3660046116ed565b6113d1565b6101dc610420366004611694565b805160208183018101805160058252928201919093012091525481565b600060058260405161044f9190611951565b9081526020016040518091039020549050919050565b6001600160a01b03811660009081526003602090815260408083208054825181850281018501909352808352606094938301828280156104c457602002820191906000526020600020905b8154815260200190600101908083116104b0575b505050505090506000805b825181101561052a57600260008483815181106104ee576104ee61196d565b60209081029190910181015182528101919091526040016000206006015460ff1615610522578161051e81611999565b9250505b6001016104cf565b5060008167ffffffffffffffff811115610546576105466115f1565b60405190808252806020026020018201604052801561056f578160200160208202803683370190505b5090506000805b845181101561060857600260008683815181106105955761059561196d565b60209081029190910181015182528101919091526040016000206006015460ff1615610600578481815181106105cd576105cd61196d565b60200260200101518383815181106105e7576105e761196d565b6020908102919091010152816105fc81611999565b9250505b600101610576565b509095945050505050565b61061b611487565b60008281526002602052604081205490036106755760405162461bcd60e51b8152602060048201526015602482015274151c985b9cd858dd1a5bdb881b9bdd08199bdd5b99605a1b60448201526064015b60405180910390fd5b60008281526002602052604090206006015460ff16156106d75760405162461bcd60e51b815260206004820152601c60248201527f5472616e73616374696f6e20616c726561647920766572696669656400000000604482015260640161066c565b60008151116107325760405162461bcd60e51b815260206004820152602160248201527f566572696669636174696f6e20686173682063616e6e6f7420626520656d70746044820152607960f81b606482015260840161066c565b600082815260026020526040902060068101805460ff191660011790556007810161075d8382611a37565b50827f2109e7d810c27e500e8a03b6f5039cc6daa50fc2df8a54fd4f9d2f74b77911808360405161078e9190611af7565b60405180910390a2505050565b6107a36114b4565b3360009081526007602052604090205460ff166108285760405162461bcd60e51b815260206004820152603960248201527f4f6e6c7920617574686f72697a656420636f6e7472616374732063616e20726560448201527f636f7264206f6e2d72616d70207472616e73616374696f6e7300000000000000606482015260840161066c565b6001600160a01b0384166108775760405162461bcd60e51b8152602060048201526016602482015275496e76616c69642074656e616e74206164647265737360501b604482015260640161066c565b600082116108c75760405162461bcd60e51b815260206004820152601d60248201527f416d6f756e74206d7573742062652067726561746572207468616e2030000000604482015260640161066c565b60008151116109275760405162461bcd60e51b815260206004820152602660248201527f4f6e2d72616d70207472616e73616374696f6e2049442063616e6e6f7420626560448201526520656d70747960d01b606482015260840161066c565b6005816040516109379190611951565b9081526020016040518091039020546000146109a55760405162461bcd60e51b815260206004820152602760248201527f4f6e2d72616d70207472616e73616374696f6e20494420616c726561647920726044820152661958dbdc99195960ca1b606482015260840161066c565b600680549060006109b583611999565b909155505060065460408051610100810182528281526001600160a01b03878116602080840191825283850189815260608501898152608086018981524260a0880152600060c0880181905288518086018a5281815260e0890152898152600294859052979097208651815593516001850180546001600160a01b03191691909616179094555190820155905160038201559151909182916004820190610a5c9082611a37565b5060a0820151600582015560c082015160068201805460ff191691151591909117905560e08201516007820190610a939082611a37565b5050506001600160a01b038616600090815260036020908152604080832080546001818101835591855283852001869055888452600483528184208054918201815584529190922001839055518290600590610af0908690611951565b90815260200160405180910390208190555084866001600160a01b0316837fb83be10ce014d2c005d2ce5242b86331051017e8890510ef2887e60dee0a685c8787604051610b3f929190611b0a565b60405180910390a4505050505050565b6001600160a01b038116600090815260036020908152604080832080548251818502810185019093528083528493830182828015610bac57602002820191906000526020600020905b815481526020019060010190808311610b98575b505050505090506000805b8251811015610c425760026000848381518110610bd657610bd661196d565b60209081029190910181015182528101919091526040016000206006015460ff1615610c3a5760026000848381518110610c1257610c1261196d565b602002602001015181526020019081526020016000206003015482610c379190611b23565b91505b600101610bb7565b509392505050565b610c52611487565b610c5a6114df565b565b60008060015b6006548111610ca55760008181526002602052604090206006015460ff1615610c935781610c8f81611999565b9250505b80610c9d81611999565b915050610c62565b50919050565b610cb3611487565b610c5a6000611534565b610cc5611487565b610c5a611584565b6001600160a01b0382166000908152600360209081526040808320805482518185028101850190935280835260609493830182828015610d2c57602002820191906000526020600020905b815481526020019060010190808311610d18575b5050505050905060008151905080600003610d595750506040805160008152602081019091529050610e25565b6000848211610d69576000610d73565b610d738583611b36565b90506000610d818284611b36565b905060008167ffffffffffffffff811115610d9e57610d9e6115f1565b604051908082528060200260200182016040528015610dc7578160200160208202803683370190505b50905060005b82811015610e1d5785610de08286611b23565b81518110610df057610df061196d565b6020026020010151828281518110610e0a57610e0a61196d565b6020908102919091010152600101610dcd565b509450505050505b92915050565b600080600080606060008060606000600260008b815260200190815260200160002060405180610100016040529081600082015481526020016001820160009054906101000a90046001600160a01b03166001600160a01b03166001600160a01b031681526020016002820154815260200160038201548152602001600482018054610eb6906119b2565b80601f0160208091040260200160405190810160405280929190818152602001828054610ee2906119b2565b8015610f2f5780601f10610f0457610100808354040283529160200191610f2f565b820191906000526020600020905b815481529060010190602001808311610f1257829003601f168201915b505050918352505060058201546020820152600682015460ff1615156040820152600782018054606090920191610f65906119b2565b80601f0160208091040260200160405190810160405280929190818152602001828054610f91906119b2565b8015610fde5780601f10610fb357610100808354040283529160200191610fde565b820191906000526020600020905b815481529060010190602001808311610fc157829003601f168201915b5050505050815250509050806000015181602001518260400151836060015184608001518560a001518660c001518760e001519850985098509850985098509850985050919395975091939597565b60008181526004602090815260409182902080548351818402810184019094528084526060939283018282801561108357602002820191906000526020600020905b81548152602001906001019080831161106f575b50505050509050919050565b600460205281600052604060002081815481106110ab57600080fd5b90600052602060002001600091509150505481565b600360205281600052604060002081815481106110ab57600080fd5b60006005826040516110ee9190611951565b90815260405190819003602001902054151592915050565b6001600160a01b038116600090815260036020908152604091829020805483518184028101840190945280845260609392830182828015611083576020028201919060005260206000209081548152602001906001019080831161106f5750505050509050919050565b60026020819052600091825260409091208054600182015492820154600383015460048401805493956001600160a01b03169492939192916111b1906119b2565b80601f01602080910402602001604051908101604052809291908181526020018280546111dd906119b2565b801561122a5780601f106111ff5761010080835404028352916020019161122a565b820191906000526020600020905b81548152906001019060200180831161120d57829003601f168201915b50505050600583015460068401546007850180549495929460ff909216935090611253906119b2565b80601f016020809104026020016040519081016040528092919081815260200182805461127f906119b2565b80156112cc5780601f106112a1576101008083540402835291602001916112cc565b820191906000526020600020905b8154815290600101906020018083116112af57829003601f168201915b5050505050905088565b6112de611487565b6001600160a01b0382166113345760405162461bcd60e51b815260206004820152601860248201527f496e76616c696420636f6e747261637420616464726573730000000000000000604482015260640161066c565b6001600160a01b038216600081815260076020908152604091829020805460ff191685151590811790915591519182527f8f689f580b739f90591fbd591709dd98941c0afe7a47c812b93e978c4702bceb910160405180910390a25050565b61139b611487565b6001600160a01b0381166113c557604051631e4fbdf760e01b81526000600482015260240161066c565b6113ce81611534565b50565b6001600160a01b03811660009081526003602090815260408083208054825181850281018501909352808352849383018282801561142e57602002820191906000526020600020905b81548152602001906001019080831161141a575b505050505090506000805b8251811015610c4257600260008483815181106114585761145861196d565b60200260200101518152602001908152602001600020600301548261147d9190611b23565b9150600101611439565b6000546001600160a01b03163314610c5a5760405163118cdaa760e01b815233600482015260240161066c565b600054600160a01b900460ff1615610c5a5760405163d93c066560e01b815260040160405180910390fd5b6114e76115c7565b6000805460ff60a01b191690557f5db9ee0a495bf2e6ff9c91a7834c1ba4fdd244a5e8aa4e537bd38aeae4b073aa335b6040516001600160a01b03909116815260200160405180910390a1565b600080546001600160a01b038381166001600160a01b0319831681178455604051919092169283917f8be0079c531659141344cd1fd0a4f28419497f9722a3daafe3b4186f6b6457e09190a35050565b61158c6114b4565b6000805460ff60a01b1916600160a01b1790557f62e78cea01bee320cd4e420270b5ea74000d11b0c9f74754ebdbfc544b05a2586115173390565b600054600160a01b900460ff16610c5a57604051638dfc202b60e01b815260040160405180910390fd5b634e487b7160e01b600052604160045260246000fd5b600082601f83011261161857600080fd5b813567ffffffffffffffff80821115611633576116336115f1565b604051601f8301601f19908116603f0116810190828211818310171561165b5761165b6115f1565b8160405283815286602085880101111561167457600080fd5b836020870160208301376000602085830101528094505050505092915050565b6000602082840312156116a657600080fd5b813567ffffffffffffffff8111156116bd57600080fd5b6116c984828501611607565b949350505050565b80356001600160a01b03811681146116e857600080fd5b919050565b6000602082840312156116ff57600080fd5b611708826116d1565b9392505050565b6020808252825182820181905260009190848201906040850190845b818110156117475783518352928401929184019160010161172b565b50909695505050505050565b60006020828403121561176557600080fd5b5035919050565b6000806040838503121561177f57600080fd5b82359150602083013567ffffffffffffffff81111561179d57600080fd5b6117a985828601611607565b9150509250929050565b600080600080608085870312156117c957600080fd5b6117d2856116d1565b93506020850135925060408501359150606085013567ffffffffffffffff8111156117fc57600080fd5b61180887828801611607565b91505092959194509250565b6000806040838503121561182757600080fd5b611830836116d1565b946020939093013593505050565b60005b83811015611859578181015183820152602001611841565b50506000910152565b6000815180845261187a81602086016020860161183e565b601f01601f19169290920160200192915050565b60006101008a835260018060a01b038a1660208401528860408401528760608401528060808401526118c281840188611862565b90508560a084015284151560c084015282810360e08401526118e48185611862565b9b9a5050505050505050505050565b6000806040838503121561190657600080fd5b50508035926020909101359150565b6000806040838503121561192857600080fd5b611931836116d1565b91506020830135801515811461194657600080fd5b809150509250929050565b6000825161196381846020870161183e565b9190910192915050565b634e487b7160e01b600052603260045260246000fd5b634e487b7160e01b600052601160045260246000fd5b6000600182016119ab576119ab611983565b5060010190565b600181811c908216806119c657607f821691505b602082108103610ca557634e487b7160e01b600052602260045260246000fd5b601f821115611a32576000816000526020600020601f850160051c81016020861015611a0f5750805b601f850160051c820191505b81811015611a2e57828155600101611a1b565b5050505b505050565b815167ffffffffffffffff811115611a5157611a516115f1565b611a6581611a5f84546119b2565b846119e6565b602080601f831160018114611a9a5760008415611a825750858301515b600019600386901b1c1916600185901b178555611a2e565b600085815260208120601f198616915b82811015611ac957888601518255948401946001909101908401611aaa565b5085821015611ae75787850151600019600388901b60f8161c191681555b5050505050600190811b01905550565b6020815260006117086020830184611862565b8281526040602082015260006116c96040830184611862565b80820180821115610e2557610e25611983565b81810381811115610e2557610e2561198356fea264697066735822122067196e02944a026315bc9148ba5bad45ce96fdfd54690e2e70e31c008d52929564736f6c63430008160033",
  "linkReferences": {},
  "deployedLinkReferences": {}
}