{
  "_format": "hh-sol-artifact-1",
  "contractName": "Reminders",
  "sourceName": "contracts/Reminders.sol",
  "abi": [
    {
      "inputs": [],
      "stateMutability": "nonpayable",
      "type": "constructor"
    },
    {
      "inputs": [],
      "name": "EnforcedPause",
      "type": "error"
    },
    {
      "inputs": [],
      "name": "ExpectedPause",
      "type": "error"
    },
    {
      "inputs": [
        {
          "internalType": "address",
          "name": "owner",
          "type": "address"
        }
      ],
      "name": "OwnableInvalidOwner",
      "type": "error"
    },
    {
      "inputs": [
        {
          "internalType": "address",
          "name": "account",
          "type": "address"
        }
      ],
      "name": "OwnableUnauthorizedAccount",
      "type": "error"
    },
    {
      "inputs": [],
      "name": "ReentrancyGuardReentrantCall",
      "type": "error"
    },
    {
      "anonymous": false,
      "inputs": [
        {
          "indexed": true,
          "internalType": "address",
          "name": "oldRegistry",
          "type": "address"
        },
        {
          "indexed": true,
          "internalType": "address",
          "name": "newRegistry",
          "type": "address"
        }
      ],
      "name": "KeeperRegistryUpdated",
      "type": "event"
    },
    {
      "anonymous": false,
      "inputs": [
        {
          "indexed": true,
          "internalType": "address",
          "name": "previousOwner",
          "type": "address"
        },
        {
          "indexed": true,
          "internalType": "address",
          "name": "newOwner",
          "type": "address"
        }
      ],
      "name": "OwnershipTransferred",
      "type": "event"
    },
    {
      "anonymous": false,
      "inputs": [
        {
          "indexed": false,
          "internalType": "address",
          "name": "account",
          "type": "address"
        }
      ],
      "name": "Paused",
      "type": "event"
    },
    {
      "anonymous": false,
      "inputs": [
        {
          "indexed": true,
          "internalType": "uint256",
          "name": "reminderId",
          "type": "uint256"
        },
        {
          "indexed": true,
          "internalType": "address",
          "name": "cancelledBy",
          "type": "address"
        }
      ],
      "name": "ReminderCancelled",
      "type": "event"
    },
    {
      "anonymous": false,
      "inputs": [
        {
          "indexed": true,
          "internalType": "uint256",
          "name": "reminderId",
          "type": "uint256"
        },
        {
          "indexed": true,
          "internalType": "uint256",
          "name": "propertyId",
          "type": "uint256"
        },
        {
          "indexed": true,
          "internalType": "address",
          "name": "tenant",
          "type": "address"
        },
        {
          "indexed": false,
          "internalType": "enum Reminders.ReminderType",
          "name": "reminderType",
          "type": "uint8"
        },
        {
          "indexed": false,
          "internalType": "uint256",
          "name": "dueDate",
          "type": "uint256"
        }
      ],
      "name": "ReminderSet",
      "type": "event"
    },
    {
      "anonymous": false,
      "inputs": [
        {
          "indexed": true,
          "internalType": "uint256",
          "name": "reminderId",
          "type": "uint256"
        },
        {
          "indexed": false,
          "internalType": "enum Reminders.ReminderType",
          "name": "reminderType",
          "type": "uint8"
        },
        {
          "indexed": false,
          "internalType": "uint256",
          "name": "triggeredAt",
          "type": "uint256"
        }
      ],
      "name": "ReminderTriggered",
      "type": "event"
    },
    {
      "anonymous": false,
      "inputs": [
        {
          "indexed": false,
          "internalType": "address",
          "name": "account",
          "type": "address"
        }
      ],
      "name": "Unpaused",
      "type": "event"
    },
    {
      "inputs": [
        {
          "internalType": "uint256",
          "name": "",
          "type": "uint256"
        }
      ],
      "name": "activeReminders",
      "outputs": [
        {
          "internalType": "bool",
          "name": "",
          "type": "bool"
        }
      ],
      "stateMutability": "view",
      "type": "function"
    },
    {
      "inputs": [
        {
          "internalType": "uint256",
          "name": "reminderId",
          "type": "uint256"
        }
      ],
      "name": "cancelReminder",
      "outputs": [],
      "stateMutability": "nonpayable",
      "type": "function"
    },
    {
      "inputs": [
        {
          "internalType": "uint256",
          "name": "offset",
          "type": "uint256"
        },
        {
          "internalType": "uint256",
          "name": "limit",
          "type": "uint256"
        }
      ],
      "name": "getActiveReminders",
      "outputs": [
        {
          "internalType": "uint256[]",
          "name": "",
          "type": "uint256[]"
        }
      ],
      "stateMutability": "view",
      "type": "function"
    },
    {
      "inputs": [
        {
          "internalType": "uint256",
          "name": "maxCount",
          "type": "uint256"
        }
      ],
      "name": "getDueReminders",
      "outputs": [
        {
          "internalType": "uint256[]",
          "name": "",
          "type": "uint256[]"
        }
      ],
      "stateMutability": "view",
      "type": "function"
    },
    {
      "inputs": [
        {
          "internalType": "address",
          "name": "landlord",
          "type": "address"
        }
      ],
      "name": "getLandlordReminders",
      "outputs": [
        {
          "internalType": "uint256[]",
          "name": "",
          "type": "uint256[]"
        }
      ],
      "stateMutability": "view",
      "type": "function"
    },
    {
      "inputs": [
        {
          "internalType": "uint256",
          "name": "propertyId",
          "type": "uint256"
        }
      ],
      "name": "getPropertyReminders",
      "outputs": [
        {
          "internalType": "uint256[]",
          "name": "",
          "type": "uint256[]"
        }
      ],
      "stateMutability": "view",
      "type": "function"
    },
    {
      "inputs": [
        {
          "internalType": "uint256",
          "name": "reminderId",
          "type": "uint256"
        }
      ],
      "name": "getReminder",
      "outputs": [
        {
          "internalType": "uint256",
          "name": "id",
          "type": "uint256"
        },
        {
          "internalType": "uint256",
          "name": "propertyId",
          "type": "uint256"
        },
        {
          "internalType": "address",
          "name": "tenant",
          "type": "address"
        },
        {
          "internalType": "address",
          "name": "landlord",
          "type": "address"
        },
        {
          "internalType": "uint256",
          "name": "dueDate",
          "type": "uint256"
        },
        {
          "internalType": "enum Reminders.ReminderType",
          "name": "reminderType",
          "type": "uint8"
        },
        {
          "internalType": "bool",
          "name": "isActive",
          "type": "bool"
        },
        {
          "internalType": "bool",
          "name": "isTriggered",
          "type": "bool"
        },
        {
          "internalType": "uint256",
          "name": "triggeredAt",
          "type": "uint256"
        },
        {
          "internalType": "string",
          "name": "ipfsHash",
          "type": "string"
        }
      ],
      "stateMutability": "view",
      "type": "function"
    },
    {
      "inputs": [
        {
          "internalType": "address",
          "name": "tenant",
          "type": "address"
        }
      ],
      "name": "getTenantReminders",
      "outputs": [
        {
          "internalType": "uint256[]",
          "name": "",
          "type": "uint256[]"
        }
      ],
      "stateMutability": "view",
      "type": "function"
    },
    {
      "inputs": [],
      "name": "getTotalActiveReminders",
      "outputs": [
        {
          "internalType": "uint256",
          "name": "",
          "type": "uint256"
        }
      ],
      "stateMutability": "view",
      "type": "function"
    },
    {
      "inputs": [],
      "name": "getTotalReminders",
      "outputs": [
        {
          "internalType": "uint256",
          "name": "",
          "type": "uint256"
        }
      ],
      "stateMutability": "view",
      "type": "function"
    },
    {
      "inputs": [
        {
          "internalType": "uint256",
          "name": "reminderId",
          "type": "uint256"
        }
      ],
      "name": "isReminderActive",
      "outputs": [
        {
          "internalType": "bool",
          "name": "",
          "type": "bool"
        }
      ],
      "stateMutability": "view",
      "type": "function"
    },
    {
      "inputs": [
        {
          "internalType": "uint256",
          "name": "reminderId",
          "type": "uint256"
        }
      ],
      "name": "isReminderDue",
      "outputs": [
        {
          "internalType": "bool",
          "name": "",
          "type": "bool"
        }
      ],
      "stateMutability": "view",
      "type": "function"
    },
    {
      "inputs": [],
      "name": "keeperRegistry",
      "outputs": [
        {
          "internalType": "address",
          "name": "",
          "type": "address"
        }
      ],
      "stateMutability": "view",
      "type": "function"
    },
    {
      "inputs": [
        {
          "internalType": "address",
          "name": "",
          "type": "address"
        },
        {
          "internalType": "uint256",
          "name": "",
          "type": "uint256"
        }
      ],
      "name": "landlordReminders",
      "outputs": [
        {
          "internalType": "uint256",
          "name": "",
          "type": "uint256"
        }
      ],
      "stateMutability": "view",
      "type": "function"
    },
    {
      "inputs": [],
      "name": "owner",
      "outputs": [
        {
          "internalType": "address",
          "name": "",
          "type": "address"
        }
      ],
      "stateMutability": "view",
      "type": "function"
    },
    {
      "inputs": [],
      "name": "pause",
      "outputs": [],
      "stateMutability": "nonpayable",
      "type": "function"
    },
    {
      "inputs": [],
      "name": "paused",
      "outputs": [
        {
          "internalType": "bool",
          "name": "",
          "type": "bool"
        }
      ],
      "stateMutability": "view",
      "type": "function"
    },
    {
      "inputs": [
        {
          "internalType": "uint256",
          "name": "",
          "type": "uint256"
        },
        {
          "internalType": "uint256",
          "name": "",
          "type": "uint256"
        }
      ],
      "name": "propertyReminders",
      "outputs": [
        {
          "internalType": "uint256",
          "name": "",
          "type": "uint256"
        }
      ],
      "stateMutability": "view",
      "type": "function"
    },
    {
      "inputs": [
        {
          "internalType": "uint256",
          "name": "",
          "type": "uint256"
        }
      ],
      "name": "reminders",
      "outputs": [
        {
          "internalType": "uint256",
          "name": "reminderId",
          "type": "uint256"
        },
        {
          "internalType": "uint256",
          "name": "propertyId",
          "type": "uint256"
        },
        {
          "internalType": "address",
          "name": "tenant",
          "type": "address"
        },
        {
          "internalType": "address",
          "name": "landlord",
          "type": "address"
        },
        {
          "internalType": "uint256",
          "name": "dueDate",
          "type": "uint256"
        },
        {
          "internalType": "enum Reminders.ReminderType",
          "name": "reminderType",
          "type": "uint8"
        },
        {
          "internalType": "bool",
          "name": "isActive",
          "type": "bool"
        },
        {
          "internalType": "bool",
          "name": "isTriggered",
          "type": "bool"
        },
        {
          "internalType": "uint256",
          "name": "triggeredAt",
          "type": "uint256"
        },
        {
          "internalType": "string",
          "name": "ipfsHash",
          "type": "string"
        }
      ],
      "stateMutability": "view",
      "type": "function"
    },
    {
      "inputs": [],
      "name": "renounceOwnership",
      "outputs": [],
      "stateMutability": "nonpayable",
      "type": "function"
    },
    {
      "inputs": [
        {
          "internalType": "uint256",
          "name": "propertyId",
          "type": "uint256"
        },
        {
          "internalType": "address",
          "name": "tenant",
          "type": "address"
        },
        {
          "internalType": "address",
          "name": "landlord",
          "type": "address"
        },
        {
          "internalType": "uint256",
          "name": "dueDate",
          "type": "uint256"
        },
        {
          "internalType": "uint8",
          "name": "reminderType",
          "type": "uint8"
        },
        {
          "internalType": "string",
          "name": "ipfsHash",
          "type": "string"
        }
      ],
      "name": "setReminder",
      "outputs": [],
      "stateMutability": "nonpayable",
      "type": "function"
    },
    {
      "inputs": [
        {
          "internalType": "address",
          "name": "",
          "type": "address"
        },
        {
          "internalType": "uint256",
          "name": "",
          "type": "uint256"
        }
      ],
      "name": "tenantReminders",
      "outputs": [
        {
          "internalType": "uint256",
          "name": "",
          "type": "uint256"
        }
      ],
      "stateMutability": "view",
      "type": "function"
    },
    {
      "inputs": [],
      "name": "totalReminders",
      "outputs": [
        {
          "internalType": "uint256",
          "name": "",
          "type": "uint256"
        }
      ],
      "stateMutability": "view",
      "type": "function"
    },
    {
      "inputs": [
        {
          "internalType": "address",
          "name": "newOwner",
          "type": "address"
        }
      ],
      "name": "transferOwnership",
      "outputs": [],
      "stateMutability": "nonpayable",
      "type": "function"
    },
    {
      "inputs": [
        {
          "internalType": "uint256",
          "name": "reminderId",
          "type": "uint256"
        }
      ],
      "name": "triggerReminder",
      "outputs": [],
      "stateMutability": "nonpayable",
      "type": "function"
    },
    {
      "inputs": [],
      "name": "unpause",
      "outputs": [],
      "stateMutability": "nonpayable",
      "type": "function"
    },
    {
      "inputs": [
        {
          "internalType": "address",
          "name": "newRegistry",
          "type": "address"
        }
      ],
      "name": "updateKeeperRegistry",
      "outputs": [],
      "stateMutability": "nonpayable",
      "type": "function"
    }
  ],
  "bytecode": "0x608060405234801561001057600080fd5b50338061003757604051631e4fbdf760e01b81526000600482015260240160405180910390fd5b6100408161004a565b506001805561009a565b600080546001600160a01b038381166001600160a01b0319831681178455604051919092169283917f8be0079c531659141344cd1fd0a4f28419497f9722a3daafe3b4186f6b6457e09190a35050565b611df0806100a96000396000f3fe608060405234801561001057600080fd5b50600436106101a95760003560e01c80638456cb59116100f9578063de5ee34511610097578063e65aab1e11610071578063e65aab1e1461039f578063e89e0ffd146103b2578063f2fde38b146103c5578063f35d08b9146103d857600080fd5b8063de5ee34514610366578063e573d4ec14610379578063e5e7405a1461038c57600080fd5b806394867f35116100d357806394867f351461031f5780639a665d2014610332578063beabf2851461033a578063c6ae10761461034357600080fd5b80638456cb59146102f357806387230d1c146102fb5780638da5cb5b1461030e57600080fd5b8063440c14ef1161016657806363007d6f1161014057806363007d6f1461029a578063712ecaed146102ad578063715018a6146102c057806383e22774146102c857600080fd5b8063440c14ef1461024c578063495c146a146102755780635c975abb1461028857600080fd5b80630b375d84146101ae5780632d3421b9146101e6578063366eb309146102065780633df47fb91461021c5780633f4ba83a1461022f57806340e75b0f14610239575b600080fd5b6101d16101bc366004611924565b60009081526006602052604090205460ff1690565b60405190151581526020015b60405180910390f35b6101f96101f4366004611959565b6103eb565b6040516101dd9190611974565b61020e610457565b6040519081526020016101dd565b61020e61022a3660046119b8565b6104a3565b6102376104d4565b005b610237610247366004611924565b6104e6565b61025f61025a366004611924565b610755565b6040516101dd9a99989796959493929190611a1a565b610237610283366004611924565b610912565b600054600160a01b900460ff166101d1565b6101f96102a8366004611acd565b610ae6565b6101f96102bb366004611924565b610c49565b610237610ca9565b6008546102db906001600160a01b031681565b6040516001600160a01b0390911681526020016101dd565b610237610cbb565b6101d1610309366004611924565b610ccb565b6000546001600160a01b03166102db565b61025f61032d366004611924565b610e47565b60075461020e565b61020e60075481565b6101d1610351366004611924565b60066020526000908152604090205460ff1681565b61020e610374366004611acd565b610f39565b610237610387366004611959565b610f55565b6101f961039a366004611924565b611005565b6102376103ad366004611b05565b6112bc565b6101f96103c0366004611959565b6116f6565b6102376103d3366004611959565b611760565b61020e6103e63660046119b8565b61179e565b6001600160a01b03811660009081526005602090815260409182902080548351818402810184019094528084526060939283018282801561044b57602002820191906000526020600020905b815481526020019060010190808311610437575b50505050509050919050565b60008060015b600754811161049d5760008181526006602052604090205460ff161561048b578161048781611c18565b9250505b8061049581611c18565b91505061045d565b50919050565b600460205281600052604060002081815481106104bf57600080fd5b90600052602060002001600091509150505481565b6104dc6117ba565b6104e46117e7565b565b6104ee61183c565b60008181526002602052604081205490036105455760405162461bcd60e51b815260206004820152601260248201527114995b5a5b99195c881b9bdd08199bdd5b9960721b60448201526064015b60405180910390fd5b600081815260026020526040902060050154610100900460ff166105a45760405162461bcd60e51b815260206004820152601660248201527552656d696e646572206973206e6f742061637469766560501b604482015260640161053c565b6000818152600260205260409020600401544210156105fc5760405162461bcd60e51b815260206004820152601460248201527314995b5a5b99195c881b9bdd08191d59481e595d60621b604482015260640161053c565b60008181526002602052604090206005015462010000900460ff16156106645760405162461bcd60e51b815260206004820152601a60248201527f52656d696e64657220616c726561647920747269676765726564000000000000604482015260640161053c565b6008546001600160a01b031633148061068757506000546001600160a01b031633145b6106e55760405162461bcd60e51b815260206004820152602960248201527f4f6e6c79206b6565706572206f72206f776e65722063616e2074726967676572604482015268103932b6b4b73232b960b91b606482015260840161053c565b6000818152600260205260409081902060058101805462ff0000198116620100001790915542600683018190559251919284927f611b50a8f2d45cace6b5bf6857c1e9033a8051c58cc845a18a7f9a8b54fdbac1926107499260ff90911691611c31565b60405180910390a25050565b60008181526002602081815260408084208151610140810183528154815260018083015494820194909452938101546001600160a01b03908116928501929092526003810154909116606084810191909152600482015460808501526005820154859485948594859485948594859485948593909160a084019160ff16908111156107e2576107e26119e2565b60018111156107f3576107f36119e2565b8152600582015460ff61010082048116151560208401526201000090910416151560408201526006820154606082015260078201805460809092019161083890611c4c565b80601f016020809104026020016040519081016040528092919081815260200182805461086490611c4c565b80156108b15780601f10610886576101008083540402835291602001916108b1565b820191906000526020600020905b81548152906001019060200180831161089457829003601f168201915b5050505050815250509050806000015181602001518260400151836060015184608001518560a001518660c001518760e001518861010001518961012001519a509a509a509a509a509a509a509a509a509a50509193959799509193959799565b61091a61183c565b600081815260026020526040812054900361096c5760405162461bcd60e51b815260206004820152601260248201527114995b5a5b99195c881b9bdd08199bdd5b9960721b604482015260640161053c565b600081815260026020526040902060050154610100900460ff166109cb5760405162461bcd60e51b815260206004820152601660248201527552656d696e646572206973206e6f742061637469766560501b604482015260640161053c565b600081815260026020819052604090912001546001600160a01b0316331480610a0d57506000818152600260205260409020600301546001600160a01b031633145b80610a2257506000546001600160a01b031633145b610a8a5760405162461bcd60e51b815260206004820152603360248201527f4f6e6c792074656e616e742c206c616e646c6f72642c206f72206f776e65722060448201527231b0b71031b0b731b2b6103932b6b4b73232b960691b606482015260840161053c565b600081815260026020908152604080832060058101805461ff00191690556006909252808320805460ff19169055519091339184917f9da359eb5963d4b3bd88907ce81d2b4cbfe72798fca3af4c8a03944d8a14318491a35050565b606060008267ffffffffffffffff811115610b0357610b03611aef565b604051908082528060200260200182016040528015610b2c578160200160208202803683370190505b509050600080610b3d866001611c80565b90505b6007548111158015610b5157508482105b15610bab5760008181526006602052604090205460ff1615610b995780838381518110610b8057610b80611c93565b602090810291909101015281610b9581611c18565b9250505b80610ba381611c18565b915050610b40565b5060008167ffffffffffffffff811115610bc757610bc7611aef565b604051908082528060200260200182016040528015610bf0578160200160208202803683370190505b50905060005b82811015610c3d57838181518110610c1057610c10611c93565b6020026020010151828281518110610c2a57610c2a611c93565b6020908102919091010152600101610bf6565b50925050505b92915050565b60008181526003602090815260409182902080548351818402810184019094528084526060939283018282801561044b57602002820191906000526020600020908154815260200190600101908083116104375750505050509050919050565b610cb16117ba565b6104e46000611867565b610cc36117ba565b6104e46118b7565b60008181526002602081815260408084208151610140810183528154815260018083015494820194909452938101546001600160a01b03908116928501929092526003810154909116606084015260048101546080840152600581015484939260a084019160ff1690811115610d4357610d436119e2565b6001811115610d5457610d546119e2565b8152600582015460ff610100820481161515602084015262010000909104161515604082015260068201546060820152600782018054608090920191610d9990611c4c565b80601f0160208091040260200160405190810160405280929190818152602001828054610dc590611c4c565b8015610e125780601f10610de757610100808354040283529160200191610e12565b820191906000526020600020905b815481529060010190602001808311610df557829003601f168201915b50505050508152505090508060c001518015610e3057508060e00151155b8015610e40575042816080015111155b9392505050565b6002602081905260009182526040909120805460018201549282015460038301546004840154600585015460068601546007870180549698976001600160a01b03968716979690951695939460ff808516956101008604821695620100009004909116939290610eb690611c4c565b80601f0160208091040260200160405190810160405280929190818152602001828054610ee290611c4c565b8015610f2f5780601f10610f0457610100808354040283529160200191610f2f565b820191906000526020600020905b815481529060010190602001808311610f1257829003601f168201915b505050505090508a565b600360205281600052604060002081815481106104bf57600080fd5b610f5d6117ba565b6001600160a01b038116610fb35760405162461bcd60e51b815260206004820152601860248201527f496e76616c696420726567697374727920616464726573730000000000000000604482015260640161053c565b600880546001600160a01b038381166001600160a01b0319831681179093556040519116919082907fe659c10110ed6c09255621452b981a2499f2ba9c627835e8941bd3725f44ec9290600090a35050565b606060008267ffffffffffffffff81111561102257611022611aef565b60405190808252806020026020018201604052801561104b578160200160208202803683370190505b509050600060015b600754811115801561106457508482105b156112215760008181526002602081815260408084208151610140810183528154815260018083015494820194909452938101546001600160a01b039081169285019290925260038101549091166060840152600481015460808401526005810154909160a084019160ff16908111156110e0576110e06119e2565b60018111156110f1576110f16119e2565b8152600582015460ff61010082048116151560208401526201000090910416151560408201526006820154606082015260078201805460809092019161113690611c4c565b80601f016020809104026020016040519081016040528092919081815260200182805461116290611c4c565b80156111af5780601f10611184576101008083540402835291602001916111af565b820191906000526020600020905b81548152906001019060200180831161119257829003601f168201915b50505050508152505090508060c0015180156111cd57508060e00151155b80156111dd575042816080015111155b1561120e57818484815181106111f5576111f5611c93565b60209081029190910101528261120a81611c18565b9350505b508061121981611c18565b915050611053565b5060008167ffffffffffffffff81111561123d5761123d611aef565b604051908082528060200260200182016040528015611266578160200160208202803683370190505b50905060005b828110156112b35783818151811061128657611286611c93565b60200260200101518282815181106112a0576112a0611c93565b602090810291909101015260010161126c565b50949350505050565b6112c461183c565b6001600160a01b0385166113135760405162461bcd60e51b8152602060048201526016602482015275496e76616c69642074656e616e74206164647265737360501b604482015260640161053c565b6001600160a01b0384166113695760405162461bcd60e51b815260206004820152601860248201527f496e76616c6964206c616e646c6f726420616464726573730000000000000000604482015260640161053c565b4283116113b85760405162461bcd60e51b815260206004820152601e60248201527f4475652064617465206d75737420626520696e20746865206675747572650000604482015260640161053c565b60018260ff1611156114045760405162461bcd60e51b8152602060048201526015602482015274496e76616c69642072656d696e646572207479706560581b604482015260640161053c565b336001600160a01b03861614806114235750336001600160a01b038516145b8061143857506000546001600160a01b031633145b61149d5760405162461bcd60e51b815260206004820152603060248201527f4f6e6c792074656e616e742c206c616e646c6f72642c206f72206f776e65722060448201526f31b0b71039b2ba103932b6b4b73232b960811b606482015260840161053c565b600780549060006114ad83611c18565b9190505550600060075490506000604051806101400160405280838152602001898152602001886001600160a01b03168152602001876001600160a01b031681526020018681526020018560ff16600181111561150c5761150c6119e2565b600181111561151d5761151d6119e2565b81526001602080830182905260006040808501829052606080860183905260809586018a90528883526002808552928290208751815593870151848601559086015191830180546001600160a01b039384166001600160a01b0319918216179091559086015160038401805491909316911617905591830151600483015560a083015160058301805494955085949192909160ff19169083818111156115c5576115c56119e2565b021790555060c082015160058201805460e085015162ffff0019909116610100931515840262ff000019161762010000911515919091021790558201516006820155610120820151600782019061161c9082611cfa565b5050506000888152600360209081526040808320805460018181018355918552838520018690556001600160a01b03808c16808652600485528386208054808501825590875285872001889055908b16855260058452828520805480840182559086528486200187905586855260069093529220805460ff19168317905590899084907fef8dc153681311ede1bb05bd6828d6ea6b768615aa5eb664184fce87f78934a69060ff8916908111156116d5576116d56119e2565b896040516116e4929190611c31565b60405180910390a45050505050505050565b6001600160a01b03811660009081526004602090815260409182902080548351818402810184019094528084526060939283018282801561044b57602002820191906000526020600020908154815260200190600101908083116104375750505050509050919050565b6117686117ba565b6001600160a01b03811661179257604051631e4fbdf760e01b81526000600482015260240161053c565b61179b81611867565b50565b600560205281600052604060002081815481106104bf57600080fd5b6000546001600160a01b031633146104e45760405163118cdaa760e01b815233600482015260240161053c565b6117ef6118fa565b6000805460ff60a01b191690557f5db9ee0a495bf2e6ff9c91a7834c1ba4fdd244a5e8aa4e537bd38aeae4b073aa335b6040516001600160a01b03909116815260200160405180910390a1565b600054600160a01b900460ff16156104e45760405163d93c066560e01b815260040160405180910390fd5b600080546001600160a01b038381166001600160a01b0319831681178455604051919092169283917f8be0079c531659141344cd1fd0a4f28419497f9722a3daafe3b4186f6b6457e09190a35050565b6118bf61183c565b6000805460ff60a01b1916600160a01b1790557f62e78cea01bee320cd4e420270b5ea74000d11b0c9f74754ebdbfc544b05a25861181f3390565b600054600160a01b900460ff166104e457604051638dfc202b60e01b815260040160405180910390fd5b60006020828403121561193657600080fd5b5035919050565b80356001600160a01b038116811461195457600080fd5b919050565b60006020828403121561196b57600080fd5b610e408261193d565b6020808252825182820181905260009190848201906040850190845b818110156119ac57835183529284019291840191600101611990565b50909695505050505050565b600080604083850312156119cb57600080fd5b6119d48361193d565b946020939093013593505050565b634e487b7160e01b600052602160045260246000fd5b60028110611a1657634e487b7160e01b600052602160045260246000fd5b9052565b8a815260208082018b90526001600160a01b038a81166040840152891660608301526080820188905260009061014090611a5760a085018a6119f8565b87151560c085015286151560e0850152856101008501528161012085015284518083860152600092505b80831015611aa057858301820151858401610160015291810191611a81565b6101609250600083828701015282601f19601f83011686010193505050509b9a5050505050505050505050565b60008060408385031215611ae057600080fd5b50508035926020909101359150565b634e487b7160e01b600052604160045260246000fd5b60008060008060008060c08789031215611b1e57600080fd5b86359550611b2e6020880161193d565b9450611b3c6040880161193d565b935060608701359250608087013560ff81168114611b5957600080fd5b915060a087013567ffffffffffffffff80821115611b7657600080fd5b818901915089601f830112611b8a57600080fd5b813581811115611b9c57611b9c611aef565b604051601f8201601f19908116603f01168101908382118183101715611bc457611bc4611aef565b816040528281528c6020848701011115611bdd57600080fd5b8260208601602083013760006020848301015280955050505050509295509295509295565b634e487b7160e01b600052601160045260246000fd5b600060018201611c2a57611c2a611c02565b5060010190565b60408101611c3f82856119f8565b8260208301529392505050565b600181811c90821680611c6057607f821691505b60208210810361049d57634e487b7160e01b600052602260045260246000fd5b80820180821115610c4357610c43611c02565b634e487b7160e01b600052603260045260246000fd5b601f821115611cf5576000816000526020600020601f850160051c81016020861015611cd25750805b601f850160051c820191505b81811015611cf157828155600101611cde565b5050505b505050565b815167ffffffffffffffff811115611d1457611d14611aef565b611d2881611d228454611c4c565b84611ca9565b602080601f831160018114611d5d5760008415611d455750858301515b600019600386901b1c1916600185901b178555611cf1565b600085815260208120601f198616915b82811015611d8c57888601518255948401946001909101908401611d6d565b5085821015611daa5787850151600019600388901b60f8161c191681555b5050505050600190811b0190555056fea264697066735822122079a0f3519b99e8a241909b2bf04bac3d148d03d0d8bfec342d44de5f6838a49c64736f6c63430008160033",
  "linkReferences": {},
  "deployedLinkReferences": {}
}