{
  "_format": "hh-sol-artifact-1",
  "contractName": "Listings",
  "sourceName": "contracts/Listings.sol",
  "abi": [
    {
      "inputs": [],
      "stateMutability": "nonpayable",
      "type": "constructor"
    },
    {
      "inputs": [],
      "name": "EnforcedPause",
      "type": "error"
    },
    {
      "inputs": [],
      "name": "ExpectedPause",
      "type": "error"
    },
    {
      "inputs": [
        {
          "internalType": "address",
          "name": "owner",
          "type": "address"
        }
      ],
      "name": "OwnableInvalidOwner",
      "type": "error"
    },
    {
      "inputs": [
        {
          "internalType": "address",
          "name": "account",
          "type": "address"
        }
      ],
      "name": "OwnableUnauthorizedAccount",
      "type": "error"
    },
    {
      "inputs": [],
      "name": "ReentrancyGuardReentrantCall",
      "type": "error"
    },
    {
      "anonymous": false,
      "inputs": [
        {
          "indexed": true,
          "internalType": "uint256",
          "name": "propertyId",
          "type": "uint256"
        },
        {
          "indexed": false,
          "internalType": "bool",
          "name": "isAvailable",
          "type": "bool"
        }
      ],
      "name": "AvailabilityToggled",
      "type": "event"
    },
    {
      "anonymous": false,
      "inputs": [
        {
          "indexed": true,
          "internalType": "address",
          "name": "landlord",
          "type": "address"
        },
        {
          "indexed": false,
          "internalType": "string",
          "name": "kycHash",
          "type": "string"
        }
      ],
      "name": "LandlordKYCUpdated",
      "type": "event"
    },
    {
      "anonymous": false,
      "inputs": [
        {
          "indexed": true,
          "internalType": "address",
          "name": "landlord",
          "type": "address"
        },
        {
          "indexed": false,
          "internalType": "string",
          "name": "kycHash",
          "type": "string"
        }
      ],
      "name": "LandlordVerified",
      "type": "event"
    },
    {
      "anonymous": false,
      "inputs": [
        {
          "indexed": true,
          "internalType": "address",
          "name": "previousOwner",
          "type": "address"
        },
        {
          "indexed": true,
          "internalType": "address",
          "name": "newOwner",
          "type": "address"
        }
      ],
      "name": "OwnershipTransferred",
      "type": "event"
    },
    {
      "anonymous": false,
      "inputs": [
        {
          "indexed": false,
          "internalType": "address",
          "name": "account",
          "type": "address"
        }
      ],
      "name": "Paused",
      "type": "event"
    },
    {
      "anonymous": false,
      "inputs": [
        {
          "indexed": true,
          "internalType": "uint256",
          "name": "propertyId",
          "type": "uint256"
        },
        {
          "indexed": true,
          "internalType": "address",
          "name": "landlord",
          "type": "address"
        },
        {
          "indexed": false,
          "internalType": "string",
          "name": "title",
          "type": "string"
        },
        {
          "indexed": false,
          "internalType": "enum Listings.PropertyType",
          "name": "propertyType",
          "type": "uint8"
        },
        {
          "indexed": false,
          "internalType": "uint256",
          "name": "rentAmount",
          "type": "uint256"
        }
      ],
      "name": "PropertyListed",
      "type": "event"
    },
    {
      "anonymous": false,
      "inputs": [
        {
          "indexed": true,
          "internalType": "uint256",
          "name": "propertyId",
          "type": "uint256"
        },
        {
          "indexed": false,
          "internalType": "string",
          "name": "title",
          "type": "string"
        },
        {
          "indexed": false,
          "internalType": "enum Listings.PropertyType",
          "name": "propertyType",
          "type": "uint8"
        },
        {
          "indexed": false,
          "internalType": "uint256",
          "name": "rentAmount",
          "type": "uint256"
        }
      ],
      "name": "PropertyUpdated",
      "type": "event"
    },
    {
      "anonymous": false,
      "inputs": [
        {
          "indexed": false,
          "internalType": "address",
          "name": "account",
          "type": "address"
        }
      ],
      "name": "Unpaused",
      "type": "event"
    },
    {
      "inputs": [
        {
          "internalType": "string",
          "name": "title",
          "type": "string"
        },
        {
          "internalType": "uint8",
          "name": "propertyType",
          "type": "uint8"
        },
        {
          "internalType": "uint256",
          "name": "rentAmount",
          "type": "uint256"
        },
        {
          "internalType": "string",
          "name": "ipfsHash",
          "type": "string"
        }
      ],
      "name": "addProperty",
      "outputs": [],
      "stateMutability": "nonpayable",
      "type": "function"
    },
    {
      "inputs": [
        {
          "internalType": "uint256",
          "name": "",
          "type": "uint256"
        }
      ],
      "name": "availableProperties",
      "outputs": [
        {
          "internalType": "bool",
          "name": "",
          "type": "bool"
        }
      ],
      "stateMutability": "view",
      "type": "function"
    },
    {
      "inputs": [
        {
          "internalType": "uint256",
          "name": "propertyId",
          "type": "uint256"
        },
        {
          "internalType": "string",
          "name": "title",
          "type": "string"
        },
        {
          "internalType": "uint8",
          "name": "propertyType",
          "type": "uint8"
        },
        {
          "internalType": "uint256",
          "name": "rentAmount",
          "type": "uint256"
        },
        {
          "internalType": "string",
          "name": "ipfsHash",
          "type": "string"
        }
      ],
      "name": "editProperty",
      "outputs": [],
      "stateMutability": "nonpayable",
      "type": "function"
    },
    {
      "inputs": [],
      "name": "getAllProperties",
      "outputs": [
        {
          "internalType": "uint256[]",
          "name": "",
          "type": "uint256[]"
        }
      ],
      "stateMutability": "view",
      "type": "function"
    },
    {
      "inputs": [
        {
          "internalType": "uint256",
          "name": "offset",
          "type": "uint256"
        },
        {
          "internalType": "uint256",
          "name": "limit",
          "type": "uint256"
        }
      ],
      "name": "getAvailableProperties",
      "outputs": [
        {
          "internalType": "uint256[]",
          "name": "",
          "type": "uint256[]"
        }
      ],
      "stateMutability": "view",
      "type": "function"
    },
    {
      "inputs": [
        {
          "internalType": "address",
          "name": "landlord",
          "type": "address"
        }
      ],
      "name": "getLandlordKYC",
      "outputs": [
        {
          "internalType": "string",
          "name": "",
          "type": "string"
        }
      ],
      "stateMutability": "view",
      "type": "function"
    },
    {
      "inputs": [
        {
          "internalType": "address",
          "name": "landlord",
          "type": "address"
        }
      ],
      "name": "getLandlordProperties",
      "outputs": [
        {
          "internalType": "uint256[]",
          "name": "",
          "type": "uint256[]"
        }
      ],
      "stateMutability": "view",
      "type": "function"
    },
    {
      "inputs": [
        {
          "internalType": "uint256",
          "name": "propertyId",
          "type": "uint256"
        }
      ],
      "name": "getProperty",
      "outputs": [
        {
          "internalType": "uint256",
          "name": "id",
          "type": "uint256"
        },
        {
          "internalType": "address",
          "name": "landlord",
          "type": "address"
        },
        {
          "internalType": "string",
          "name": "title",
          "type": "string"
        },
        {
          "internalType": "enum Listings.PropertyType",
          "name": "propertyType",
          "type": "uint8"
        },
        {
          "internalType": "uint256",
          "name": "rentAmount",
          "type": "uint256"
        },
        {
          "internalType": "bool",
          "name": "isAvailable",
          "type": "bool"
        },
        {
          "internalType": "string",
          "name": "ipfsHash",
          "type": "string"
        },
        {
          "internalType": "uint256",
          "name": "createdAt",
          "type": "uint256"
        },
        {
          "internalType": "uint256",
          "name": "updatedAt",
          "type": "uint256"
        }
      ],
      "stateMutability": "view",
      "type": "function"
    },
    {
      "inputs": [],
      "name": "getTotalProperties",
      "outputs": [
        {
          "internalType": "uint256",
          "name": "",
          "type": "uint256"
        }
      ],
      "stateMutability": "view",
      "type": "function"
    },
    {
      "inputs": [
        {
          "internalType": "address",
          "name": "landlord",
          "type": "address"
        }
      ],
      "name": "isLandlordVerified",
      "outputs": [
        {
          "internalType": "bool",
          "name": "",
          "type": "bool"
        }
      ],
      "stateMutability": "view",
      "type": "function"
    },
    {
      "inputs": [
        {
          "internalType": "address",
          "name": "",
          "type": "address"
        }
      ],
      "name": "landlordKYC",
      "outputs": [
        {
          "internalType": "string",
          "name": "",
          "type": "string"
        }
      ],
      "stateMutability": "view",
      "type": "function"
    },
    {
      "inputs": [
        {
          "internalType": "address",
          "name": "",
          "type": "address"
        },
        {
          "internalType": "uint256",
          "name": "",
          "type": "uint256"
        }
      ],
      "name": "landlordProperties",
      "outputs": [
        {
          "internalType": "uint256",
          "name": "",
          "type": "uint256"
        }
      ],
      "stateMutability": "view",
      "type": "function"
    },
    {
      "inputs": [],
      "name": "owner",
      "outputs": [
        {
          "internalType": "address",
          "name": "",
          "type": "address"
        }
      ],
      "stateMutability": "view",
      "type": "function"
    },
    {
      "inputs": [],
      "name": "pause",
      "outputs": [],
      "stateMutability": "nonpayable",
      "type": "function"
    },
    {
      "inputs": [],
      "name": "paused",
      "outputs": [
        {
          "internalType": "bool",
          "name": "",
          "type": "bool"
        }
      ],
      "stateMutability": "view",
      "type": "function"
    },
    {
      "inputs": [
        {
          "internalType": "uint256",
          "name": "",
          "type": "uint256"
        }
      ],
      "name": "properties",
      "outputs": [
        {
          "internalType": "uint256",
          "name": "propertyId",
          "type": "uint256"
        },
        {
          "internalType": "address",
          "name": "landlord",
          "type": "address"
        },
        {
          "internalType": "string",
          "name": "title",
          "type": "string"
        },
        {
          "internalType": "enum Listings.PropertyType",
          "name": "propertyType",
          "type": "uint8"
        },
        {
          "internalType": "uint256",
          "name": "rentAmount",
          "type": "uint256"
        },
        {
          "internalType": "bool",
          "name": "isAvailable",
          "type": "bool"
        },
        {
          "internalType": "string",
          "name": "ipfsHash",
          "type": "string"
        },
        {
          "internalType": "uint256",
          "name": "createdAt",
          "type": "uint256"
        },
        {
          "internalType": "uint256",
          "name": "updatedAt",
          "type": "uint256"
        }
      ],
      "stateMutability": "view",
      "type": "function"
    },
    {
      "inputs": [
        {
          "internalType": "uint256",
          "name": "propertyId",
          "type": "uint256"
        }
      ],
      "name": "removeProperty",
      "outputs": [],
      "stateMutability": "nonpayable",
      "type": "function"
    },
    {
      "inputs": [],
      "name": "renounceOwnership",
      "outputs": [],
      "stateMutability": "nonpayable",
      "type": "function"
    },
    {
      "inputs": [
        {
          "internalType": "uint256",
          "name": "propertyId",
          "type": "uint256"
        },
        {
          "internalType": "bool",
          "name": "isAvailable",
          "type": "bool"
        }
      ],
      "name": "toggleAvailability",
      "outputs": [],
      "stateMutability": "nonpayable",
      "type": "function"
    },
    {
      "inputs": [],
      "name": "totalProperties",
      "outputs": [
        {
          "internalType": "uint256",
          "name": "",
          "type": "uint256"
        }
      ],
      "stateMutability": "view",
      "type": "function"
    },
    {
      "inputs": [
        {
          "internalType": "address",
          "name": "newOwner",
          "type": "address"
        }
      ],
      "name": "transferOwnership",
      "outputs": [],
      "stateMutability": "nonpayable",
      "type": "function"
    },
    {
      "inputs": [],
      "name": "unpause",
      "outputs": [],
      "stateMutability": "nonpayable",
      "type": "function"
    },
    {
      "inputs": [
        {
          "internalType": "address",
          "name": "landlord",
          "type": "address"
        },
        {
          "internalType": "string",
          "name": "kycHash",
          "type": "string"
        }
      ],
      "name": "updateLandlordKYC",
      "outputs": [],
      "stateMutability": "nonpayable",
      "type": "function"
    },
    {
      "inputs": [
        {
          "internalType": "uint256",
          "name": "propertyId",
          "type": "uint256"
        },
        {
          "internalType": "string",
          "name": "title",
          "type": "string"
        },
        {
          "internalType": "uint8",
          "name": "propertyType",
          "type": "uint8"
        },
        {
          "internalType": "uint256",
          "name": "rentAmount",
          "type": "uint256"
        },
        {
          "internalType": "string",
          "name": "ipfsHash",
          "type": "string"
        }
      ],
      "name": "updateProperty",
      "outputs": [],
      "stateMutability": "nonpayable",
      "type": "function"
    },
    {
      "inputs": [
        {
          "internalType": "address",
          "name": "landlord",
          "type": "address"
        },
        {
          "internalType": "string",
          "name": "kycHash",
          "type": "string"
        }
      ],
      "name": "verifyLandlord",
      "outputs": [],
      "stateMutability": "nonpayable",
      "type": "function"
    }
  ],
  "bytecode": "0x608060405234801561001057600080fd5b50338061003757604051631e4fbdf760e01b81526000600482015260240160405180910390fd5b6100408161004a565b506001805561009a565b600080546001600160a01b038381166001600160a01b0319831681178455604051919092169283917f8be0079c531659141344cd1fd0a4f28419497f9722a3daafe3b4186f6b6457e09190a35050565b611f92806100a96000396000f3fe608060405234801561001057600080fd5b50600436106101735760003560e01c8063715018a6116100de578063b4adf77311610097578063d4ca166511610071578063d4ca16651461032d578063f2fde38b14610340578063f7b1080814610353578063fef3d9e31461036657600080fd5b8063b4adf773146102f4578063b574a06814610307578063bc43d06f1461031a57600080fd5b8063715018a61461027357806379a10c561461027b5780637f823a331461028e5780638456cb59146102ae5780638da5cb5b146102b6578063a87a3e4a146102d157600080fd5b806332665ffb1161013057806332665ffb146101f75780633d51402c1461021f5780633f4ba83a14610227578063537127461461022f5780635c975abb146102425780636007bd6e1461026057600080fd5b80630b3bce20146101785780630cd45145146101945780631112fccc146101b457806317aaf5ed146101c95780631a20f998146101d157806321adbefb146101e4575b600080fd5b61018160055481565b6040519081526020015b60405180910390f35b6101a76101a23660046118cc565b610379565b60405161018b91906118ee565b6101c76101c2366004611932565b6104dc565b005b600554610181565b6101c76101df366004611a20565b6105d5565b6101c76101f2366004611ab5565b610937565b61020a610205366004611b03565b610a44565b60405161018b99989796959493929190611b9a565b6101a7610c84565b6101c7610dd5565b6101c761023d366004611c0e565b610de7565b600054600160a01b900460ff165b604051901515815260200161018b565b61018161026e366004611c96565b611024565b6101c7611055565b6101c7610289366004611ab5565b611067565b6102a161029c366004611cc0565b611168565b60405161018b9190611ce2565b6101c7611202565b6000546040516001600160a01b03909116815260200161018b565b6102506102df366004611b03565b60046020526000908152604090205460ff1681565b6102a1610302366004611cc0565b611212565b6101a7610315366004611cc0565b6112be565b6101c7610328366004611b03565b611329565b61025061033b366004611cc0565b61151c565b6101c761034e366004611cc0565b61154c565b61020a610361366004611b03565b61158a565b6101c7610374366004611c0e565b6116f8565b606060008267ffffffffffffffff81111561039657610396611967565b6040519080825280602002602001820160405280156103bf578160200160208202803683370190505b5090506000806103d0866001611d0b565b90505b60055481111580156103e457508482105b1561043e5760008181526004602052604090205460ff161561042c578083838151811061041357610413611d1e565b60209081029190910101528161042881611d34565b9250505b8061043681611d34565b9150506103d3565b5060008167ffffffffffffffff81111561045a5761045a611967565b604051908082528060200260200182016040528015610483578160200160208202803683370190505b50905060005b828110156104d0578381815181106104a3576104a3611d1e565b60200260200101518282815181106104bd576104bd611d1e565b6020908102919091010152600101610489565b50925050505b92915050565b6104e4611714565b6000828152600260205260409020600101546001600160a01b031633146105605760405162461bcd60e51b815260206004820152602560248201527f4f6e6c79206c616e646c6f72642063616e20746f67676c6520617661696c6162604482015264696c69747960d81b60648201526084015b60405180910390fd5b600082815260026020908152604080832060058101805486151560ff19918216811790925560048552948390208054909516811790945542600882015590519283529184917ff706541cf31e03d3f5beb31da468a35a489ee410c77eb4a986182ddb57da3936910160405180910390a2505050565b6105dd611714565b60008451116106265760405162461bcd60e51b81526020600482015260156024820152745469746c652063616e6e6f7420626520656d70747960581b6044820152606401610557565b60018360ff1611156106725760405162461bcd60e51b8152602060048201526015602482015274496e76616c69642070726f7065727479207479706560581b6044820152606401610557565b600082116106925760405162461bcd60e51b815260040161055790611d4d565b60008151116106df5760405162461bcd60e51b81526020600482015260196024820152784950465320686173682063616e6e6f7420626520656d70747960381b6044820152606401610557565b33600090815260066020526040812080546106f990611d8f565b9050116107485760405162461bcd60e51b815260206004820152601960248201527f4c616e646c6f7264206d757374206265207665726966696564000000000000006044820152606401610557565b6005805490600061075883611d34565b909155505060055460408051610120810182528281523360208201529081018690526000906060810160ff8716600181111561079657610796611b62565b60018111156107a7576107a7611b62565b815260200185815260200160011515815260200184815260200142815260200142815250905080600260008481526020019081526020016000206000820151816000015560208201518160010160006101000a8154816001600160a01b0302191690836001600160a01b03160217905550604082015181600201908161082d9190611e1a565b50606082015160038201805460ff19166001838181111561085057610850611b62565b02179055506080820151600482015560a082015160058201805460ff191691151591909117905560c0820151600682019061088b9082611e1a565b5060e0820151600782015561010090910151600890910155336000818152600360209081526040808320805460018181018355918552838520018790558684526004909252909120805460ff19168217905583907fb0fc98bcdbd4bdc45dc29c8f96e627c63194ac5bbbb14d5549505dd47af9edec90899060ff8a169081111561091757610917611b62565b8860405161092793929190611eda565b60405180910390a3505050505050565b61093f61173f565b6001600160a01b0382166109905760405162461bcd60e51b8152602060048201526018602482015277496e76616c6964206c616e646c6f7264206164647265737360401b6044820152606401610557565b60008151116109dc5760405162461bcd60e51b81526020600482015260186024820152774b594320686173682063616e6e6f7420626520656d70747960401b6044820152606401610557565b6001600160a01b03821660009081526006602052604090206109fe8282611e1a565b50816001600160a01b03167fc003a6ceb9761dd68f94c8468bf4d79452b4b37b2bc1aa6654cf05bb1998eecb82604051610a389190611ce2565b60405180910390a25050565b6000806060600080600060606000806000600260008c815260200190815260200160002060405180610120016040529081600082015481526020016001820160009054906101000a90046001600160a01b03166001600160a01b03166001600160a01b03168152602001600282018054610abd90611d8f565b80601f0160208091040260200160405190810160405280929190818152602001828054610ae990611d8f565b8015610b365780601f10610b0b57610100808354040283529160200191610b36565b820191906000526020600020905b815481529060010190602001808311610b1957829003601f168201915b5050509183525050600382015460209091019060ff166001811115610b5d57610b5d611b62565b6001811115610b6e57610b6e611b62565b815260048201546020820152600582015460ff1615156040820152600682018054606090920191610b9e90611d8f565b80601f0160208091040260200160405190810160405280929190818152602001828054610bca90611d8f565b8015610c175780601f10610bec57610100808354040283529160200191610c17565b820191906000526020600020905b815481529060010190602001808311610bfa57829003601f168201915b50505050508152602001600782015481526020016008820154815250509050806000015181602001518260400151836060015184608001518560a001518660c001518760e00151886101000151995099509950995099509950995099509950509193959799909294969850565b6060600060055467ffffffffffffffff811115610ca357610ca3611967565b604051908082528060200260200182016040528015610ccc578160200160208202803683370190505b509050600060015b6005548111610d3b576000818152600260205260409020600101546001600160a01b031615610d295780838381518110610d1057610d10611d1e565b602090810291909101015281610d2581611d34565b9250505b80610d3381611d34565b915050610cd4565b5060008167ffffffffffffffff811115610d5757610d57611967565b604051908082528060200260200182016040528015610d80578160200160208202803683370190505b50905060005b82811015610dcd57838181518110610da057610da0611d1e565b6020026020010151828281518110610dba57610dba611d1e565b6020908102919091010152600101610d86565b509392505050565b610ddd61173f565b610de561176c565b565b610def611714565b6000858152600260205260409020600101546001600160a01b03163314610e585760405162461bcd60e51b815260206004820152601f60248201527f4f6e6c79206c616e646c6f72642063616e20656469742070726f7065727479006044820152606401610557565b6000845111610ea15760405162461bcd60e51b81526020600482015260156024820152745469746c652063616e6e6f7420626520656d70747960581b6044820152606401610557565b60018360ff161115610eed5760405162461bcd60e51b8152602060048201526015602482015274496e76616c69642070726f7065727479207479706560581b6044820152606401610557565b60008211610f0d5760405162461bcd60e51b815260040161055790611d4d565b6000815111610f5a5760405162461bcd60e51b81526020600482015260196024820152784950465320686173682063616e6e6f7420626520656d70747960381b6044820152606401610557565b6000858152600260208190526040909120908101610f788682611e1a565b508360ff166001811115610f8e57610f8e611b62565b60038201805460ff191660018381811115610fab57610fab611b62565b02179055506004810183905560068101610fc58382611e1a565b50426008820155857f1f86f2a8f9251632c769e604fdeadd0ea49ab3682d1befac8ab09a7725da9c958660ff8716600181111561100457611004611b62565b8660405161101493929190611eda565b60405180910390a2505050505050565b6003602052816000526040600020818154811061104057600080fd5b90600052602060002001600091509150505481565b61105d61173f565b610de560006117c1565b61106f61173f565b6001600160a01b0382166110c05760405162461bcd60e51b8152602060048201526018602482015277496e76616c6964206c616e646c6f7264206164647265737360401b6044820152606401610557565b600081511161110c5760405162461bcd60e51b81526020600482015260186024820152774b594320686173682063616e6e6f7420626520656d70747960401b6044820152606401610557565b6001600160a01b038216600090815260066020526040902061112e8282611e1a565b50816001600160a01b03167f608399978af79e2f915fe10f4d37b6394abf034e3159ddcc19af9a433692f06c82604051610a389190611ce2565b6006602052600090815260409020805461118190611d8f565b80601f01602080910402602001604051908101604052809291908181526020018280546111ad90611d8f565b80156111fa5780601f106111cf576101008083540402835291602001916111fa565b820191906000526020600020905b8154815290600101906020018083116111dd57829003601f168201915b505050505081565b61120a61173f565b610de5611811565b6001600160a01b038116600090815260066020526040902080546060919061123990611d8f565b80601f016020809104026020016040519081016040528092919081815260200182805461126590611d8f565b80156112b25780601f10611287576101008083540402835291602001916112b2565b820191906000526020600020905b81548152906001019060200180831161129557829003601f168201915b50505050509050919050565b6001600160a01b0381166000908152600360209081526040918290208054835181840281018401909452808452606093928301828280156112b257602002820191906000526020600020905b81548152602001906001019080831161130a5750505050509050919050565b611331611714565b6000818152600260205260409020600101546001600160a01b031633146113a45760405162461bcd60e51b815260206004820152602160248201527f4f6e6c79206c616e646c6f72642063616e2072656d6f76652070726f706572746044820152607960f81b6064820152608401610557565b600081815260026020819052604082208281556001810180546001600160a01b031916905591906113d79083018261187e565b60038201805460ff1990811690915560006004840181905560058401805490921690915561140990600684019061187e565b506000600782018190556008909101819055338152600360205260408120905b81548110156114d3578282828154811061144557611445611d1e565b9060005260206000200154036114cb578154829061146590600190611f0a565b8154811061147557611475611d1e565b906000526020600020015482828154811061149257611492611d1e565b9060005260206000200181905550818054806114b0576114b0611f1d565b600190038181906000526020600020016000905590556114d3565b600101611429565b50600082815260046020526040808220805460ff191690555183917f1f86f2a8f9251632c769e604fdeadd0ea49ab3682d1befac8ab09a7725da9c9591610a3891908190611f33565b6001600160a01b0381166000908152600660205260408120805482919061154290611d8f565b9050119050919050565b61155461173f565b6001600160a01b03811661157e57604051631e4fbdf760e01b815260006004820152602401610557565b611587816117c1565b50565b600260208190526000918252604090912080546001820154928201805491936001600160a01b031692916115bd90611d8f565b80601f01602080910402602001604051908101604052809291908181526020018280546115e990611d8f565b80156116365780601f1061160b57610100808354040283529160200191611636565b820191906000526020600020905b81548152906001019060200180831161161957829003601f168201915b50505050600383015460048401546005850154600686018054959660ff9485169693955093909116929161166990611d8f565b80601f016020809104026020016040519081016040528092919081815260200182805461169590611d8f565b80156116e25780601f106116b7576101008083540402835291602001916116e2565b820191906000526020600020905b8154815290600101906020018083116116c557829003601f168201915b5050505050908060070154908060080154905089565b611700611714565b61170d8585858585610de7565b5050505050565b600054600160a01b900460ff1615610de55760405163d93c066560e01b815260040160405180910390fd5b6000546001600160a01b03163314610de55760405163118cdaa760e01b8152336004820152602401610557565b611774611854565b6000805460ff60a01b191690557f5db9ee0a495bf2e6ff9c91a7834c1ba4fdd244a5e8aa4e537bd38aeae4b073aa335b6040516001600160a01b03909116815260200160405180910390a1565b600080546001600160a01b038381166001600160a01b0319831681178455604051919092169283917f8be0079c531659141344cd1fd0a4f28419497f9722a3daafe3b4186f6b6457e09190a35050565b611819611714565b6000805460ff60a01b1916600160a01b1790557f62e78cea01bee320cd4e420270b5ea74000d11b0c9f74754ebdbfc544b05a2586117a43390565b600054600160a01b900460ff16610de557604051638dfc202b60e01b815260040160405180910390fd5b50805461188a90611d8f565b6000825580601f1061189a575050565b601f01602090049060005260206000209081019061158791905b808211156118c857600081556001016118b4565b5090565b600080604083850312156118df57600080fd5b50508035926020909101359150565b6020808252825182820181905260009190848201906040850190845b818110156119265783518352928401929184019160010161190a565b50909695505050505050565b6000806040838503121561194557600080fd5b823591506020830135801515811461195c57600080fd5b809150509250929050565b634e487b7160e01b600052604160045260246000fd5b600082601f83011261198e57600080fd5b813567ffffffffffffffff808211156119a9576119a9611967565b604051601f8301601f19908116603f011681019082821181831017156119d1576119d1611967565b816040528381528660208588010111156119ea57600080fd5b836020870160208301376000602085830101528094505050505092915050565b803560ff81168114611a1b57600080fd5b919050565b60008060008060808587031215611a3657600080fd5b843567ffffffffffffffff80821115611a4e57600080fd5b611a5a8883890161197d565b9550611a6860208801611a0a565b9450604087013593506060870135915080821115611a8557600080fd5b50611a928782880161197d565b91505092959194509250565b80356001600160a01b0381168114611a1b57600080fd5b60008060408385031215611ac857600080fd5b611ad183611a9e565b9150602083013567ffffffffffffffff811115611aed57600080fd5b611af98582860161197d565b9150509250929050565b600060208284031215611b1557600080fd5b5035919050565b6000815180845260005b81811015611b4257602081850181015186830182015201611b26565b506000602082860101526020601f19601f83011685010191505092915050565b634e487b7160e01b600052602160045260246000fd5b60028110611b9657634e487b7160e01b600052602160045260246000fd5b9052565b8981526001600160a01b038916602082015261012060408201819052600090611bc58382018b611b1c565b9050611bd4606084018a611b78565b87608084015286151560a084015282810360c0840152611bf48187611b1c565b60e084019590955250506101000152979650505050505050565b600080600080600060a08688031215611c2657600080fd5b85359450602086013567ffffffffffffffff80821115611c4557600080fd5b611c5189838a0161197d565b9550611c5f60408901611a0a565b9450606088013593506080880135915080821115611c7c57600080fd5b50611c898882890161197d565b9150509295509295909350565b60008060408385031215611ca957600080fd5b611cb283611a9e565b946020939093013593505050565b600060208284031215611cd257600080fd5b611cdb82611a9e565b9392505050565b602081526000611cdb6020830184611b1c565b634e487b7160e01b600052601160045260246000fd5b808201808211156104d6576104d6611cf5565b634e487b7160e01b600052603260045260246000fd5b600060018201611d4657611d46611cf5565b5060010190565b60208082526022908201527f52656e7420616d6f756e74206d7573742062652067726561746572207468616e604082015261020360f41b606082015260800190565b600181811c90821680611da357607f821691505b602082108103611dc357634e487b7160e01b600052602260045260246000fd5b50919050565b601f821115611e15576000816000526020600020601f850160051c81016020861015611df25750805b601f850160051c820191505b81811015611e1157828155600101611dfe565b5050505b505050565b815167ffffffffffffffff811115611e3457611e34611967565b611e4881611e428454611d8f565b84611dc9565b602080601f831160018114611e7d5760008415611e655750858301515b600019600386901b1c1916600185901b178555611e11565b600085815260208120601f198616915b82811015611eac57888601518255948401946001909101908401611e8d565b5085821015611eca5787850151600019600388901b60f8161c191681555b5050505050600190811b01905550565b606081526000611eed6060830186611b1c565b9050611efc6020830185611b78565b826040830152949350505050565b818103818111156104d6576104d6611cf5565b634e487b7160e01b600052603160045260246000fd5b606080825260009082015260808101611f4f6020830185611b78565b826040830152939250505056fea26469706673582212203c8aadba5137c953cb7faf0724972bb80894bc5fc058f90b3800f44f38982e5164736f6c63430008160033",
  "linkReferences": {},
  "deployedLinkReferences": {}
}