{
  "_format": "hh-sol-artifact-1",
  "contractName": "RentChain",
  "sourceName": "contracts/RentChain.sol",
  "abi": [
    {
      "inputs": [
        {
          "internalType": "address",
          "name": "_escrow",
          "type": "address"
        },
        {
          "internalType": "address",
          "name": "_listings",
          "type": "address"
        },
        {
          "internalType": "address",
          "name": "_complaints",
          "type": "address"
        },
        {
          "internalType": "address",
          "name": "_reports",
          "type": "address"
        },
        {
          "internalType": "address",
          "name": "_creditScore",
          "type": "address"
        },
        {
          "internalType": "address",
          "name": "_reminders",
          "type": "address"
        },
        {
          "internalType": "address",
          "name": "_chat",
          "type": "address"
        },
        {
          "internalType": "address",
          "name": "_onRamp",
          "type": "address"
        },
        {
          "internalType": "address",
          "name": "_language",
          "type": "address"
        }
      ],
      "stateMutability": "nonpayable",
      "type": "constructor"
    },
    {
      "inputs": [
        {
          "internalType": "address",
          "name": "target",
          "type": "address"
        }
      ],
      "name": "AddressEmptyCode",
      "type": "error"
    },
    {
      "inputs": [
        {
          "internalType": "address",
          "name": "implementation",
          "type": "address"
        }
      ],
      "name": "ERC1967InvalidImplementation",
      "type": "error"
    },
    {
      "inputs": [],
      "name": "ERC1967NonPayable",
      "type": "error"
    },
    {
      "inputs": [],
      "name": "EnforcedPause",
      "type": "error"
    },
    {
      "inputs": [],
      "name": "ExpectedPause",
      "type": "error"
    },
    {
      "inputs": [],
      "name": "FailedCall",
      "type": "error"
    },
    {
      "inputs": [
        {
          "internalType": "address",
          "name": "owner",
          "type": "address"
        }
      ],
      "name": "OwnableInvalidOwner",
      "type": "error"
    },
    {
      "inputs": [
        {
          "internalType": "address",
          "name": "account",
          "type": "address"
        }
      ],
      "name": "OwnableUnauthorizedAccount",
      "type": "error"
    },
    {
      "inputs": [],
      "name": "ReentrancyGuardReentrantCall",
      "type": "error"
    },
    {
      "inputs": [],
      "name": "UUPSUnauthorizedCallContext",
      "type": "error"
    },
    {
      "inputs": [
        {
          "internalType": "bytes32",
          "name": "slot",
          "type": "bytes32"
        }
      ],
      "name": "UUPSUnsupportedProxiableUUID",
      "type": "error"
    },
    {
      "anonymous": false,
      "inputs": [
        {
          "indexed": true,
          "internalType": "string",
          "name": "contractName",
          "type": "string"
        },
        {
          "indexed": true,
          "internalType": "address",
          "name": "oldAddress",
          "type": "address"
        },
        {
          "indexed": true,
          "internalType": "address",
          "name": "newAddress",
          "type": "address"
        }
      ],
      "name": "ContractUpdated",
      "type": "event"
    },
    {
      "anonymous": false,
      "inputs": [
        {
          "indexed": true,
          "internalType": "address",
          "name": "previousOwner",
          "type": "address"
        },
        {
          "indexed": true,
          "internalType": "address",
          "name": "newOwner",
          "type": "address"
        }
      ],
      "name": "OwnershipTransferred",
      "type": "event"
    },
    {
      "anonymous": false,
      "inputs": [
        {
          "indexed": false,
          "internalType": "address",
          "name": "account",
          "type": "address"
        }
      ],
      "name": "Paused",
      "type": "event"
    },
    {
      "anonymous": false,
      "inputs": [
        {
          "indexed": true,
          "internalType": "address",
          "name": "pauser",
          "type": "address"
        },
        {
          "indexed": false,
          "internalType": "string",
          "name": "reason",
          "type": "string"
        }
      ],
      "name": "PlatformPaused",
      "type": "event"
    },
    {
      "anonymous": false,
      "inputs": [
        {
          "indexed": true,
          "internalType": "address",
          "name": "unpauser",
          "type": "address"
        }
      ],
      "name": "PlatformUnpaused",
      "type": "event"
    },
    {
      "anonymous": false,
      "inputs": [
        {
          "indexed": false,
          "internalType": "address",
          "name": "account",
          "type": "address"
        }
      ],
      "name": "Unpaused",
      "type": "event"
    },
    {
      "anonymous": false,
      "inputs": [
        {
          "indexed": true,
          "internalType": "address",
          "name": "implementation",
          "type": "address"
        }
      ],
      "name": "Upgraded",
      "type": "event"
    },
    {
      "inputs": [],
      "name": "UPGRADE_INTERFACE_VERSION",
      "outputs": [
        {
          "internalType": "string",
          "name": "",
          "type": "string"
        }
      ],
      "stateMutability": "view",
      "type": "function"
    },
    {
      "inputs": [],
      "name": "chatContract",
      "outputs": [
        {
          "internalType": "contract Chat",
          "name": "",
          "type": "address"
        }
      ],
      "stateMutability": "view",
      "type": "function"
    },
    {
      "inputs": [],
      "name": "complaintsContract",
      "outputs": [
        {
          "internalType": "contract Complaints",
          "name": "",
          "type": "address"
        }
      ],
      "stateMutability": "view",
      "type": "function"
    },
    {
      "inputs": [],
      "name": "creditScoreContract",
      "outputs": [
        {
          "internalType": "contract CreditScore",
          "name": "",
          "type": "address"
        }
      ],
      "stateMutability": "view",
      "type": "function"
    },
    {
      "inputs": [],
      "name": "escrowContract",
      "outputs": [
        {
          "internalType": "contract Escrow",
          "name": "",
          "type": "address"
        }
      ],
      "stateMutability": "view",
      "type": "function"
    },
    {
      "inputs": [],
      "name": "getContractAddresses",
      "outputs": [
        {
          "internalType": "address[]",
          "name": "",
          "type": "address[]"
        }
      ],
      "stateMutability": "view",
      "type": "function"
    },
    {
      "inputs": [],
      "name": "getPlatformStats",
      "outputs": [
        {
          "internalType": "uint256",
          "name": "totalProperties",
          "type": "uint256"
        },
        {
          "internalType": "uint256",
          "name": "totalComplaints",
          "type": "uint256"
        },
        {
          "internalType": "uint256",
          "name": "totalReports",
          "type": "uint256"
        },
        {
          "internalType": "uint256",
          "name": "totalReminders",
          "type": "uint256"
        }
      ],
      "stateMutability": "view",
      "type": "function"
    },
    {
      "inputs": [],
      "name": "languageContract",
      "outputs": [
        {
          "internalType": "contract Language",
          "name": "",
          "type": "address"
        }
      ],
      "stateMutability": "view",
      "type": "function"
    },
    {
      "inputs": [],
      "name": "listingsContract",
      "outputs": [
        {
          "internalType": "contract Listings",
          "name": "",
          "type": "address"
        }
      ],
      "stateMutability": "view",
      "type": "function"
    },
    {
      "inputs": [],
      "name": "onRampContract",
      "outputs": [
        {
          "internalType": "contract OnRamp",
          "name": "",
          "type": "address"
        }
      ],
      "stateMutability": "view",
      "type": "function"
    },
    {
      "inputs": [],
      "name": "owner",
      "outputs": [
        {
          "internalType": "address",
          "name": "",
          "type": "address"
        }
      ],
      "stateMutability": "view",
      "type": "function"
    },
    {
      "inputs": [
        {
          "internalType": "string",
          "name": "reason",
          "type": "string"
        }
      ],
      "name": "pausePlatform",
      "outputs": [],
      "stateMutability": "nonpayable",
      "type": "function"
    },
    {
      "inputs": [],
      "name": "paused",
      "outputs": [
        {
          "internalType": "bool",
          "name": "",
          "type": "bool"
        }
      ],
      "stateMutability": "view",
      "type": "function"
    },
    {
      "inputs": [],
      "name": "proxiableUUID",
      "outputs": [
        {
          "internalType": "bytes32",
          "name": "",
          "type": "bytes32"
        }
      ],
      "stateMutability": "view",
      "type": "function"
    },
    {
      "inputs": [],
      "name": "remindersContract",
      "outputs": [
        {
          "internalType": "contract Reminders",
          "name": "",
          "type": "address"
        }
      ],
      "stateMutability": "view",
      "type": "function"
    },
    {
      "inputs": [],
      "name": "renounceOwnership",
      "outputs": [],
      "stateMutability": "nonpayable",
      "type": "function"
    },
    {
      "inputs": [],
      "name": "reportsContract",
      "outputs": [
        {
          "internalType": "contract Reports",
          "name": "",
          "type": "address"
        }
      ],
      "stateMutability": "view",
      "type": "function"
    },
    {
      "inputs": [
        {
          "internalType": "address",
          "name": "newOwner",
          "type": "address"
        }
      ],
      "name": "transferOwnership",
      "outputs": [],
      "stateMutability": "nonpayable",
      "type": "function"
    },
    {
      "inputs": [],
      "name": "unpausePlatform",
      "outputs": [],
      "stateMutability": "nonpayable",
      "type": "function"
    },
    {
      "inputs": [
        {
          "internalType": "string",
          "name": "contractName",
          "type": "string"
        },
        {
          "internalType": "address",
          "name": "newAddress",
          "type": "address"
        }
      ],
      "name": "updateContract",
      "outputs": [],
      "stateMutability": "nonpayable",
      "type": "function"
    },
    {
      "inputs": [
        {
          "internalType": "address",
          "name": "newImplementation",
          "type": "address"
        },
        {
          "internalType": "bytes",
          "name": "data",
          "type": "bytes"
        }
      ],
      "name": "upgradeToAndCall",
      "outputs": [],
      "stateMutability": "payable",
      "type": "function"
    }
  ],
  "bytecode": "0x60a0604052306080523480156200001557600080fd5b5060405162001c5038038062001c50833981016040819052620000389162000496565b33806200006057604051631e4fbdf760e01b8152600060048201526024015b60405180910390fd5b6200006b8162000429565b50600180556001600160a01b038916620000c85760405162461bcd60e51b815260206004820152601660248201527f496e76616c696420657363726f77206164647265737300000000000000000000604482015260640162000057565b6001600160a01b038816620001205760405162461bcd60e51b815260206004820152601860248201527f496e76616c6964206c697374696e677320616464726573730000000000000000604482015260640162000057565b6001600160a01b038716620001785760405162461bcd60e51b815260206004820152601a60248201527f496e76616c696420636f6d706c61696e74732061646472657373000000000000604482015260640162000057565b6001600160a01b038616620001d05760405162461bcd60e51b815260206004820152601760248201527f496e76616c6964207265706f7274732061646472657373000000000000000000604482015260640162000057565b6001600160a01b038516620002285760405162461bcd60e51b815260206004820152601c60248201527f496e76616c6964206372656469742073636f7265206164647265737300000000604482015260640162000057565b6001600160a01b038416620002805760405162461bcd60e51b815260206004820152601960248201527f496e76616c69642072656d696e64657273206164647265737300000000000000604482015260640162000057565b6001600160a01b038316620002d85760405162461bcd60e51b815260206004820152601460248201527f496e76616c696420636861742061646472657373000000000000000000000000604482015260640162000057565b6001600160a01b038216620003305760405162461bcd60e51b815260206004820152601760248201527f496e76616c6964206f6e2d72616d702061646472657373000000000000000000604482015260640162000057565b6001600160a01b038116620003885760405162461bcd60e51b815260206004820152601860248201527f496e76616c6964206c616e677561676520616464726573730000000000000000604482015260640162000057565b600280546001600160a01b03199081166001600160a01b039b8c1617909155600380548216998b1699909917909855600480548916978a16979097179096556005805488169589169590951790945560068054871693881693909317909255600780548616918716919091179055600880548516918616919091179055600980548416918516919091179055600a8054909216921691909117905562000551565b600080546001600160a01b038381166001600160a01b0319831681178455604051919092169283917f8be0079c531659141344cd1fd0a4f28419497f9722a3daafe3b4186f6b6457e09190a35050565b80516001600160a01b03811681146200049157600080fd5b919050565b60008060008060008060008060006101208a8c031215620004b657600080fd5b620004c18a62000479565b9850620004d160208b0162000479565b9750620004e160408b0162000479565b9650620004f160608b0162000479565b95506200050160808b0162000479565b94506200051160a08b0162000479565b93506200052160c08b0162000479565b92506200053160e08b0162000479565b9150620005426101008b0162000479565b90509295985092959850929598565b6080516116d56200057b60003960008181610f5301528181610f7c01526110c201526116d56000f3fe60806040526004361061012a5760003560e01c8063697a60b3116100ab578063953874d21161006f578063953874d21461032b578063ad3cb1cc1461034d578063d748cc8b1461038b578063e42a96e7146103ab578063ef0053d8146103cb578063f2fde38b146103eb57600080fd5b8063697a60b314610298578063715018a6146102b857806377966776146102cd57806378fc7832146102ed5780638da5cb5b1461030d57600080fd5b806352c23000116100f257806352c23000146101eb57806352d1902d1461020b5780635c975abb1461022e5780635cb7df54146102585780635d98d6ae1461027857600080fd5b806303a42b6f1461012f578063136d88831461016c5780631a9ba7eb146101a15780631af7227f146101b85780634f1ef286146101d8575b600080fd5b34801561013b57600080fd5b5060065461014f906001600160a01b031681565b6040516001600160a01b0390911681526020015b60405180910390f35b34801561017857600080fd5b5061018161040b565b604080519485526020850193909352918301526060820152608001610163565b3480156101ad57600080fd5b506101b66105fb565b005b3480156101c457600080fd5b5060045461014f906001600160a01b031681565b6101b66101e6366004611468565b610638565b3480156101f757600080fd5b5060075461014f906001600160a01b031681565b34801561021757600080fd5b50610220610657565b604051908152602001610163565b34801561023a57600080fd5b50600054600160a01b900460ff166040519015158152602001610163565b34801561026457600080fd5b506101b66102733660046114ea565b610674565b34801561028457600080fd5b50600a5461014f906001600160a01b031681565b3480156102a457600080fd5b506101b66102b3366004611527565b6106c8565b3480156102c457600080fd5b506101b6610c86565b3480156102d957600080fd5b5060035461014f906001600160a01b031681565b3480156102f957600080fd5b5060085461014f906001600160a01b031681565b34801561031957600080fd5b506000546001600160a01b031661014f565b34801561033757600080fd5b50610340610c9a565b6040516101639190611575565b34801561035957600080fd5b5061037e604051806040016040528060058152602001640352e302e360dc1b81525081565b60405161016391906115e6565b34801561039757600080fd5b5060055461014f906001600160a01b031681565b3480156103b757600080fd5b5060025461014f906001600160a01b031681565b3480156103d757600080fd5b5060095461014f906001600160a01b031681565b3480156103f757600080fd5b506101b6610406366004611619565b610e88565b600080600080600360009054906101000a90046001600160a01b03166001600160a01b03166317aaf5ed6040518163ffffffff1660e01b8152600401602060405180830381865afa158015610464573d6000803e3d6000fd5b505050506040513d601f19601f820116820180604052508101906104889190611634565b9350600460009054906101000a90046001600160a01b03166001600160a01b03166359f978016040518163ffffffff1660e01b8152600401602060405180830381865afa1580156104dd573d6000803e3d6000fd5b505050506040513d601f19601f820116820180604052508101906105019190611634565b9250600560009054906101000a90046001600160a01b03166001600160a01b031663d4e995006040518163ffffffff1660e01b8152600401602060405180830381865afa158015610556573d6000803e3d6000fd5b505050506040513d601f19601f8201168201806040525081019061057a9190611634565b9150600760009054906101000a90046001600160a01b03166001600160a01b0316639a665d206040518163ffffffff1660e01b8152600401602060405180830381865afa1580156105cf573d6000803e3d6000fd5b505050506040513d601f19601f820116820180604052508101906105f39190611634565b905090919293565b610603610ec6565b61060b610ef3565b60405133907f0a7c6382517057f26f15c04d3e8a2bb9d5f92931eb1f20ca76352b2465a5135b90600090a2565b610640610f48565b61064982610fed565b6106538282610ff5565b5050565b60006106616110b7565b5060008051602061168083398151915290565b61067c610ec6565b610684611100565b336001600160a01b03167f0633b518f7e228cea84c7b36264537a16387cd16109f97ff871f587d7238481d826040516106bd91906115e6565b60405180910390a250565b6106d0610ec6565b6001600160a01b03811661072b5760405162461bcd60e51b815260206004820152601860248201527f496e76616c696420636f6e74726163742061646472657373000000000000000060448201526064015b60405180910390fd5b604080518082019091526006815265457363726f7760d01b6020918201528251908301207f4643ad7fda3c7d3f37ebc7eb5e20a49dc99492a9d28e0a7409e9ae47dc067f6c016107e857600280546001600160a01b038381166001600160a01b0319831681179093556040519116919082906107b39065457363726f7760d01b815260060190565b604051908190038120907f508230d9e989b49c651e1c7be29de727f16d9c1027f7660466911e442c3121fb90600090a4505050565b6040805180820190915260088152674c697374696e677360c01b6020918201528251908301207f7d36dd4b42472c24076c8cb7664c4364a3c9cbbd479b6a0a77de1c912090d1390161087457600380546001600160a01b038381166001600160a01b0319831681179093556040519116919082906107b390674c697374696e677360c01b815260080190565b60408051808201909152600a815269436f6d706c61696e747360b01b6020918201528251908301207fec6bb512519b21244f279833a2b21897b431f2981b9608ac76c67d618ea305760161090457600480546001600160a01b038381166001600160a01b0319831681179093556040519116919082906107b39069436f6d706c61696e747360b01b8152600a0190565b6040805180820190915260078152665265706f72747360c81b6020918201528251908301207f91ca3a96f4202f8e826a31962570e0c262869b965070dccc2e2d80a545fbe8f70161098e57600580546001600160a01b038381166001600160a01b0319831681179093556040519116919082906107b390665265706f72747360c81b815260070190565b60408051808201909152600b81526a43726564697453636f726560a81b6020918201528251908301207ff61e9889e0f62d3a069acdf7dffbe5d30849e3cbb720d15176478078aa034d9301610a2057600680546001600160a01b038381166001600160a01b0319831681179093556040519116919082906107b3906a43726564697453636f726560a81b8152600b0190565b60408051808201909152600981526852656d696e6465727360b81b6020918201528251908301207fb46a9c63236c735ddc4c59bc1146e83251e06ddfa0fb343114b5e8f73716c53401610aae57600780546001600160a01b038381166001600160a01b0319831681179093556040519116919082906107b3906852656d696e6465727360b81b815260090190565b60408051808201909152600481526310da185d60e21b6020918201528251908301207f4b82d2c86361d49df7c8e1c0e33f2b77534f536514e1ea0524a0f7a5622906bc01610b3257600880546001600160a01b038381166001600160a01b0319831681179093556040519116919082906107b3906310da185d60e21b815260040190565b60408051808201909152600681526504f6e52616d760d41b6020918201528251908301207f4ff6f0539c9b729811abef27912483eb87ef739a649398f98bb0104278a1546a01610bba57600980546001600160a01b038381166001600160a01b0319831681179093556040519116919082906107b3906504f6e52616d760d41b815260060190565b6040805180820190915260088152674c616e677561676560c01b6020918201528251908301207f0db9983a798874212bea4a3de32d5c344e645d5f012f8f64712c226b2f3a342101610c4657600a80546001600160a01b038381166001600160a01b0319831681179093556040519116919082906107b390674c616e677561676560c01b815260080190565b60405162461bcd60e51b8152602060048201526015602482015274496e76616c696420636f6e7472616374206e616d6560581b6044820152606401610722565b610c8e610ec6565b610c986000611143565b565b6040805160098082526101408201909252606091600091906020820161012080368337505060025482519293506001600160a01b031691839150600090610ce357610ce361164d565b6001600160a01b039283166020918202929092010152600354825191169082906001908110610d1457610d1461164d565b6001600160a01b039283166020918202929092010152600454825191169082906002908110610d4557610d4561164d565b6001600160a01b039283166020918202929092010152600554825191169082906003908110610d7657610d7661164d565b6001600160a01b039283166020918202929092010152600654825191169082906004908110610da757610da761164d565b6001600160a01b039283166020918202929092010152600754825191169082906005908110610dd857610dd861164d565b6001600160a01b039283166020918202929092010152600854825191169082906006908110610e0957610e0961164d565b6001600160a01b039283166020918202929092010152600954825191169082906007908110610e3a57610e3a61164d565b6001600160a01b039283166020918202929092010152600a54825191169082906008908110610e6b57610e6b61164d565b6001600160a01b0390921660209283029190910190910152919050565b610e90610ec6565b6001600160a01b038116610eba57604051631e4fbdf760e01b815260006004820152602401610722565b610ec381611143565b50565b6000546001600160a01b03163314610c985760405163118cdaa760e01b8152336004820152602401610722565b610efb611193565b6000805460ff60a01b191690557f5db9ee0a495bf2e6ff9c91a7834c1ba4fdd244a5e8aa4e537bd38aeae4b073aa335b6040516001600160a01b03909116815260200160405180910390a1565b306001600160a01b037f0000000000000000000000000000000000000000000000000000000000000000161480610fcf57507f00000000000000000000000000000000000000000000000000000000000000006001600160a01b0316610fc3600080516020611680833981519152546001600160a01b031690565b6001600160a01b031614155b15610c985760405163703e46dd60e11b815260040160405180910390fd5b610ec3610ec6565b816001600160a01b03166352d1902d6040518163ffffffff1660e01b8152600401602060405180830381865afa92505050801561104f575060408051601f3d908101601f1916820190925261104c91810190611634565b60015b61107757604051634c9c8ce360e01b81526001600160a01b0383166004820152602401610722565b60008051602061168083398151915281146110a857604051632a87526960e21b815260048101829052602401610722565b6110b283836111bd565b505050565b306001600160a01b037f00000000000000000000000000000000000000000000000000000000000000001614610c985760405163703e46dd60e11b815260040160405180910390fd5b611108611213565b6000805460ff60a01b1916600160a01b1790557f62e78cea01bee320cd4e420270b5ea74000d11b0c9f74754ebdbfc544b05a258610f2b3390565b600080546001600160a01b038381166001600160a01b0319831681178455604051919092169283917f8be0079c531659141344cd1fd0a4f28419497f9722a3daafe3b4186f6b6457e09190a35050565b600054600160a01b900460ff16610c9857604051638dfc202b60e01b815260040160405180910390fd5b6111c68261123e565b6040516001600160a01b038316907fbc7cd75a20ee27fd9adebab32041f755214dbc6bffa90cc0225b39da2e5c2d3b90600090a280511561120b576110b282826112a3565b610653611319565b600054600160a01b900460ff1615610c985760405163d93c066560e01b815260040160405180910390fd5b806001600160a01b03163b60000361127457604051634c9c8ce360e01b81526001600160a01b0382166004820152602401610722565b60008051602061168083398151915280546001600160a01b0319166001600160a01b0392909216919091179055565b6060600080846001600160a01b0316846040516112c09190611663565b600060405180830381855af49150503d80600081146112fb576040519150601f19603f3d011682016040523d82523d6000602084013e611300565b606091505b5091509150611310858383611338565b95945050505050565b3415610c985760405163b398979f60e01b815260040160405180910390fd5b60608261134d5761134882611397565b611390565b815115801561136457506001600160a01b0384163b155b1561138d57604051639996b31560e01b81526001600160a01b0385166004820152602401610722565b50805b9392505050565b8051156113a75780518082602001fd5b60405163d6bda27560e01b815260040160405180910390fd5b80356001600160a01b03811681146113d757600080fd5b919050565b634e487b7160e01b600052604160045260246000fd5b600067ffffffffffffffff8084111561140d5761140d6113dc565b604051601f8501601f19908116603f01168101908282118183101715611435576114356113dc565b8160405280935085815286868601111561144e57600080fd5b858560208301376000602087830101525050509392505050565b6000806040838503121561147b57600080fd5b611484836113c0565b9150602083013567ffffffffffffffff8111156114a057600080fd5b8301601f810185136114b157600080fd5b6114c0858235602084016113f2565b9150509250929050565b600082601f8301126114db57600080fd5b611390838335602085016113f2565b6000602082840312156114fc57600080fd5b813567ffffffffffffffff81111561151357600080fd5b61151f848285016114ca565b949350505050565b6000806040838503121561153a57600080fd5b823567ffffffffffffffff81111561155157600080fd5b61155d858286016114ca565b92505061156c602084016113c0565b90509250929050565b6020808252825182820181905260009190848201906040850190845b818110156115b65783516001600160a01b031683529284019291840191600101611591565b50909695505050505050565b60005b838110156115dd5781810151838201526020016115c5565b50506000910152565b60208152600082518060208401526116058160408501602087016115c2565b601f01601f19169190910160400192915050565b60006020828403121561162b57600080fd5b611390826113c0565b60006020828403121561164657600080fd5b5051919050565b634e487b7160e01b600052603260045260246000fd5b600082516116758184602087016115c2565b919091019291505056fe360894a13ba1a3210667c828492db98dca3e2076cc3735a920a3ca505d382bbca264697066735822122041f991707e07088a76fec2a8d00e0a1d4e96e72b230405aed5ad2a323894a7ca64736f6c63430008160033",
  "linkReferences": {},
  "deployedLinkReferences": {}
}