{
  "_format": "hh-sol-artifact-1",
  "contractName": "Escrow",
  "sourceName": "contracts/Escrow.sol",
  "abi": [
    {
      "inputs": [
        {
          "internalType": "address",
          "name": "_usdtToken",
          "type": "address"
        }
      ],
      "stateMutability": "nonpayable",
      "type": "constructor"
    },
    {
      "inputs": [],
      "name": "EnforcedPause",
      "type": "error"
    },
    {
      "inputs": [],
      "name": "ExpectedPause",
      "type": "error"
    },
    {
      "inputs": [
        {
          "internalType": "address",
          "name": "owner",
          "type": "address"
        }
      ],
      "name": "OwnableInvalidOwner",
      "type": "error"
    },
    {
      "inputs": [
        {
          "internalType": "address",
          "name": "account",
          "type": "address"
        }
      ],
      "name": "OwnableUnauthorizedAccount",
      "type": "error"
    },
    {
      "inputs": [],
      "name": "ReentrancyGuardReentrantCall",
      "type": "error"
    },
    {
      "inputs": [
        {
          "internalType": "address",
          "name": "token",
          "type": "address"
        }
      ],
      "name": "SafeERC20FailedOperation",
      "type": "error"
    },
    {
      "anonymous": false,
      "inputs": [
        {
          "indexed": true,
          "internalType": "address",
          "name": "previousOwner",
          "type": "address"
        },
        {
          "indexed": true,
          "internalType": "address",
          "name": "newOwner",
          "type": "address"
        }
      ],
      "name": "OwnershipTransferred",
      "type": "event"
    },
    {
      "anonymous": false,
      "inputs": [
        {
          "indexed": false,
          "internalType": "address",
          "name": "account",
          "type": "address"
        }
      ],
      "name": "Paused",
      "type": "event"
    },
    {
      "anonymous": false,
      "inputs": [
        {
          "indexed": true,
          "internalType": "uint256",
          "name": "paymentId",
          "type": "uint256"
        },
        {
          "indexed": true,
          "internalType": "address",
          "name": "tenant",
          "type": "address"
        },
        {
          "indexed": true,
          "internalType": "address",
          "name": "landlord",
          "type": "address"
        },
        {
          "indexed": false,
          "internalType": "uint256",
          "name": "propertyId",
          "type": "uint256"
        },
        {
          "indexed": false,
          "internalType": "uint256",
          "name": "amount",
          "type": "uint256"
        },
        {
          "indexed": false,
          "internalType": "uint256",
          "name": "dueDate",
          "type": "uint256"
        }
      ],
      "name": "PaymentCreated",
      "type": "event"
    },
    {
      "anonymous": false,
      "inputs": [
        {
          "indexed": true,
          "internalType": "uint256",
          "name": "paymentId",
          "type": "uint256"
        },
        {
          "indexed": true,
          "internalType": "address",
          "name": "disputer",
          "type": "address"
        },
        {
          "indexed": false,
          "internalType": "string",
          "name": "reason",
          "type": "string"
        }
      ],
      "name": "PaymentDisputed",
      "type": "event"
    },
    {
      "anonymous": false,
      "inputs": [
        {
          "indexed": true,
          "internalType": "uint256",
          "name": "paymentId",
          "type": "uint256"
        },
        {
          "indexed": true,
          "internalType": "address",
          "name": "tenant",
          "type": "address"
        },
        {
          "indexed": false,
          "internalType": "uint256",
          "name": "amount",
          "type": "uint256"
        },
        {
          "indexed": false,
          "internalType": "enum Escrow.PaymentType",
          "name": "paymentType",
          "type": "uint8"
        }
      ],
      "name": "PaymentPaid",
      "type": "event"
    },
    {
      "anonymous": false,
      "inputs": [
        {
          "indexed": true,
          "internalType": "uint256",
          "name": "paymentId",
          "type": "uint256"
        },
        {
          "indexed": true,
          "internalType": "address",
          "name": "tenant",
          "type": "address"
        },
        {
          "indexed": false,
          "internalType": "uint256",
          "name": "amount",
          "type": "uint256"
        }
      ],
      "name": "PaymentRefunded",
      "type": "event"
    },
    {
      "anonymous": false,
      "inputs": [
        {
          "indexed": false,
          "internalType": "uint256",
          "name": "oldFee",
          "type": "uint256"
        },
        {
          "indexed": false,
          "internalType": "uint256",
          "name": "newFee",
          "type": "uint256"
        }
      ],
      "name": "PlatformFeeUpdated",
      "type": "event"
    },
    {
      "anonymous": false,
      "inputs": [
        {
          "indexed": true,
          "internalType": "address",
          "name": "oldAddress",
          "type": "address"
        },
        {
          "indexed": true,
          "internalType": "address",
          "name": "newAddress",
          "type": "address"
        }
      ],
      "name": "USDTAddressUpdated",
      "type": "event"
    },
    {
      "anonymous": false,
      "inputs": [
        {
          "indexed": false,
          "internalType": "address",
          "name": "account",
          "type": "address"
        }
      ],
      "name": "Unpaused",
      "type": "event"
    },
    {
      "inputs": [],
      "name": "BASIS_POINTS",
      "outputs": [
        {
          "internalType": "uint256",
          "name": "",
          "type": "uint256"
        }
      ],
      "stateMutability": "view",
      "type": "function"
    },
    {
      "inputs": [
        {
          "internalType": "uint256",
          "name": "amount",
          "type": "uint256"
        }
      ],
      "name": "calculateFee",
      "outputs": [
        {
          "internalType": "uint256",
          "name": "feeAmount",
          "type": "uint256"
        }
      ],
      "stateMutability": "view",
      "type": "function"
    },
    {
      "inputs": [
        {
          "internalType": "address",
          "name": "landlord",
          "type": "address"
        },
        {
          "internalType": "uint256",
          "name": "propertyId",
          "type": "uint256"
        },
        {
          "internalType": "uint256",
          "name": "amount",
          "type": "uint256"
        },
        {
          "internalType": "uint256",
          "name": "dueDate",
          "type": "uint256"
        }
      ],
      "name": "createPayment",
      "outputs": [],
      "stateMutability": "nonpayable",
      "type": "function"
    },
    {
      "inputs": [
        {
          "internalType": "uint256",
          "name": "paymentId",
          "type": "uint256"
        },
        {
          "internalType": "string",
          "name": "reason",
          "type": "string"
        }
      ],
      "name": "disputePayment",
      "outputs": [],
      "stateMutability": "nonpayable",
      "type": "function"
    },
    {
      "inputs": [
        {
          "internalType": "address",
          "name": "user",
          "type": "address"
        }
      ],
      "name": "getOverduePayments",
      "outputs": [
        {
          "internalType": "uint256[]",
          "name": "",
          "type": "uint256[]"
        }
      ],
      "stateMutability": "view",
      "type": "function"
    },
    {
      "inputs": [
        {
          "internalType": "uint256",
          "name": "paymentId",
          "type": "uint256"
        }
      ],
      "name": "getPayment",
      "outputs": [
        {
          "internalType": "uint256",
          "name": "id",
          "type": "uint256"
        },
        {
          "internalType": "address",
          "name": "tenant",
          "type": "address"
        },
        {
          "internalType": "address",
          "name": "landlord",
          "type": "address"
        },
        {
          "internalType": "uint256",
          "name": "propertyId",
          "type": "uint256"
        },
        {
          "internalType": "uint256",
          "name": "amount",
          "type": "uint256"
        },
        {
          "internalType": "uint256",
          "name": "dueDate",
          "type": "uint256"
        },
        {
          "internalType": "uint256",
          "name": "paidDate",
          "type": "uint256"
        },
        {
          "internalType": "enum Escrow.PaymentStatus",
          "name": "status",
          "type": "uint8"
        },
        {
          "internalType": "enum Escrow.PaymentType",
          "name": "paymentType",
          "type": "uint8"
        },
        {
          "internalType": "string",
          "name": "transactionHash",
          "type": "string"
        }
      ],
      "stateMutability": "view",
      "type": "function"
    },
    {
      "inputs": [
        {
          "internalType": "address",
          "name": "user",
          "type": "address"
        }
      ],
      "name": "getPendingPayments",
      "outputs": [
        {
          "internalType": "uint256[]",
          "name": "",
          "type": "uint256[]"
        }
      ],
      "stateMutability": "view",
      "type": "function"
    },
    {
      "inputs": [],
      "name": "getPlatformStats",
      "outputs": [
        {
          "internalType": "uint256",
          "name": "",
          "type": "uint256"
        },
        {
          "internalType": "uint256",
          "name": "",
          "type": "uint256"
        },
        {
          "internalType": "uint256",
          "name": "",
          "type": "uint256"
        },
        {
          "internalType": "uint256",
          "name": "",
          "type": "uint256"
        }
      ],
      "stateMutability": "view",
      "type": "function"
    },
    {
      "inputs": [
        {
          "internalType": "uint256",
          "name": "propertyId",
          "type": "uint256"
        }
      ],
      "name": "getPropertyPayments",
      "outputs": [
        {
          "internalType": "uint256[]",
          "name": "",
          "type": "uint256[]"
        }
      ],
      "stateMutability": "view",
      "type": "function"
    },
    {
      "inputs": [
        {
          "internalType": "address",
          "name": "user",
          "type": "address"
        }
      ],
      "name": "getUserPayments",
      "outputs": [
        {
          "internalType": "uint256[]",
          "name": "",
          "type": "uint256[]"
        }
      ],
      "stateMutability": "view",
      "type": "function"
    },
    {
      "inputs": [],
      "name": "owner",
      "outputs": [
        {
          "internalType": "address",
          "name": "",
          "type": "address"
        }
      ],
      "stateMutability": "view",
      "type": "function"
    },
    {
      "inputs": [],
      "name": "pause",
      "outputs": [],
      "stateMutability": "nonpayable",
      "type": "function"
    },
    {
      "inputs": [],
      "name": "paused",
      "outputs": [
        {
          "internalType": "bool",
          "name": "",
          "type": "bool"
        }
      ],
      "stateMutability": "view",
      "type": "function"
    },
    {
      "inputs": [
        {
          "internalType": "uint256",
          "name": "paymentId",
          "type": "uint256"
        }
      ],
      "name": "payWithUSDT",
      "outputs": [],
      "stateMutability": "nonpayable",
      "type": "function"
    },
    {
      "inputs": [
        {
          "internalType": "uint256",
          "name": "",
          "type": "uint256"
        }
      ],
      "name": "payments",
      "outputs": [
        {
          "internalType": "uint256",
          "name": "paymentId",
          "type": "uint256"
        },
        {
          "internalType": "address",
          "name": "tenant",
          "type": "address"
        },
        {
          "internalType": "address",
          "name": "landlord",
          "type": "address"
        },
        {
          "internalType": "uint256",
          "name": "propertyId",
          "type": "uint256"
        },
        {
          "internalType": "uint256",
          "name": "amount",
          "type": "uint256"
        },
        {
          "internalType": "uint256",
          "name": "dueDate",
          "type": "uint256"
        },
        {
          "internalType": "uint256",
          "name": "paidDate",
          "type": "uint256"
        },
        {
          "internalType": "enum Escrow.PaymentStatus",
          "name": "status",
          "type": "uint8"
        },
        {
          "internalType": "enum Escrow.PaymentType",
          "name": "paymentType",
          "type": "uint8"
        },
        {
          "internalType": "string",
          "name": "transactionHash",
          "type": "string"
        }
      ],
      "stateMutability": "view",
      "type": "function"
    },
    {
      "inputs": [],
      "name": "platformFee",
      "outputs": [
        {
          "internalType": "uint256",
          "name": "",
          "type": "uint256"
        }
      ],
      "stateMutability": "view",
      "type": "function"
    },
    {
      "inputs": [
        {
          "internalType": "uint256",
          "name": "",
          "type": "uint256"
        },
        {
          "internalType": "uint256",
          "name": "",
          "type": "uint256"
        }
      ],
      "name": "propertyPayments",
      "outputs": [
        {
          "internalType": "uint256",
          "name": "",
          "type": "uint256"
        }
      ],
      "stateMutability": "view",
      "type": "function"
    },
    {
      "inputs": [
        {
          "internalType": "uint256",
          "name": "paymentId",
          "type": "uint256"
        },
        {
          "internalType": "string",
          "name": "transactionHash",
          "type": "string"
        }
      ],
      "name": "recordFiatPayment",
      "outputs": [],
      "stateMutability": "nonpayable",
      "type": "function"
    },
    {
      "inputs": [
        {
          "internalType": "uint256",
          "name": "paymentId",
          "type": "uint256"
        }
      ],
      "name": "refundPayment",
      "outputs": [],
      "stateMutability": "nonpayable",
      "type": "function"
    },
    {
      "inputs": [],
      "name": "renounceOwnership",
      "outputs": [],
      "stateMutability": "nonpayable",
      "type": "function"
    },
    {
      "inputs": [],
      "name": "totalFiatVolume",
      "outputs": [
        {
          "internalType": "uint256",
          "name": "",
          "type": "uint256"
        }
      ],
      "stateMutability": "view",
      "type": "function"
    },
    {
      "inputs": [],
      "name": "totalPayments",
      "outputs": [
        {
          "internalType": "uint256",
          "name": "",
          "type": "uint256"
        }
      ],
      "stateMutability": "view",
      "type": "function"
    },
    {
      "inputs": [],
      "name": "totalUSDTVolume",
      "outputs": [
        {
          "internalType": "uint256",
          "name": "",
          "type": "uint256"
        }
      ],
      "stateMutability": "view",
      "type": "function"
    },
    {
      "inputs": [
        {
          "internalType": "address",
          "name": "newOwner",
          "type": "address"
        }
      ],
      "name": "transferOwnership",
      "outputs": [],
      "stateMutability": "nonpayable",
      "type": "function"
    },
    {
      "inputs": [],
      "name": "unpause",
      "outputs": [],
      "stateMutability": "nonpayable",
      "type": "function"
    },
    {
      "inputs": [
        {
          "internalType": "uint256",
          "name": "newFee",
          "type": "uint256"
        }
      ],
      "name": "updatePlatformFee",
      "outputs": [],
      "stateMutability": "nonpayable",
      "type": "function"
    },
    {
      "inputs": [
        {
          "internalType": "address",
          "name": "newUSDTAddress",
          "type": "address"
        }
      ],
      "name": "updateUSDTAddress",
      "outputs": [],
      "stateMutability": "nonpayable",
      "type": "function"
    },
    {
      "inputs": [],
      "name": "usdtToken",
      "outputs": [
        {
          "internalType": "contract IERC20",
          "name": "",
          "type": "address"
        }
      ],
      "stateMutability": "view",
      "type": "function"
    },
    {
      "inputs": [
        {
          "internalType": "address",
          "name": "",
          "type": "address"
        },
        {
          "internalType": "uint256",
          "name": "",
          "type": "uint256"
        }
      ],
      "name": "userPayments",
      "outputs": [
        {
          "internalType": "uint256",
          "name": "",
          "type": "uint256"
        }
      ],
      "stateMutability": "view",
      "type": "function"
    }
  ],
  "bytecode": "0x608060405260326009553480156200001657600080fd5b50604051620024433803806200244383398101604081905262000039916200013f565b33806200006157604051631e4fbdf760e01b8152600060048201526024015b60405180910390fd5b6200006c81620000ef565b50600180556001600160a01b038116620000c95760405162461bcd60e51b815260206004820152601460248201527f496e76616c696420555344542061646472657373000000000000000000000000604482015260640162000058565b600280546001600160a01b0319166001600160a01b039290921691909117905562000171565b600080546001600160a01b038381166001600160a01b0319831681178455604051919092169283917f8be0079c531659141344cd1fd0a4f28419497f9722a3daafe3b4186f6b6457e09190a35050565b6000602082840312156200015257600080fd5b81516001600160a01b03811681146200016a57600080fd5b9392505050565b6122c280620001816000396000f3fe608060405234801561001057600080fd5b50600436106101ce5760003560e01c80638456cb59116101045780639d7dadeb116100a2578063e1f1c4a711610071578063e1f1c4a7146103d2578063f2fde38b146103db578063f63813f4146103ee578063fcfc29121461040157600080fd5b80639d7dadeb14610386578063a98ad46c14610399578063aa0b5988146103ac578063b5b7882a146103bf57600080fd5b80638cfeab35116100de5780638cfeab35146103285780638da5cb5b1461033b5780638e7715201461036057806399a5d7471461037357600080fd5b80638456cb59146102fa57806387d81789146103025780638c9feb251461031557600080fd5b80633f4ba83a1161017157806351e38e2c1161014b57806351e38e2c146102af5780635c975abb146102c2578063715018a6146102df57806375d60372146102e757600080fd5b80633f4ba83a1461027f57806340a2e60a14610289578063464241291461029c57600080fd5b8063165f8fb8116101ad578063165f8fb8146102245780631d0b7b241461024457806326232a2e1461024d5780633280a8361461025657600080fd5b80625b4487146101d3578063043fc664146101ef578063136d8883146101f8575b600080fd5b6101dc60065481565b6040519081526020015b60405180910390f35b6101dc60075481565b6006546007546008546009546040805194855260208501939093529183015260608201526080016101e6565b610237610232366004611d84565b610414565b6040516101e69190611da6565b6101dc60085481565b6101dc60095481565b610269610264366004611dea565b6108ec565b6040516101e69a99989796959493929190611e73565b610287610ac9565b005b610237610297366004611d84565b610adb565b6102876102aa366004611dea565b610ca4565b6101dc6102bd366004611ef6565b610efc565b600054600160a01b900460ff1660405190151581526020016101e6565b610287610f2d565b6102876102f5366004611d84565b610f3f565b610287610fe6565b610269610310366004611dea565b610ff6565b610287610323366004611f2e565b6110e6565b6101dc610336366004611fe9565b6112a5565b6000546001600160a01b03165b6040516001600160a01b0390911681526020016101e6565b61028761036e366004611f2e565b6112c1565b6101dc610381366004611dea565b61147e565b610237610394366004611d84565b6114a1565b600254610348906001600160a01b031681565b6102876103ba366004611dea565b61150d565b6102876103cd366004612013565b6115a3565b6101dc61271081565b6102876103e9366004611d84565b6118d7565b6102876103fc366004611dea565b611912565b61023761040f366004611dea565b611a60565b6001600160a01b038116600090815260056020908152604080832080548251818502810185019093528083526060949383018282801561047357602002820191906000526020600020905b81548152602001906001019080831161045f575b505050505090506000805b825181101561066e5760006003600085848151811061049f5761049f61204c565b60209081029190910181015182528181019290925260409081016000208151610140810183528154815260018201546001600160a01b0390811694820194909452600282015490931691830191909152600381015460608301526004808201546080840152600582015460a0840152600682015460c0840152600782015460e084019160ff9091169081111561053757610537611e03565b600481111561054857610548611e03565b81526020016007820160019054906101000a900460ff16600181111561057057610570611e03565b600181111561058157610581611e03565b815260200160088201805461059590612062565b80601f01602080910402602001604051908101604052809291908181526020018280546105c190612062565b801561060e5780601f106105e35761010080835404028352916020019161060e565b820191906000526020600020905b8154815290600101906020018083116105f157829003601f168201915b50505050508152505090506000600481111561062c5761062c611e03565b8160e00151600481111561064257610642611e03565b1480156106525750428160a00151105b156106655782610661816120b2565b9350505b5060010161047e565b5060008167ffffffffffffffff81111561068a5761068a611f18565b6040519080825280602002602001820160405280156106b3578160200160208202803683370190505b5090506000805b84518110156108e1576000600360008784815181106106db576106db61204c565b60209081029190910181015182528181019290925260409081016000208151610140810183528154815260018201546001600160a01b0390811694820194909452600282015490931691830191909152600381015460608301526004808201546080840152600582015460a0840152600682015460c0840152600782015460e084019160ff9091169081111561077357610773611e03565b600481111561078457610784611e03565b81526020016007820160019054906101000a900460ff1660018111156107ac576107ac611e03565b60018111156107bd576107bd611e03565b81526020016008820180546107d190612062565b80601f01602080910402602001604051908101604052809291908181526020018280546107fd90612062565b801561084a5780601f1061081f5761010080835404028352916020019161084a565b820191906000526020600020905b81548152906001019060200180831161082d57829003601f168201915b50505050508152505090506000600481111561086857610868611e03565b8160e00151600481111561087e5761087e611e03565b14801561088e5750428160a00151105b156108d8578582815181106108a5576108a561204c565b60200260200101518484815181106108bf576108bf61204c565b6020908102919091010152826108d4816120b2565b9350505b506001016106ba565b509095945050505050565b60008181526003602081815260408084208151610140810183528154815260018201546001600160a01b0390811694820194909452600282015490931691830191909152918201546060828101919091526004808401546080840152600584015460a0840152600684015460c084015260078401548594859485948594859485948594859493859391929160e084019160ff9091169081111561099157610991611e03565b60048111156109a2576109a2611e03565b81526020016007820160019054906101000a900460ff1660018111156109ca576109ca611e03565b60018111156109db576109db611e03565b81526020016008820180546109ef90612062565b80601f0160208091040260200160405190810160405280929190818152602001828054610a1b90612062565b8015610a685780601f10610a3d57610100808354040283529160200191610a68565b820191906000526020600020905b815481529060010190602001808311610a4b57829003601f168201915b5050505050815250509050806000015181602001518260400151836060015184608001518560a001518660c001518760e001518861010001518961012001519a509a509a509a509a509a509a509a509a509a50509193959799509193959799565b610ad1611ac0565b610ad9611aed565b565b6001600160a01b0381166000908152600560209081526040808320805482518185028101850190935280835260609493830182828015610b3a57602002820191906000526020600020905b815481526020019060010190808311610b26575b505050505090506000805b8251811015610bb357600060036000858481518110610b6657610b6661204c565b60209081029190910181015182528101919091526040016000206007015460ff166004811115610b9857610b98611e03565b03610bab5781610ba7816120b2565b9250505b600101610b45565b5060008167ffffffffffffffff811115610bcf57610bcf611f18565b604051908082528060200260200182016040528015610bf8578160200160208202803683370190505b5090506000805b84518110156108e157600060036000878481518110610c2057610c2061204c565b60209081029190910181015182528101919091526040016000206007015460ff166004811115610c5257610c52611e03565b03610c9c57848181518110610c6957610c6961204c565b6020026020010151838381518110610c8357610c8361204c565b602090810291909101015281610c98816120b2565b9250505b600101610bff565b610cac611b42565b610cb4611b6c565b60008181526003602052604081208054909103610cec5760405162461bcd60e51b8152600401610ce3906120cb565b60405180910390fd5b60018101546001600160a01b03163314610d3e5760405162461bcd60e51b81526020600482015260136024820152724f6e6c792074656e616e742063616e2070617960681b6044820152606401610ce3565b6000600782015460ff166004811115610d5957610d59611e03565b14610d9c5760405162461bcd60e51b81526020600482015260136024820152725061796d656e74206e6f742070656e64696e6760681b6044820152606401610ce3565b60006007820154610100900460ff166001811115610dbc57610dbc611e03565b14610e015760405162461bcd60e51b81526020600482015260156024820152740a0c2f2dacadce840e8f2e0ca40dad2e6dac2e8c6d605b1b6044820152606401610ce3565b60006127106009548360040154610e1891906120f6565b610e22919061210d565b90506000818360040154610e36919061212f565b6004840154600254919250610e58916001600160a01b03169033903090611b97565b6002808401549054610e77916001600160a01b03918216911683611c04565b6007838101805442600687015561ffff1916600117905560048401548154909190600090610ea6908490612142565b90915550506004830154604051339186917fe9f3d43e858a16f1eeb9d42aee4205971e89377fd0f0777ea4f0933178bed6c991610ee591600090612155565b60405180910390a3505050610ef960018055565b50565b60046020528160005260406000208181548110610f1857600080fd5b90600052602060002001600091509150505481565b610f35611ac0565b610ad96000611c3a565b610f47611ac0565b6001600160a01b038116610f945760405162461bcd60e51b8152602060048201526014602482015273496e76616c69642055534454206164647265737360601b6044820152606401610ce3565b600280546001600160a01b038381166001600160a01b0319831681179093556040519116919082907f21cf39c695965e27ae443d82f9402e9515267724cf6f97cc8088c076a6dd15b190600090a35050565b610fee611ac0565b610ad9611c8a565b600360208190526000918252604090912080546001820154600283015493830154600484015460058501546006860154600787015460088801805497996001600160a01b0397881699971697959694959394929360ff808416946101009094041692919061106390612062565b80601f016020809104026020016040519081016040528092919081815260200182805461108f90612062565b80156110dc5780601f106110b1576101008083540402835291602001916110dc565b820191906000526020600020905b8154815290600101906020018083116110bf57829003601f168201915b505050505090508a565b6110ee611b6c565b6000828152600360205260408120805490910361111d5760405162461bcd60e51b8152600401610ce3906120cb565b60018101546001600160a01b0316331480611144575060028101546001600160a01b031633145b61119c5760405162461bcd60e51b815260206004820152602360248201527f4f6e6c792074656e616e74206f72206c616e646c6f72642063616e206469737060448201526275746560e81b6064820152608401610ce3565b6001600782015460ff1660048111156111b7576111b7611e03565b146112045760405162461bcd60e51b815260206004820152601f60248201527f5061796d656e74206d757374206265207061696420746f2064697370757465006044820152606401610ce3565b60008251116112555760405162461bcd60e51b815260206004820152601760248201527f4469737075746520726561736f6e2072657175697265640000000000000000006044820152606401610ce3565b60078101805460ff19166003179055604051339084907f12c4d16781984e37d691ff56d1d56318d308dd4ee33f7d1de6e1f2ffd684886890611298908690612169565b60405180910390a3505050565b60056020528160005260406000208181548110610f1857600080fd5b6112c9611b6c565b600082815260036020526040812080549091036112f85760405162461bcd60e51b8152600401610ce3906120cb565b60018101546001600160a01b031633146113545760405162461bcd60e51b815260206004820152601e60248201527f4f6e6c792074656e616e742063616e207265636f7264207061796d656e7400006044820152606401610ce3565b6000600782015460ff16600481111561136f5761136f611e03565b146113b25760405162461bcd60e51b81526020600482015260136024820152725061796d656e74206e6f742070656e64696e6760681b6044820152606401610ce3565b60008251116114035760405162461bcd60e51b815260206004820152601960248201527f5472616e73616374696f6e2068617368207265717569726564000000000000006044820152606401610ce3565b60078101805442600684015561ffff19166101011790556008810161142883826121cc565b5080600401546008600082825461143f9190612142565b90915550506004810154604051339185917fe9f3d43e858a16f1eeb9d42aee4205971e89377fd0f0777ea4f0933178bed6c99161129891600190612155565b60006127106009548361149191906120f6565b61149b919061210d565b92915050565b6001600160a01b03811660009081526005602090815260409182902080548351818402810184019094528084526060939283018282801561150157602002820191906000526020600020905b8154815260200190600101908083116114ed575b50505050509050919050565b611515611ac0565b6101f481111561155e5760405162461bcd60e51b81526020600482015260146024820152734665652063616e6e6f742065786365656420352560601b6044820152606401610ce3565b600980549082905560408051828152602081018490527fd347e206f25a89b917fc9482f1a2d294d749baa4dc9bde7fb495ee11fe491643910160405180910390a15050565b6115ab611b6c565b6001600160a01b0384166116015760405162461bcd60e51b815260206004820152601860248201527f496e76616c6964206c616e646c6f7264206164647265737300000000000000006044820152606401610ce3565b600082116116515760405162461bcd60e51b815260206004820152601d60248201527f416d6f756e74206d7573742062652067726561746572207468616e20300000006044820152606401610ce3565b4281116116a05760405162461bcd60e51b815260206004820152601e60248201527f4475652064617465206d75737420626520696e207468652066757475726500006044820152606401610ce3565b600680549060006116b0836120b2565b9190505550600060065490506000604051806101400160405280838152602001336001600160a01b03168152602001876001600160a01b03168152602001868152602001858152602001848152602001600081526020016000600481111561171a5761171a611e03565b81526020016000815260408051602081810183526000808352938101919091528583526003808252928290208451815590840151600180830180546001600160a01b039384166001600160a01b03199182161790915593860151600284018054919093169416939093179055606084015192810192909255608083015160048084019190915560a0840151600584015560c0840151600684015560e084015160078401805495965086959193909260ff199092169184908111156117e0576117e0611e03565b0217905550610100828101516007830180549192909161ff0019169083600181111561180e5761180e611e03565b0217905550610120820151600882019061182890826121cc565b505050600085815260046020908152604080832080546001808201835591855283852001869055338085526005845282852080548084018255908652848620018790556001600160a01b038b168086528386208054938401815586529484902090910186905581518981529283018890529082018690529084907f56a99ddeb1d8f1930a400f6ceb2281c44b9ccaf7472d1ff2d872cf1ce37984919060600160405180910390a4505050505050565b6118df611ac0565b6001600160a01b03811661190957604051631e4fbdf760e01b815260006004820152602401610ce3565b610ef981611c3a565b61191a611ac0565b611922611b6c565b600081815260036020526040812080549091036119515760405162461bcd60e51b8152600401610ce3906120cb565b6001600782015460ff16600481111561196c5761196c611e03565b146119b95760405162461bcd60e51b815260206004820152601e60248201527f5061796d656e74206d757374206265207061696420746f20726566756e6400006044820152606401610ce3565b60078101805460ff19166004179081905560009060ff6101009091041660018111156119e7576119e7611e03565b03611a115760018101546004820154600254611a11926001600160a01b0391821692911690611c04565b600181015460048201546040519081526001600160a01b039091169083907fe89ec1881a76229445bcd179b8c4b24f9edc7ddd87d07fb3b19c67ae9c6e27cc9060200160405180910390a35050565b60008181526004602090815260409182902080548351818402810184019094528084526060939283018282801561150157602002820191906000526020600020908154815260200190600101908083116114ed5750505050509050919050565b6000546001600160a01b03163314610ad95760405163118cdaa760e01b8152336004820152602401610ce3565b611af5611ccd565b6000805460ff60a01b191690557f5db9ee0a495bf2e6ff9c91a7834c1ba4fdd244a5e8aa4e537bd38aeae4b073aa335b6040516001600160a01b03909116815260200160405180910390a1565b600260015403611b6557604051633ee5aeb560e01b815260040160405180910390fd5b6002600155565b600054600160a01b900460ff1615610ad95760405163d93c066560e01b815260040160405180910390fd5b6040516001600160a01b038481166024830152838116604483015260648201839052611bfe9186918216906323b872dd906084015b604051602081830303815290604052915060e01b6020820180516001600160e01b038381831617835250505050611cf7565b50505050565b6040516001600160a01b03838116602483015260448201839052611c3591859182169063a9059cbb90606401611bcc565b505050565b600080546001600160a01b038381166001600160a01b0319831681178455604051919092169283917f8be0079c531659141344cd1fd0a4f28419497f9722a3daafe3b4186f6b6457e09190a35050565b611c92611b6c565b6000805460ff60a01b1916600160a01b1790557f62e78cea01bee320cd4e420270b5ea74000d11b0c9f74754ebdbfc544b05a258611b253390565b600054600160a01b900460ff16610ad957604051638dfc202b60e01b815260040160405180910390fd5b600080602060008451602086016000885af180611d1a576040513d6000823e3d81fd5b50506000513d91508115611d32578060011415611d3f565b6001600160a01b0384163b155b15611bfe57604051635274afe760e01b81526001600160a01b0385166004820152602401610ce3565b80356001600160a01b0381168114611d7f57600080fd5b919050565b600060208284031215611d9657600080fd5b611d9f82611d68565b9392505050565b6020808252825182820181905260009190848201906040850190845b81811015611dde57835183529284019291840191600101611dc2565b50909695505050505050565b600060208284031215611dfc57600080fd5b5035919050565b634e487b7160e01b600052602160045260246000fd5b60028110611e2957611e29611e03565b9052565b6000815180845260005b81811015611e5357602081850181015186830182015201611e37565b506000602082860101526020601f19601f83011685010191505092915050565b8a81526001600160a01b038a8116602083015289166040820152606081018890526080810187905260a0810186905260c08101859052600061014060058610611ebe57611ebe611e03565b8560e0840152611ed2610100840186611e19565b80610120840152611ee581840185611e2d565b9d9c50505050505050505050505050565b60008060408385031215611f0957600080fd5b50508035926020909101359150565b634e487b7160e01b600052604160045260246000fd5b60008060408385031215611f4157600080fd5b82359150602083013567ffffffffffffffff80821115611f6057600080fd5b818501915085601f830112611f7457600080fd5b813581811115611f8657611f86611f18565b604051601f8201601f19908116603f01168101908382118183101715611fae57611fae611f18565b81604052828152886020848701011115611fc757600080fd5b8260208601602083013760006020848301015280955050505050509250929050565b60008060408385031215611ffc57600080fd5b61200583611d68565b946020939093013593505050565b6000806000806080858703121561202957600080fd5b61203285611d68565b966020860135965060408601359560600135945092505050565b634e487b7160e01b600052603260045260246000fd5b600181811c9082168061207657607f821691505b60208210810361209657634e487b7160e01b600052602260045260246000fd5b50919050565b634e487b7160e01b600052601160045260246000fd5b6000600182016120c4576120c461209c565b5060010190565b60208082526011908201527014185e5b595b9d081b9bdd08199bdd5b99607a1b604082015260600190565b808202811582820484141761149b5761149b61209c565b60008261212a57634e487b7160e01b600052601260045260246000fd5b500490565b8181038181111561149b5761149b61209c565b8082018082111561149b5761149b61209c565b82815260408101611d9f6020830184611e19565b602081526000611d9f6020830184611e2d565b601f821115611c35576000816000526020600020601f850160051c810160208610156121a55750805b601f850160051c820191505b818110156121c4578281556001016121b1565b505050505050565b815167ffffffffffffffff8111156121e6576121e6611f18565b6121fa816121f48454612062565b8461217c565b602080601f83116001811461222f57600084156122175750858301515b600019600386901b1c1916600185901b1785556121c4565b600085815260208120601f198616915b8281101561225e5788860151825594840194600190910190840161223f565b508582101561227c5787850151600019600388901b60f8161c191681555b5050505050600190811b0190555056fea26469706673582212205e6ff85bbfee9cd3d35d0029edcbbc0b6dec46b988dc511641997d63357c04e264736f6c63430008160033",
  "linkReferences": {},
  "deployedLinkReferences": {}
}