{
  "_format": "hh-sol-artifact-1",
  "contractName": "Complaints",
  "sourceName": "contracts/Complaints.sol",
  "abi": [
    {
      "inputs": [],
      "stateMutability": "nonpayable",
      "type": "constructor"
    },
    {
      "inputs": [],
      "name": "EnforcedPause",
      "type": "error"
    },
    {
      "inputs": [],
      "name": "ExpectedPause",
      "type": "error"
    },
    {
      "inputs": [
        {
          "internalType": "address",
          "name": "owner",
          "type": "address"
        }
      ],
      "name": "OwnableInvalidOwner",
      "type": "error"
    },
    {
      "inputs": [
        {
          "internalType": "address",
          "name": "account",
          "type": "address"
        }
      ],
      "name": "OwnableUnauthorizedAccount",
      "type": "error"
    },
    {
      "inputs": [],
      "name": "ReentrancyGuardReentrantCall",
      "type": "error"
    },
    {
      "anonymous": false,
      "inputs": [
        {
          "indexed": true,
          "internalType": "uint256",
          "name": "complaintId",
          "type": "uint256"
        },
        {
          "indexed": true,
          "internalType": "uint256",
          "name": "propertyId",
          "type": "uint256"
        },
        {
          "indexed": true,
          "internalType": "address",
          "name": "tenant",
          "type": "address"
        },
        {
          "indexed": false,
          "internalType": "string",
          "name": "ipfsHash",
          "type": "string"
        }
      ],
      "name": "ComplaintLogged",
      "type": "event"
    },
    {
      "anonymous": false,
      "inputs": [
        {
          "indexed": true,
          "internalType": "uint256",
          "name": "complaintId",
          "type": "uint256"
        },
        {
          "indexed": true,
          "internalType": "address",
          "name": "landlord",
          "type": "address"
        },
        {
          "indexed": false,
          "internalType": "uint256",
          "name": "resolvedAt",
          "type": "uint256"
        }
      ],
      "name": "ComplaintResolved",
      "type": "event"
    },
    {
      "anonymous": false,
      "inputs": [
        {
          "indexed": true,
          "internalType": "address",
          "name": "previousOwner",
          "type": "address"
        },
        {
          "indexed": true,
          "internalType": "address",
          "name": "newOwner",
          "type": "address"
        }
      ],
      "name": "OwnershipTransferred",
      "type": "event"
    },
    {
      "anonymous": false,
      "inputs": [
        {
          "indexed": false,
          "internalType": "address",
          "name": "account",
          "type": "address"
        }
      ],
      "name": "Paused",
      "type": "event"
    },
    {
      "anonymous": false,
      "inputs": [
        {
          "indexed": true,
          "internalType": "uint256",
          "name": "propertyId",
          "type": "uint256"
        },
        {
          "indexed": true,
          "internalType": "address",
          "name": "landlord",
          "type": "address"
        }
      ],
      "name": "PropertyLandlordSet",
      "type": "event"
    },
    {
      "anonymous": false,
      "inputs": [
        {
          "indexed": false,
          "internalType": "address",
          "name": "account",
          "type": "address"
        }
      ],
      "name": "Unpaused",
      "type": "event"
    },
    {
      "inputs": [
        {
          "internalType": "uint256",
          "name": "",
          "type": "uint256"
        }
      ],
      "name": "complaints",
      "outputs": [
        {
          "internalType": "uint256",
          "name": "complaintId",
          "type": "uint256"
        },
        {
          "internalType": "uint256",
          "name": "propertyId",
          "type": "uint256"
        },
        {
          "internalType": "address",
          "name": "tenant",
          "type": "address"
        },
        {
          "internalType": "enum Complaints.ComplaintStatus",
          "name": "status",
          "type": "uint8"
        },
        {
          "internalType": "string",
          "name": "ipfsHash",
          "type": "string"
        },
        {
          "internalType": "uint256",
          "name": "createdAt",
          "type": "uint256"
        },
        {
          "internalType": "uint256",
          "name": "resolvedAt",
          "type": "uint256"
        },
        {
          "internalType": "address",
          "name": "resolvedBy",
          "type": "address"
        }
      ],
      "stateMutability": "view",
      "type": "function"
    },
    {
      "inputs": [
        {
          "internalType": "uint256",
          "name": "complaintId",
          "type": "uint256"
        }
      ],
      "name": "getComplaint",
      "outputs": [
        {
          "internalType": "uint256",
          "name": "id",
          "type": "uint256"
        },
        {
          "internalType": "uint256",
          "name": "propertyId",
          "type": "uint256"
        },
        {
          "internalType": "address",
          "name": "tenant",
          "type": "address"
        },
        {
          "internalType": "enum Complaints.ComplaintStatus",
          "name": "status",
          "type": "uint8"
        },
        {
          "internalType": "string",
          "name": "ipfsHash",
          "type": "string"
        },
        {
          "internalType": "uint256",
          "name": "createdAt",
          "type": "uint256"
        },
        {
          "internalType": "uint256",
          "name": "resolvedAt",
          "type": "uint256"
        },
        {
          "internalType": "address",
          "name": "resolvedBy",
          "type": "address"
        }
      ],
      "stateMutability": "view",
      "type": "function"
    },
    {
      "inputs": [
        {
          "internalType": "uint256",
          "name": "propertyId",
          "type": "uint256"
        }
      ],
      "name": "getOpenPropertyComplaints",
      "outputs": [
        {
          "internalType": "uint256[]",
          "name": "",
          "type": "uint256[]"
        }
      ],
      "stateMutability": "view",
      "type": "function"
    },
    {
      "inputs": [
        {
          "internalType": "uint256",
          "name": "propertyId",
          "type": "uint256"
        }
      ],
      "name": "getPropertyComplaints",
      "outputs": [
        {
          "internalType": "uint256[]",
          "name": "",
          "type": "uint256[]"
        }
      ],
      "stateMutability": "view",
      "type": "function"
    },
    {
      "inputs": [
        {
          "internalType": "uint256",
          "name": "propertyId",
          "type": "uint256"
        }
      ],
      "name": "getPropertyLandlord",
      "outputs": [
        {
          "internalType": "address",
          "name": "",
          "type": "address"
        }
      ],
      "stateMutability": "view",
      "type": "function"
    },
    {
      "inputs": [
        {
          "internalType": "address",
          "name": "tenant",
          "type": "address"
        }
      ],
      "name": "getTenantComplaints",
      "outputs": [
        {
          "internalType": "uint256[]",
          "name": "",
          "type": "uint256[]"
        }
      ],
      "stateMutability": "view",
      "type": "function"
    },
    {
      "inputs": [],
      "name": "getTotalComplaints",
      "outputs": [
        {
          "internalType": "uint256",
          "name": "",
          "type": "uint256"
        }
      ],
      "stateMutability": "view",
      "type": "function"
    },
    {
      "inputs": [],
      "name": "getTotalOpenComplaints",
      "outputs": [
        {
          "internalType": "uint256",
          "name": "",
          "type": "uint256"
        }
      ],
      "stateMutability": "view",
      "type": "function"
    },
    {
      "inputs": [
        {
          "internalType": "uint256",
          "name": "complaintId",
          "type": "uint256"
        }
      ],
      "name": "isComplaintOpen",
      "outputs": [
        {
          "internalType": "bool",
          "name": "",
          "type": "bool"
        }
      ],
      "stateMutability": "view",
      "type": "function"
    },
    {
      "inputs": [
        {
          "internalType": "uint256",
          "name": "propertyId",
          "type": "uint256"
        },
        {
          "internalType": "string",
          "name": "ipfsHash",
          "type": "string"
        }
      ],
      "name": "logComplaint",
      "outputs": [],
      "stateMutability": "nonpayable",
      "type": "function"
    },
    {
      "inputs": [],
      "name": "owner",
      "outputs": [
        {
          "internalType": "address",
          "name": "",
          "type": "address"
        }
      ],
      "stateMutability": "view",
      "type": "function"
    },
    {
      "inputs": [],
      "name": "pause",
      "outputs": [],
      "stateMutability": "nonpayable",
      "type": "function"
    },
    {
      "inputs": [],
      "name": "paused",
      "outputs": [
        {
          "internalType": "bool",
          "name": "",
          "type": "bool"
        }
      ],
      "stateMutability": "view",
      "type": "function"
    },
    {
      "inputs": [
        {
          "internalType": "uint256",
          "name": "",
          "type": "uint256"
        },
        {
          "internalType": "uint256",
          "name": "",
          "type": "uint256"
        }
      ],
      "name": "propertyComplaints",
      "outputs": [
        {
          "internalType": "uint256",
          "name": "",
          "type": "uint256"
        }
      ],
      "stateMutability": "view",
      "type": "function"
    },
    {
      "inputs": [
        {
          "internalType": "uint256",
          "name": "",
          "type": "uint256"
        }
      ],
      "name": "propertyLandlords",
      "outputs": [
        {
          "internalType": "address",
          "name": "",
          "type": "address"
        }
      ],
      "stateMutability": "view",
      "type": "function"
    },
    {
      "inputs": [],
      "name": "renounceOwnership",
      "outputs": [],
      "stateMutability": "nonpayable",
      "type": "function"
    },
    {
      "inputs": [
        {
          "internalType": "uint256",
          "name": "complaintId",
          "type": "uint256"
        }
      ],
      "name": "resolveComplaint",
      "outputs": [],
      "stateMutability": "nonpayable",
      "type": "function"
    },
    {
      "inputs": [
        {
          "internalType": "uint256",
          "name": "propertyId",
          "type": "uint256"
        },
        {
          "internalType": "address",
          "name": "landlord",
          "type": "address"
        }
      ],
      "name": "setPropertyLandlord",
      "outputs": [],
      "stateMutability": "nonpayable",
      "type": "function"
    },
    {
      "inputs": [
        {
          "internalType": "address",
          "name": "",
          "type": "address"
        },
        {
          "internalType": "uint256",
          "name": "",
          "type": "uint256"
        }
      ],
      "name": "tenantComplaints",
      "outputs": [
        {
          "internalType": "uint256",
          "name": "",
          "type": "uint256"
        }
      ],
      "stateMutability": "view",
      "type": "function"
    },
    {
      "inputs": [],
      "name": "totalComplaints",
      "outputs": [
        {
          "internalType": "uint256",
          "name": "",
          "type": "uint256"
        }
      ],
      "stateMutability": "view",
      "type": "function"
    },
    {
      "inputs": [
        {
          "internalType": "address",
          "name": "newOwner",
          "type": "address"
        }
      ],
      "name": "transferOwnership",
      "outputs": [],
      "stateMutability": "nonpayable",
      "type": "function"
    },
    {
      "inputs": [],
      "name": "unpause",
      "outputs": [],
      "stateMutability": "nonpayable",
      "type": "function"
    }
  ],
  "bytecode": "0x608060405234801561001057600080fd5b50338061003757604051631e4fbdf760e01b81526000600482015260240160405180910390fd5b6100408161004a565b506001805561009a565b600080546001600160a01b038381166001600160a01b0319831681178455604051919092169283917f8be0079c531659141344cd1fd0a4f28419497f9722a3daafe3b4186f6b6457e09190a35050565b611551806100a96000396000f3fe608060405234801561001057600080fd5b50600436106101425760003560e01c80637e69e912116100b8578063ac6fd8f71161007c578063ac6fd8f7146102ab578063c13683be146102be578063dee8ae43146102e7578063f2fde38b146102fa578063f760e1441461030d578063fa910a871461032057600080fd5b80637e69e9121461024f5780638456cb59146102765780638da5cb5b1461027e5780639f3715101461028f578063a886b398146102a257600080fd5b806356c218ca1161010a57806356c218ca146101b657806359f97801146101d95780635c975abb146101e1578063661cdc59146101f3578063715018a614610206578063734978fb1461020e57600080fd5b806304b8230e146101475780630742b179146101705780631a8fe1b5146101915780633f4ba83a146101a45780634ff5695e146101ae575b600080fd5b61015a6101553660046110e8565b610333565b604051610167919061110a565b60405180910390f35b61018361017e36600461114e565b61039f565b604051908152602001610167565b61015a61019f366004611170565b6103d0565b6101ac610430565b005b610183610442565b6101c96101c4366004611170565b6104a9565b6040519015158152602001610167565b600654610183565b600054600160a01b900460ff166101c9565b610183610201366004611189565b6104e1565b6101ac6104fd565b61023761021c366004611170565b6000908152600560205260409020546001600160a01b031690565b6040516001600160a01b039091168152602001610167565b61026261025d366004611170565b61050f565b60405161016798979695949392919061120f565b6101ac6105f7565b6000546001600160a01b0316610237565b6101ac61029d366004611289565b610607565b61018360065481565b6101ac6102b93660046112cb565b610721565b6102376102cc366004611170565b6005602052600090815260409020546001600160a01b031681565b6102626102f5366004611170565b6109d9565b6101ac6103083660046110e8565b610b79565b6101ac61031b366004611170565b610bb7565b61015a61032e366004611170565b610d8c565b6001600160a01b03811660009081526004602090815260409182902080548351818402810184019094528084526060939283018282801561039357602002820191906000526020600020905b81548152602001906001019080831161037f575b50505050509050919050565b600360205281600052604060002081815481106103bb57600080fd5b90600052602060002001600091509150505481565b600081815260036020908152604091829020805483518184028101840190945280845260609392830182828015610393576020028201919060005260206000209081548152602001906001019080831161037f5750505050509050919050565b610438610f62565b610440610f8f565b565b60008060015b60065481116104a357600081815260026020819052604082200154600160a01b900460ff16600181111561047e5761047e6111b3565b03610491578161048d81611386565b9250505b8061049b81611386565b915050610448565b50919050565b60008060008381526002602081905260409091200154600160a01b900460ff1660018111156104da576104da6111b3565b1492915050565b600460205281600052604060002081815481106103bb57600080fd5b610505610f62565b6104406000610fe4565b600260208190526000918252604090912080546001820154928201546003830180549294936001600160a01b03831693600160a01b90930460ff1692909190610557906113ad565b80601f0160208091040260200160405190810160405280929190818152602001828054610583906113ad565b80156105d05780601f106105a5576101008083540402835291602001916105d0565b820191906000526020600020905b8154815290600101906020018083116105b357829003601f168201915b5050505060048301546005840154600690940154929390929091506001600160a01b031688565b6105ff610f62565b610440611034565b6000546001600160a01b031633146106725760405162461bcd60e51b8152602060048201526024808201527f4f6e6c79206f776e65722063616e207365742070726f7065727479206c616e646044820152631b1bdc9960e21b60648201526084015b60405180910390fd5b6001600160a01b0381166106c85760405162461bcd60e51b815260206004820152601860248201527f496e76616c6964206c616e646c6f7264206164647265737300000000000000006044820152606401610669565b60008281526005602052604080822080546001600160a01b0319166001600160a01b0385169081179091559051909184917fc14290df6b228fbc7a806fd94e0f386611aa82e1c161809b438bb570a81b671d9190a35050565b610729611077565b6000828152600560205260409020546001600160a01b03166107825760405162461bcd60e51b8152602060048201526012602482015271141c9bdc195c9d1e481b9bdd08199bdd5b9960721b6044820152606401610669565b600082815260056020526040902054336001600160a01b03909116036107ea5760405162461bcd60e51b815260206004820152601e60248201527f4c616e646c6f72642063616e6e6f74206c6f6720636f6d706c61696e747300006044820152606401610669565b600081511161083b5760405162461bcd60e51b815260206004820152601960248201527f4950465320686173682063616e6e6f7420626520656d707479000000000000006044820152606401610669565b6006805490600061084b83611386565b90915550506006546040805161010081018252828152602080820186815233838501908152600060608501818152608086018990524260a087015260c0860182905260e08601829052878252600294859052959020845181559151600180840191909155905192820180546001600160a01b03949094166001600160a01b0319851681178255955194958695939491926001600160a81b03199092161790600160a01b908490811115610900576109006111b3565b0217905550608082015160038201906109199082611432565b5060a082015160048281019190915560c0830151600583015560e090920151600690910180546001600160a01b0319166001600160a01b0390921691909117905560008581526003602090815260408083208054600181810183559185528385200187905533808552948352818420805491820181558452919092200184905551859084907f12bcdb724c516c894135811a934f2f8b1fefea9f8ca1f7ca9777590effe10c5d906109cb9088906114f2565b60405180910390a450505050565b60008181526002602081815260408084208151610100810183528154815260018083015494820194909452938101546001600160a01b0381169285019290925284938493849360609385938493849384939188840191600160a01b900460ff1690811115610a4957610a496111b3565b6001811115610a5a57610a5a6111b3565b8152602001600382018054610a6e906113ad565b80601f0160208091040260200160405190810160405280929190818152602001828054610a9a906113ad565b8015610ae75780601f10610abc57610100808354040283529160200191610ae7565b820191906000526020600020905b815481529060010190602001808311610aca57829003601f168201915b5050505050815260200160048201548152602001600582015481526020016006820160009054906101000a90046001600160a01b03166001600160a01b03166001600160a01b0316815250509050806000015181602001518260400151836060015184608001518560a001518660c001518760e001519850985098509850985098509850985050919395975091939597565b610b81610f62565b6001600160a01b038116610bab57604051631e4fbdf760e01b815260006004820152602401610669565b610bb481610fe4565b50565b610bbf611077565b6000818152600260205260408120549003610c125760405162461bcd60e51b815260206004820152601360248201527210dbdb5c1b185a5b9d081b9bdd08199bdd5b99606a1b6044820152606401610669565b600081815260026020908152604080832060010154835260059091529020546001600160a01b03163314610c945760405162461bcd60e51b815260206004820152602360248201527f4f6e6c79206c616e646c6f72642063616e207265736f6c766520636f6d706c616044820152621a5b9d60ea1b6064820152608401610669565b600081815260026020819052604082200154600160a01b900460ff166001811115610cc157610cc16111b3565b14610d0e5760405162461bcd60e51b815260206004820152601a60248201527f436f6d706c61696e7420616c7265616479207265736f6c7665640000000000006044820152606401610669565b600081815260026020818152604092839020918201805460ff60a01b1916600160a01b1790554260058301819055600683018054336001600160a01b031990911681179091558451918252935192939285927f16ea5fc24715bb0b49eb2337c91d5b85bfc237362077297059417221c8c74858928290030190a35050565b6000818152600360209081526040808320805482518185028101850190935280835260609493830182828015610de157602002820191906000526020600020905b815481526020019060010190808311610dcd575b505050505090506000805b8251811015610e6057600060026000858481518110610e0d57610e0d611505565b6020026020010151815260200190815260200160002060020160149054906101000a900460ff166001811115610e4557610e456111b3565b03610e585781610e5481611386565b9250505b600101610dec565b5060008167ffffffffffffffff811115610e7c57610e7c6112b5565b604051908082528060200260200182016040528015610ea5578160200160208202803683370190505b5090506000805b8451811015610f5757600060026000878481518110610ecd57610ecd611505565b6020026020010151815260200190815260200160002060020160149054906101000a900460ff166001811115610f0557610f056111b3565b03610f4f57848181518110610f1c57610f1c611505565b6020026020010151838381518110610f3657610f36611505565b602090810291909101015281610f4b81611386565b9250505b600101610eac565b509095945050505050565b6000546001600160a01b031633146104405760405163118cdaa760e01b8152336004820152602401610669565b610f976110a2565b6000805460ff60a01b191690557f5db9ee0a495bf2e6ff9c91a7834c1ba4fdd244a5e8aa4e537bd38aeae4b073aa335b6040516001600160a01b03909116815260200160405180910390a1565b600080546001600160a01b038381166001600160a01b0319831681178455604051919092169283917f8be0079c531659141344cd1fd0a4f28419497f9722a3daafe3b4186f6b6457e09190a35050565b61103c611077565b6000805460ff60a01b1916600160a01b1790557f62e78cea01bee320cd4e420270b5ea74000d11b0c9f74754ebdbfc544b05a258610fc73390565b600054600160a01b900460ff16156104405760405163d93c066560e01b815260040160405180910390fd5b600054600160a01b900460ff1661044057604051638dfc202b60e01b815260040160405180910390fd5b80356001600160a01b03811681146110e357600080fd5b919050565b6000602082840312156110fa57600080fd5b611103826110cc565b9392505050565b6020808252825182820181905260009190848201906040850190845b8181101561114257835183529284019291840191600101611126565b50909695505050505050565b6000806040838503121561116157600080fd5b50508035926020909101359150565b60006020828403121561118257600080fd5b5035919050565b6000806040838503121561119c57600080fd5b6111a5836110cc565b946020939093013593505050565b634e487b7160e01b600052602160045260246000fd5b6000815180845260005b818110156111ef576020818501810151868301820152016111d3565b506000602082860101526020601f19601f83011685010191505092915050565b888152602081018890526001600160a01b038781166040830152600090610100906002891061124e57634e487b7160e01b600052602160045260246000fd5b886060850152816080850152611266828501896111c9565b60a085019790975260c08401959095525050911660e09091015295945050505050565b6000806040838503121561129c57600080fd5b823591506112ac602084016110cc565b90509250929050565b634e487b7160e01b600052604160045260246000fd5b600080604083850312156112de57600080fd5b82359150602083013567ffffffffffffffff808211156112fd57600080fd5b818501915085601f83011261131157600080fd5b813581811115611323576113236112b5565b604051601f8201601f19908116603f0116810190838211818310171561134b5761134b6112b5565b8160405282815288602084870101111561136457600080fd5b8260208601602083013760006020848301015280955050505050509250929050565b6000600182016113a657634e487b7160e01b600052601160045260246000fd5b5060010190565b600181811c908216806113c157607f821691505b6020821081036104a357634e487b7160e01b600052602260045260246000fd5b601f82111561142d576000816000526020600020601f850160051c8101602086101561140a5750805b601f850160051c820191505b8181101561142957828155600101611416565b5050505b505050565b815167ffffffffffffffff81111561144c5761144c6112b5565b6114608161145a84546113ad565b846113e1565b602080601f831160018114611495576000841561147d5750858301515b600019600386901b1c1916600185901b178555611429565b600085815260208120601f198616915b828110156114c4578886015182559484019460019091019084016114a5565b50858210156114e25787850151600019600388901b60f8161c191681555b5050505050600190811b01905550565b60208152600061110360208301846111c9565b634e487b7160e01b600052603260045260246000fdfea26469706673582212207c34537e0323b3bc4e4573a2b16cdacc27df3735cfa38181eda4a536b71ec17964736f6c63430008160033",
  "linkReferences": {},
  "deployedLinkReferences": {}
}